{
  "transactions": [
    {
      "hash": "0x97c8d01a4a7bf2255727a1ca9e7b35dddbcf0a5faf9f1940b187ea23df8a9370",
      "transactionType": "CALL",
      "contractName": null,
      "contractAddress": "0x6f475642a6e85809b1c36fa62763669b1b48dd5b",
      "function": "setSendLibrary(address,uint32,address)",
      "arguments": [
        "0xd82F211D0d9bE9A73a829A5F1f0e34b02Bf2FB36",
        "30110",
        "0xC39161c743D0307EB9BCc9FEF03eeb9Dc4802de7"
      ],
      "transaction": {
        "from": "0x6a225f09e0ebe597f79e86875b3704325d40c84d",
        "to": "0x6f475642a6e85809b1c36fa62763669b1b48dd5b",
        "gas": "0x1378b",
        "value": "0x0",
        "input": "0x9535ff30000000000000000000000000d82f211d0d9be9a73a829a5f1f0e34b02bf2fb36000000000000000000000000000000000000000000000000000000000000759e000000000000000000000000c39161c743d0307eb9bcc9fef03eeb9dc4802de7",
        "nonce": "0x12",
        "chainId": "0x4d454e"
      },
      "additionalContracts": [],
      "isFixedGasLimit": false
    },
    {
      "hash": "0xeebe62db4137055b12e7593e85f86e0b38956d6458dbeba66e66ced79d7e77c0",
      "transactionType": "CALL",
      "contractName": null,
      "contractAddress": "0x6f475642a6e85809b1c36fa62763669b1b48dd5b",
      "function": "setReceiveLibrary(address,uint32,address,uint256)",
      "arguments": [
        "0xd82F211D0d9bE9A73a829A5F1f0e34b02Bf2FB36",
        "30110",
        "0xe1844c5D63a9543023008D332Bd3d2e6f1FE1043",
        "0"
      ],
      "transaction": {
        "from": "0x6a225f09e0ebe597f79e86875b3704325d40c84d",
        "to": "0x6f475642a6e85809b1c36fa62763669b1b48dd5b",
        "gas": "0x15b7f",
        "value": "0x0",
        "input": "0x6a14d715000000000000000000000000d82f211d0d9be9a73a829a5f1f0e34b02bf2fb36000000000000000000000000000000000000000000000000000000000000759e000000000000000000000000e1844c5d63a9543023008d332bd3d2e6f1fe10430000000000000000000000000000000000000000000000000000000000000000",
        "nonce": "0x13",
        "chainId": "0x4d454e"
      },
      "additionalContracts": [],
      "isFixedGasLimit": false
    },
    {
      "hash": "0x786727d53dbd3ecdd00bbcde56963377e82d136e8130372a775e6fcccd6f8b7f",
      "transactionType": "CALL",
      "contractName": null,
      "contractAddress": "0x6f475642a6e85809b1c36fa62763669b1b48dd5b",
      "function": "setConfig(address,address,(uint32,uint32,bytes)[])",
      "arguments": [
        "0xd82F211D0d9bE9A73a829A5F1f0e34b02Bf2FB36",
        "0xe1844c5D63a9543023008D332Bd3d2e6f1FE1043",
        "[(30110, 2, 0x00000000000000000000000000000000000000000000000000000000000000200000000000000000000000000000000000000000000000000000000000000014000000000000000000000000000000000000000000000000000000000000000100000000000000000000000000000000000000000000000000000000000000ff000000000000000000000000000000000000000000000000000000000000000000000000000000000000000000000000000000000000000000000000000000c000000000000000000000000000000000000000000000000000000000000001000000000000000000000000000000000000000000000000000000000000000001000000000000000000000000282b3386571f7f794450d5789911a9804fa346b40000000000000000000000000000000000000000000000000000000000000000)]"
      ],
      "transaction": {
        "from": "0x6a225f09e0ebe597f79e86875b3704325d40c84d",
        "to": "0x6f475642a6e85809b1c36fa62763669b1b48dd5b",
        "gas": "0x26f24",
        "value": "0x0",
        "input": "0x6dbd9f90000000000000000000000000d82f211d0d9be9a73a829a5f1f0e34b02bf2fb36000000000000000000000000e1844c5d63a9543023008d332bd3d2e6f1fe1043000000000000000000000000000000000000000000000000000000000000006000000000000000000000000000000000000000000000000000000000000000010000000000000000000000000000000000000000000000000000000000000020000000000000000000000000000000000000000000000000000000000000759e00000000000000000000000000000000000000000000000000000000000000020000000000000000000000000000000000000000000000000000000000000060000000000000000000000000000000000000000000000000000000000000014000000000000000000000000000000000000000000000000000000000000000200000000000000000000000000000000000000000000000000000000000000014000000000000000000000000000000000000000000000000000000000000000100000000000000000000000000000000000000000000000000000000000000ff000000000000000000000000000000000000000000000000000000000000000000000000000000000000000000000000000000000000000000000000000000c000000000000000000000000000000000000000000000000000000000000001000000000000000000000000000000000000000000000000000000000000000001000000000000000000000000282b3386571f7f794450d5789911a9804fa346b40000000000000000000000000000000000000000000000000000000000000000",
        "nonce": "0x14",
        "chainId": "0x4d454e"
      },
      "additionalContracts": [],
      "isFixedGasLimit": false
    }
  ],
  "receipts": [
    {
      "status": "0x1",
      "cumulativeGasUsed": "0xe18e",
      "logs": [
        {
          "address": "0x6f475642a6e85809b1c36fa62763669b1b48dd5b",
          "topics": [
            "0x4cff966ebee29a156dcb34cf72c1d06231fb1777f6bdf6e8089819232f002b1c"
          ],
          "data": "0x000000000000000000000000d82f211d0d9be9a73a829a5f1f0e34b02bf2fb36000000000000000000000000000000000000000000000000000000000000759e000000000000000000000000c39161c743d0307eb9bcc9fef03eeb9dc4802de7",
          "blockHash": "0x5af9fccd1c186ba229bbd483b28e81ca8c4fa152e4bb7aa6e63d8b52b8307d73",
          "blockNumber": "0xa8c11",
          "blockTimestamp": "0x69375806",
          "transactionHash": "0x97c8d01a4a7bf2255727a1ca9e7b35dddbcf0a5faf9f1940b187ea23df8a9370",
          "transactionIndex": "0x1",
          "logIndex": "0x0",
          "removed": false
        }
      ],
      "logsBloom": "0x00000000000000000000000000000000000200000000000000000000000000000000000000000000000000000000000000000000000000000000000001000000000000000000000000000000000000000140000000000000000000000000000000000000000000000000000000000000000000000000000000000000000000000000000000000000000000000000000000000000000000000000000000000000000000000000000000000000000000000000000000000000000000000000000000000000000000000000000000000000000000000000000000000000000000004040000000000000000000000000000000000000000000000000000000000000",
      "type": "0x2",
      "transactionHash": "0x97c8d01a4a7bf2255727a1ca9e7b35dddbcf0a5faf9f1940b187ea23df8a9370",
      "transactionIndex": "0x1",
      "blockHash": "0x5af9fccd1c186ba229bbd483b28e81ca8c4fa152e4bb7aa6e63d8b52b8307d73",
      "blockNumber": "0xa8c11",
      "gasUsed": "0xe18e",
      "effectiveGasPrice": "0x989680",
      "from": "0x6a225f09e0ebe597f79e86875b3704325d40c84d",
      "to": "0x6f475642a6e85809b1c36fa62763669b1b48dd5b",
      "contractAddress": null,
      "gasUsedForL1": "0x0",
      "l1BlockNumber": "0x16dc583"
    },
    {
      "status": "0x1",
      "cumulativeGasUsed": "0x1dd23",
      "logs": [
        {
          "address": "0x6f475642a6e85809b1c36fa62763669b1b48dd5b",
          "topics": [
            "0xcd6f92f5ac6185a5acfa02c92090746cec64d777269cbcd0ed031e396657a1c2"
          ],
          "data": "0x000000000000000000000000d82f211d0d9be9a73a829a5f1f0e34b02bf2fb36000000000000000000000000000000000000000000000000000000000000759e000000000000000000000000e1844c5d63a9543023008d332bd3d2e6f1fe1043",
          "blockHash": "0x5af9fccd1c186ba229bbd483b28e81ca8c4fa152e4bb7aa6e63d8b52b8307d73",
          "blockNumber": "0xa8c11",
          "blockTimestamp": "0x69375806",
          "transactionHash": "0xeebe62db4137055b12e7593e85f86e0b38956d6458dbeba66e66ced79d7e77c0",
          "transactionIndex": "0x2",
          "logIndex": "0x1",
          "removed": false
        },
        {
          "address": "0x6f475642a6e85809b1c36fa62763669b1b48dd5b",
          "topics": [
            "0x4e0a5bbfa0c11a64effb1ada324b5437a17272e1aed9320398715ef71bb20928"
          ],
          "data": "0x000000000000000000000000d82f211d0d9be9a73a829a5f1f0e34b02bf2fb36000000000000000000000000000000000000000000000000000000000000759e00000000000000000000000000000000000000000000000000000000000000000000000000000000000000000000000000000000000000000000000000000000",
          "blockHash": "0x5af9fccd1c186ba229bbd483b28e81ca8c4fa152e4bb7aa6e63d8b52b8307d73",
          "blockNumber": "0xa8c11",
          "blockTimestamp": "0x69375806",
          "transactionHash": "0xeebe62db4137055b12e7593e85f86e0b38956d6458dbeba66e66ced79d7e77c0",
          "transactionIndex": "0x2",
          "logIndex": "0x2",
          "removed": false
        }
      ],
      "logsBloom": "0x00000000000000000000020800000000000000000000000000000000000000020400000000000000000000000000000000000000000000000000000000000000000000000000000000000000000000000140000000800000000000000000000000000000000000000000000000000000000000000000000000000000000000100000000000000000000000000000000000000000000000000000000000000000000000000000000000000000000000000000000000000000000000000000000000000000000000000000000000000000000000000000000000000000000000004000000000000000000000000000000000000000000000000000000000000000",
      "type": "0x2",
      "transactionHash": "0xeebe62db4137055b12e7593e85f86e0b38956d6458dbeba66e66ced79d7e77c0",
      "transactionIndex": "0x2",
      "blockHash": "0x5af9fccd1c186ba229bbd483b28e81ca8c4fa152e4bb7aa6e63d8b52b8307d73",
      "blockNumber": "0xa8c11",
      "gasUsed": "0xfb95",
      "effectiveGasPrice": "0x989680",
      "from": "0x6a225f09e0ebe597f79e86875b3704325d40c84d",
      "to": "0x6f475642a6e85809b1c36fa62763669b1b48dd5b",
      "contractAddress": null,
      "gasUsedForL1": "0x0",
      "l1BlockNumber": "0x16dc583"
    },
    {
      "status": "0x1",
      "cumulativeGasUsed": "0x1c325",
      "logs": [
        {
          "address": "0xe1844c5d63a9543023008d332bd3d2e6f1fe1043",
          "topics": [
            "0x82118522aa536ac0e96cc5c689407ae42b89d592aa133890a01f1509842f5081"
          ],
          "data": "0x000000000000000000000000d82f211d0d9be9a73a829a5f1f0e34b02bf2fb36000000000000000000000000000000000000000000000000000000000000759e00000000000000000000000000000000000000000000000000000000000000600000000000000000000000000000000000000000000000000000000000000014000000000000000000000000000000000000000000000000000000000000000100000000000000000000000000000000000000000000000000000000000000ff000000000000000000000000000000000000000000000000000000000000000000000000000000000000000000000000000000000000000000000000000000c000000000000000000000000000000000000000000000000000000000000001000000000000000000000000000000000000000000000000000000000000000001000000000000000000000000282b3386571f7f794450d5789911a9804fa346b40000000000000000000000000000000000000000000000000000000000000000",
          "blockHash": "0x4892ae16e8ef30aedd94b68ca20087a02c3a3efe2005fc9d89931b1276268cd1",
          "blockNumber": "0xa8c12",
          "blockTimestamp": "0x69375807",
          "transactionHash": "0x786727d53dbd3ecdd00bbcde56963377e82d136e8130372a775e6fcccd6f8b7f",
          "transactionIndex": "0x1",
          "logIndex": "0x0",
          "removed": false
        }
      ],
      "logsBloom": "0x00000000000000000000000000000000020000000000000000000000000000000000000000000000000000000000000000000000000000000000000000000000000000000000000000000000000000000000000000000000002000000000000000000000000000000000000000000000000000000000000000000000000000000000000000000000000000000000000000000000000000000000000000000000000000000000000000000002000000000000000000000000000000000000000000000000000000000000000000000000000000008000000000000000000000000000000000000002000000000000000000000000000000000000000000000010",
      "type": "0x2",
      "transactionHash": "0x786727d53dbd3ecdd00bbcde56963377e82d136e8130372a775e6fcccd6f8b7f",
      "transactionIndex": "0x1",
      "blockHash": "0x4892ae16e8ef30aedd94b68ca20087a02c3a3efe2005fc9d89931b1276268cd1",
      "blockNumber": "0xa8c12",
      "gasUsed": "0x1c325",
      "effectiveGasPrice": "0x989680",
      "from": "0x6a225f09e0ebe597f79e86875b3704325d40c84d",
      "to": "0x6f475642a6e85809b1c36fa62763669b1b48dd5b",
      "contractAddress": null,
      "gasUsedForL1": "0x0",
      "l1BlockNumber": "0x16dc583"
    }
  ],
  "libraries": [],
  "pending": [],
  "returns": {},
  "timestamp": 1765234695,
  "chain": 5064014,
  "commit": "af49cf04f"
}