{
  "transactions": [
    {
      "hash": "0x3ccbdd2b97939e6970abdb81f4e15d7778fa38339a9cdc8d342911f96b3efacb",
      "transactionType": "CALL",
      "contractName": null,
      "contractAddress": "0xab5c685d69f4ea2ec36e6e356a192adaa2338129",
      "function": "setupPeerForPair(bytes32)",
      "arguments": [
        "0xaae8648f4d50216dff52df54cfa33f6c92618f898dd7a9f0d11e5076e843d783"
      ],
      "transaction": {
        "from": "0xefa0e8aa84a713f6a6d4de8cc761fe86c5957d72",
        "to": "0xab5c685d69f4ea2ec36e6e356a192adaa2338129",
        "gas": "0x1278d",
        "value": "0x0",
        "input": "0xc1f870e7aae8648f4d50216dff52df54cfa33f6c92618f898dd7a9f0d11e5076e843d783",
        "nonce": "0x22",
        "chainId": "0xa4b1"
      },
      "additionalContracts": [],
      "isFixedGasLimit": false
    }
  ],
  "receipts": [
    {
      "status": "0x1",
      "cumulativeGasUsed": "0xe02e",
      "logs": [
        {
          "address": "0x4716338fcf8c0b2d8358dcb9c0e020cc6a25e8ef",
          "topics": [
            "0x238399d427b947898edb290f5ff0f9109849b1c3ba196a42e35f00c50a54b98b"
          ],
          "data": "0x00000000000000000000000000000000000000000000000000000000000075e80000000000000000000000004716338fcf8c0b2d8358dcb9c0e020cc6a25e8ef",
          "blockHash": "0xaaf699decaabb95b9d2e26cc52f2201584631e9408f9a962c9bdc94d0f8f4630",
          "blockNumber": "0x18a2bc9d",
          "blockTimestamp": "0x69493d16",
          "transactionHash": "0x3ccbdd2b97939e6970abdb81f4e15d7778fa38339a9cdc8d342911f96b3efacb",
          "transactionIndex": "0x1",
          "logIndex": "0x0",
          "removed": false
        }
      ],
      "logsBloom": "0x00000000000000000000000000000000000000000000000000000000000000000000000000000000000000000000000000000000000000000800000000000000000000000000000000000000000000000000000000000000000000000000000080000000000000000000000000000000000000000000000000000000000000000000000000000000000000000000000000000000000000000000000000000000000000000000000000000040000000000000000000000000000002000000000040000000000000000000000000000000000000000000000000040000000000000000000000000000000000000000000000000000000000000000000000000000",
      "type": "0x2",
      "transactionHash": "0x3ccbdd2b97939e6970abdb81f4e15d7778fa38339a9cdc8d342911f96b3efacb",
      "transactionIndex": "0x1",
      "blockHash": "0xaaf699decaabb95b9d2e26cc52f2201584631e9408f9a962c9bdc94d0f8f4630",
      "blockNumber": "0x18a2bc9d",
      "gasUsed": "0xe02e",
      "effectiveGasPrice": "0x155cc00",
      "from": "0xefa0e8aa84a713f6a6d4de8cc761fe86c5957d72",
      "to": "0xab5c685d69f4ea2ec36e6e356a192adaa2338129",
      "contractAddress": null,
      "gasUsedForL1": "0x0",
      "l1BlockNumber": "0x16f4085",
      "timeboosted": false
    }
  ],
  "libraries": [],
  "pending": [],
  "returns": {},
  "timestamp": 1766407449,
  "chain": 42161,
  "commit": "43d1dd2a2"
}