{
  "transactions": [
    {
      "hash": "0xa30e68e9f4283c12e09c335c06aeae1a9d69144a093d3e4ce28034f51432365d",
      "transactionType": "CALL",
      "contractName": null,
      "contractAddress": "0x1a44076050125825900e736c501f859c50fe728c",
      "function": "setConfig(address,address,(uint32,uint32,bytes)[])",
      "arguments": [
        "0x0fA078C5fD18148337d2ADCadbE8590D39a49AC6",
        "0x975bcD720be66659e3EB3C0e4F1866a3020E493A",
        "[(30110, 1, 0x00000000000000000000000000000000000000000000000000000000000027100000000000000000000000000000000000000000000000000000000000000000), (30110, 2, 0x00000000000000000000000000000000000000000000000000000000000000200000000000000000000000000000000000000000000000000000000000000014000000000000000000000000000000000000000000000000000000000000000100000000000000000000000000000000000000000000000000000000000000ff000000000000000000000000000000000000000000000000000000000000000000000000000000000000000000000000000000000000000000000000000000c0000000000000000000000000000000000000000000000000000000000000010000000000000000000000000000000000000000000000000000000000000000010000000000000000000000001308151a7ebac14f435d3ad5ff95c34160d539a50000000000000000000000000000000000000000000000000000000000000000)]"
      ],
      "transaction": {
        "from": "0xdb5af497a73620d881561edb508012a5f84e9ba2",
        "to": "0x1a44076050125825900e736c501f859c50fe728c",
        "gas": "0x2e2e9",
        "value": "0x0",
        "input": "0x6dbd9f900000000000000000000000000fa078c5fd18148337d2adcadbe8590d39a49ac6000000000000000000000000975bcd720be66659e3eb3c0e4f1866a3020e493a0000000000000000000000000000000000000000000000000000000000000060000000000000000000000000000000000000000000000000000000000000000200000000000000000000000000000000000000000000000000000000000000400000000000000000000000000000000000000000000000000000000000000100000000000000000000000000000000000000000000000000000000000000759e00000000000000000000000000000000000000000000000000000000000000010000000000000000000000000000000000000000000000000000000000000060000000000000000000000000000000000000000000000000000000000000004000000000000000000000000000000000000000000000000000000000000027100000000000000000000000000000000000000000000000000000000000000000000000000000000000000000000000000000000000000000000000000000759e00000000000000000000000000000000000000000000000000000000000000020000000000000000000000000000000000000000000000000000000000000060000000000000000000000000000000000000000000000000000000000000014000000000000000000000000000000000000000000000000000000000000000200000000000000000000000000000000000000000000000000000000000000014000000000000000000000000000000000000000000000000000000000000000100000000000000000000000000000000000000000000000000000000000000ff000000000000000000000000000000000000000000000000000000000000000000000000000000000000000000000000000000000000000000000000000000c0000000000000000000000000000000000000000000000000000000000000010000000000000000000000000000000000000000000000000000000000000000010000000000000000000000001308151a7ebac14f435d3ad5ff95c34160d539a50000000000000000000000000000000000000000000000000000000000000000",
        "nonce": "0x12ba",
        "chainId": "0xa4b1"
      },
      "additionalContracts": [],
      "isFixedGasLimit": false
    }
  ],
  "receipts": [
    {
      "status": "0x1",
      "cumulativeGasUsed": "0x38d8a",
      "logs": [
        {
          "address": "0x975bcd720be66659e3eb3c0e4f1866a3020e493a",
          "topics": [
            "0x779cb2dd9d2bb1be1737d05435d744facbfb84a2a4912e21379d39beddcdc805"
          ],
          "data": "0x0000000000000000000000000fa078c5fd18148337d2adcadbe8590d39a49ac6000000000000000000000000000000000000000000000000000000000000759e00000000000000000000000000000000000000000000000000000000000027100000000000000000000000000000000000000000000000000000000000000000",
          "blockHash": "0x1c93cc3ca12236b1ee9cd2794f5c52854e094f5d31221234d3bc6ec3df29bbe0",
          "blockNumber": "0x18803899",
          "blockTimestamp": "0x69409e97",
          "transactionHash": "0xa30e68e9f4283c12e09c335c06aeae1a9d69144a093d3e4ce28034f51432365d",
          "transactionIndex": "0x3",
          "logIndex": "0x0",
          "removed": false
        },
        {
          "address": "0x975bcd720be66659e3eb3c0e4f1866a3020e493a",
          "topics": [
            "0x82118522aa536ac0e96cc5c689407ae42b89d592aa133890a01f1509842f5081"
          ],
          "data": "0x0000000000000000000000000fa078c5fd18148337d2adcadbe8590d39a49ac6000000000000000000000000000000000000000000000000000000000000759e00000000000000000000000000000000000000000000000000000000000000600000000000000000000000000000000000000000000000000000000000000014000000000000000000000000000000000000000000000000000000000000000100000000000000000000000000000000000000000000000000000000000000ff000000000000000000000000000000000000000000000000000000000000000000000000000000000000000000000000000000000000000000000000000000c0000000000000000000000000000000000000000000000000000000000000010000000000000000000000000000000000000000000000000000000000000000010000000000000000000000001308151a7ebac14f435d3ad5ff95c34160d539a50000000000000000000000000000000000000000000000000000000000000000",
          "blockHash": "0x1c93cc3ca12236b1ee9cd2794f5c52854e094f5d31221234d3bc6ec3df29bbe0",
          "blockNumber": "0x18803899",
          "blockTimestamp": "0x69409e97",
          "transactionHash": "0xa30e68e9f4283c12e09c335c06aeae1a9d69144a093d3e4ce28034f51432365d",
          "transactionIndex": "0x3",
          "logIndex": "0x1",
          "removed": false
        }
      ],
      "logsBloom": "0x00000000000000000000000000000000000000000000000000000000000000000000000000000000000000000000000000000000000400000000000000000000000000000000000000000040000000000000000000000000002000000000000000000000000800000000000000000000000000000000000000000000000000000000000000000000000000000000000000000000000000000000000000000000000000000000000000000002000000000000000000000000000000000000008200000000000000000000000000000000000000000000000000000000000000000008000000000000000000000000000000000000000000000000000000000010",
      "type": "0x2",
      "transactionHash": "0xa30e68e9f4283c12e09c335c06aeae1a9d69144a093d3e4ce28034f51432365d",
      "transactionIndex": "0x3",
      "blockHash": "0x1c93cc3ca12236b1ee9cd2794f5c52854e094f5d31221234d3bc6ec3df29bbe0",
      "blockNumber": "0x18803899",
      "gasUsed": "0x22f65",
      "effectiveGasPrice": "0x989680",
      "from": "0xdb5af497a73620d881561edb508012a5f84e9ba2",
      "to": "0x1a44076050125825900e736c501f859c50fe728c",
      "contractAddress": null,
      "gasUsedForL1": "0x0",
      "l1BlockNumber": "0x16e8990",
      "timeboosted": false
    }
  ],
  "libraries": [],
  "pending": [],
  "returns": {},
  "timestamp": 1765842584176,
  "chain": 42161,
  "commit": "6bf3a0df2"
}