{
  "transactions": [
    {
      "hash": "0x4674cedce3bc59a9aa06c53f4b8c74234f988b072501d63f71ca96635d9ad84d",
      "transactionType": "CALL",
      "contractName": null,
      "contractAddress": "0xe827ebdc7bf7a89af4d27f1caaccd21ac3cf33dd",
      "function": "setupPeerForPair(bytes32)",
      "arguments": [
        "0xaae8648f4d50216dff52df54cfa33f6c92618f898dd7a9f0d11e5076e843d783"
      ],
      "transaction": {
        "from": "0xefa0e8aa84a713f6a6d4de8cc761fe86c5957d72",
        "to": "0xe827ebdc7bf7a89af4d27f1caaccd21ac3cf33dd",
        "gas": "0x135e8",
        "value": "0x0",
        "input": "0xc1f870e7aae8648f4d50216dff52df54cfa33f6c92618f898dd7a9f0d11e5076e843d783",
        "nonce": "0x1b",
        "chainId": "0x2105"
      },
      "additionalContracts": [],
      "isFixedGasLimit": false
    }
  ],
  "receipts": [
    {
      "status": "0x1",
      "cumulativeGasUsed": "0x17cd414",
      "logs": [
        {
          "address": "0x6696e35ae0533510276056a6795229607ca8f454",
          "topics": [
            "0x238399d427b947898edb290f5ff0f9109849b1c3ba196a42e35f00c50a54b98b"
          ],
          "data": "0x000000000000000000000000000000000000000000000000000000000000759e0000000000000000000000006696e35ae0533510276056a6795229607ca8f454",
          "blockHash": "0x30b40f7a93ade72e39b27473499362b8bb373906de5937bf3124f912e4fbbfab",
          "blockNumber": "0x25daf91",
          "blockTimestamp": "0x6945bc05",
          "transactionHash": "0x4674cedce3bc59a9aa06c53f4b8c74234f988b072501d63f71ca96635d9ad84d",
          "transactionIndex": "0x9d",
          "logIndex": "0x237",
          "removed": false
        }
      ],
      "logsBloom": "0x00000000000000000000000000000000000000000000000000000000000000000000000000000000000000000000000000000000000000000800000000000000000000000000000000000000000000000000000000000000000000000020000000000000000000000000000000000000000000000000000000000000000000000000000000000000000000000000000000000000080000000000000000000000000000000000000000000000000000000000000020000000000002000000000000000000000000000000000000000000000000000000000000040000000000000000000000000000000000000000000000000000000000000000000000000000",
      "type": "0x2",
      "transactionHash": "0x4674cedce3bc59a9aa06c53f4b8c74234f988b072501d63f71ca96635d9ad84d",
      "transactionIndex": "0x9d",
      "blockHash": "0x30b40f7a93ade72e39b27473499362b8bb373906de5937bf3124f912e4fbbfab",
      "blockNumber": "0x25daf91",
      "gasUsed": "0xe05f",
      "effectiveGasPrice": "0xa223c",
      "blobGasUsed": "0x7ef4",
      "from": "0xefa0e8aa84a713f6a6d4de8cc761fe86c5957d72",
      "to": "0xe827ebdc7bf7a89af4d27f1caaccd21ac3cf33dd",
      "contractAddress": null,
      "daFootprintGasScalar": "0x145",
      "l1BaseFeeScalar": "0x8dd",
      "l1BlobBaseFee": "0x1926c7",
      "l1BlobBaseFeeScalar": "0x101c12",
      "l1Fee": "0x119cfaeb",
      "l1GasPrice": "0x1fe929c",
      "l1GasUsed": "0x640"
    }
  ],
  "libraries": [],
  "pending": [],
  "returns": {},
  "timestamp": 1766177797,
  "chain": 8453,
  "commit": "10591c5f5"
}