{
  "transactions": [
    {
      "hash": "0xe3604870cc653f505b2fcbcdb61855ea9b985e919a64a4ec94efbf109b610be2",
      "transactionType": "CALL",
      "contractName": null,
      "contractAddress": "0xab5c685d69f4ea2ec36e6e356a192adaa2338129",
      "function": "setupPeerForPair(bytes32)",
      "arguments": [
        "0xaae8648f4d50216dff52df54cfa33f6c92618f898dd7a9f0d11e5076e843d783"
      ],
      "transaction": {
        "from": "0xefa0e8aa84a713f6a6d4de8cc761fe86c5957d72",
        "to": "0xab5c685d69f4ea2ec36e6e356a192adaa2338129",
        "gas": "0x135e8",
        "value": "0x0",
        "input": "0xc1f870e7aae8648f4d50216dff52df54cfa33f6c92618f898dd7a9f0d11e5076e843d783",
        "nonce": "0x22",
        "chainId": "0x2105"
      },
      "additionalContracts": [],
      "isFixedGasLimit": false
    }
  ],
  "receipts": [
    {
      "status": "0x1",
      "cumulativeGasUsed": "0x2c9724c",
      "logs": [
        {
          "address": "0x4716338fcf8c0b2d8358dcb9c0e020cc6a25e8ef",
          "topics": [
            "0x238399d427b947898edb290f5ff0f9109849b1c3ba196a42e35f00c50a54b98b"
          ],
          "data": "0x000000000000000000000000000000000000000000000000000000000000759e0000000000000000000000004716338fcf8c0b2d8358dcb9c0e020cc6a25e8ef",
          "blockHash": "0x010132db3ed972f27133852cbafbeb28093dce865da1c73845d444df47b5b828",
          "blockNumber": "0x25f7023",
          "blockTimestamp": "0x69493d29",
          "transactionHash": "0xe3604870cc653f505b2fcbcdb61855ea9b985e919a64a4ec94efbf109b610be2",
          "transactionIndex": "0x12f",
          "logIndex": "0x321",
          "removed": false
        }
      ],
      "logsBloom": "0x00000000000000000000000000000000000000000000000000000000000000000000000000000000000000000000000000000000000000000800000000000000000000000000000000000000000000000000000000000000000000000000000080000000000000000000000000000000000000000000000000000000000000000000000000000000000000000000000000000000000000000000000000000000000000000000000000000040000000000000000000000000000002000000000040000000000000000000000000000000000000000000000000040000000000000000000000000000000000000000000000000000000000000000000000000000",
      "type": "0x2",
      "transactionHash": "0xe3604870cc653f505b2fcbcdb61855ea9b985e919a64a4ec94efbf109b610be2",
      "transactionIndex": "0x12f",
      "blockHash": "0x010132db3ed972f27133852cbafbeb28093dce865da1c73845d444df47b5b828",
      "blockNumber": "0x25f7023",
      "gasUsed": "0xe05f",
      "effectiveGasPrice": "0x11159c",
      "blobGasUsed": "0x7ef4",
      "from": "0xefa0e8aa84a713f6a6d4de8cc761fe86c5957d72",
      "to": "0xab5c685d69f4ea2ec36e6e356a192adaa2338129",
      "contractAddress": null,
      "daFootprintGasScalar": "0x145",
      "l1BaseFeeScalar": "0x8dd",
      "l1BlobBaseFee": "0x235472",
      "l1BlobBaseFeeScalar": "0x101c12",
      "l1Fee": "0x11ebe8b04",
      "l1GasPrice": "0x282f5ae",
      "l1GasUsed": "0x640"
    }
  ],
  "libraries": [],
  "pending": [],
  "returns": {},
  "timestamp": 1766407464,
  "chain": 8453,
  "commit": "43d1dd2a2"
}