{
  "transactions": [
    {
      "hash": "0xc1695b1783e6fa48b225b177158ab49cb0c0242a8127f368c8fbc000389629be",
      "transactionType": "CALL",
      "contractName": null,
      "contractAddress": "0xe827ebdc7bf7a89af4d27f1caaccd21ac3cf33dd",
      "function": "setDefaultDVNConfigWithDefaults(uint8,address,address,address,address)",
      "arguments": [
        "1",
        "0xB5320B0B3a13cC860893E2Bd79FCd7e13484Dda2",
        "0xc70AB6f32772f59fBfc23889Caf4Ba3376C84bAf",
        "0x9e059a54699a285714207b43B055483E78FAac25",
        "0x2CCA08ae69E0C44b18a57Ab2A87644234dAebaE4"
      ],
      "transaction": {
        "from": "0xefa0e8aa84a713f6a6d4de8cc761fe86c5957d72",
        "to": "0xe827ebdc7bf7a89af4d27f1caaccd21ac3cf33dd",
        "gas": "0x3020c",
        "value": "0x0",
        "input": "0x4e4e17d90000000000000000000000000000000000000000000000000000000000000001000000000000000000000000b5320b0b3a13cc860893e2bd79fcd7e13484dda2000000000000000000000000c70ab6f32772f59fbfc23889caf4ba3376c84baf0000000000000000000000009e059a54699a285714207b43b055483e78faac250000000000000000000000002cca08ae69e0c44b18a57ab2a87644234daebae4",
        "nonce": "0x17",
        "chainId": "0x2105"
      },
      "additionalContracts": [],
      "isFixedGasLimit": false
    },
    {
      "hash": "0x7f50ff7bf94ac7bb0ff79b5a580730bac3b1b08c3f066c3895147daa16054f4d",
      "transactionType": "CALL",
      "contractName": null,
      "contractAddress": "0xe827ebdc7bf7a89af4d27f1caaccd21ac3cf33dd",
      "function": "setDefaultDVNConfigWithDefaults(uint8,address,address,address,address)",
      "arguments": [
        "0",
        "0x975bcD720be66659e3EB3C0e4F1866a3020E493A",
        "0x7B9E184e07a6EE1aC23eAe0fe8D6Be2f663f05e6",
        "0x2f55C492897526677C5B68fb199ea31E2c126416",
        "0x31CAe3B7fB82d847621859fb1585353c5720660D"
      ],
      "transaction": {
        "from": "0xefa0e8aa84a713f6a6d4de8cc761fe86c5957d72",
        "to": "0xe827ebdc7bf7a89af4d27f1caaccd21ac3cf33dd",
        "gas": "0x301fb",
        "value": "0x0",
        "input": "0x4e4e17d90000000000000000000000000000000000000000000000000000000000000000000000000000000000000000975bcd720be66659e3eb3c0e4f1866a3020e493a0000000000000000000000007b9e184e07a6ee1ac23eae0fe8d6be2f663f05e60000000000000000000000002f55c492897526677c5b68fb199ea31e2c12641600000000000000000000000031cae3b7fb82d847621859fb1585353c5720660d",
        "nonce": "0x18",
        "chainId": "0x2105"
      },
      "additionalContracts": [],
      "isFixedGasLimit": false
    }
  ],
  "receipts": [
    {
      "status": "0x1",
      "cumulativeGasUsed": "0xe28440",
      "logs": [
        {
          "address": "0xe827ebdc7bf7a89af4d27f1caaccd21ac3cf33dd",
          "topics": [
            "0xc30b9745f198bb95847e218fb27956e9571a61127a5e6f142a2a3ec1801c669d",
            "0x0000000000000000000000000000000000000000000000000000000000000001"
          ],
          "data": "0x000000000000000000000000b5320b0b3a13cc860893e2bd79fcd7e13484dda2000000000000000000000000c70ab6f32772f59fbfc23889caf4ba3376c84baf0000000000000000000000009e059a54699a285714207b43b055483e78faac250000000000000000000000002cca08ae69e0c44b18a57ab2a87644234daebae4000000000000000000000000000000000000000000000000000000000000001400000000000000000000000000000000000000000000000000000000000027100000000000000000000000000000000000000000000000000000000000000000",
          "blockHash": "0x85e7af4bcecaebfa94b0972a73bff3c3f5f3082df58965418a6229ff6b8345fc",
          "blockNumber": "0x25da2d3",
          "blockTimestamp": "0x6945a289",
          "transactionHash": "0xc1695b1783e6fa48b225b177158ab49cb0c0242a8127f368c8fbc000389629be",
          "transactionIndex": "0x57",
          "logIndex": "0x176",
          "removed": false
        }
      ],
      "logsBloom": "0x00000000000000000000000080000000000000000000000000000000000000000000000000000000000000000000000000000000000000000000000000040000000000000002000000000000000000000000000000040000000000000000000000000000000000000000000000000000400000000000000000000000000000000000000000000000000000000000000000000000001000000000000000000000000800000000000000000000000000000000000000000000000000000000000000000000000000000000000000000000000000010000000000000000000040000000000000000000000000000000000000000000000000000000000000000000",
      "type": "0x2",
      "transactionHash": "0xc1695b1783e6fa48b225b177158ab49cb0c0242a8127f368c8fbc000389629be",
      "transactionIndex": "0x57",
      "blockHash": "0x85e7af4bcecaebfa94b0972a73bff3c3f5f3082df58965418a6229ff6b8345fc",
      "blockNumber": "0x25da2d3",
      "gasUsed": "0x22d80",
      "effectiveGasPrice": "0x1909d1",
      "blobGasUsed": "0xb58b",
      "from": "0xefa0e8aa84a713f6a6d4de8cc761fe86c5957d72",
      "to": "0xe827ebdc7bf7a89af4d27f1caaccd21ac3cf33dd",
      "contractAddress": null,
      "daFootprintGasScalar": "0x145",
      "l1BaseFeeScalar": "0x8dd",
      "l1BlobBaseFee": "0x1ed935",
      "l1BlobBaseFeeScalar": "0x101c12",
      "l1Fee": "0x261a9777",
      "l1GasPrice": "0x1ff2534",
      "l1GasUsed": "0x8f1"
    },
    {
      "status": "0x1",
      "cumulativeGasUsed": "0xe4b1b4",
      "logs": [
        {
          "address": "0xe827ebdc7bf7a89af4d27f1caaccd21ac3cf33dd",
          "topics": [
            "0xc30b9745f198bb95847e218fb27956e9571a61127a5e6f142a2a3ec1801c669d",
            "0x0000000000000000000000000000000000000000000000000000000000000000"
          ],
          "data": "0x000000000000000000000000975bcd720be66659e3eb3c0e4f1866a3020e493a0000000000000000000000007b9e184e07a6ee1ac23eae0fe8d6be2f663f05e60000000000000000000000002f55c492897526677c5b68fb199ea31e2c12641600000000000000000000000031cae3b7fb82d847621859fb1585353c5720660d000000000000000000000000000000000000000000000000000000000000001400000000000000000000000000000000000000000000000000000000000027100000000000000000000000000000000000000000000000000000000000000000",
          "blockHash": "0x49754e13f4da4a775f6cf01d60f9b4dc3e654b7391e51239d073884945f0290d",
          "blockNumber": "0x25da2d3",
          "blockTimestamp": "0x6945a289",
          "transactionHash": "0x7f50ff7bf94ac7bb0ff79b5a580730bac3b1b08c3f066c3895147daa16054f4d",
          "transactionIndex": "0x58",
          "logIndex": "0x177",
          "removed": false
        }
      ],
      "logsBloom": "0x00000000000000000000000080000000000000000000000000000000000000000000000000000000000000000000000000000000000000000000000000000000000000000002000000000000000000000000000000000000000000000000000000000000020000000000000000000800400000000000000000000000000000000000000000000000000000000000000000000000001000000000000000000000000800000000000000000000000000000000000000000000000000000000000000000000000000000000000000000000000000010000000000000000000020000000000000000000000000000000000000000000000000000000000000000000",
      "type": "0x2",
      "transactionHash": "0x7f50ff7bf94ac7bb0ff79b5a580730bac3b1b08c3f066c3895147daa16054f4d",
      "transactionIndex": "0x58",
      "blockHash": "0x49754e13f4da4a775f6cf01d60f9b4dc3e654b7391e51239d073884945f0290d",
      "blockNumber": "0x25da2d3",
      "gasUsed": "0x22d74",
      "effectiveGasPrice": "0x1909d1",
      "blobGasUsed": "0xaf32",
      "from": "0xefa0e8aa84a713f6a6d4de8cc761fe86c5957d72",
      "to": "0xe827ebdc7bf7a89af4d27f1caaccd21ac3cf33dd",
      "contractAddress": null,
      "daFootprintGasScalar": "0x145",
      "l1BaseFeeScalar": "0x8dd",
      "l1BlobBaseFee": "0x1ed935",
      "l1BlobBaseFeeScalar": "0x101c12",
      "l1Fee": "0x261a9777",
      "l1GasPrice": "0x1ff2534",
      "l1GasUsed": "0x8ae"
    }
  ],
  "libraries": [],
  "pending": [],
  "returns": {},
  "timestamp": 1766171273,
  "chain": 8453,
  "commit": "10591c5f5"
}