{
  "transactions": [
    {
      "hash": "0xfb15dfa3261e2d2a794135a6572130c30721b8a777021bd5ce9d817dc128154b",
      "transactionType": "CALL",
      "contractName": null,
      "contractAddress": "0xd3ccef4741d1c7886321bf732e010455f9c60a1b",
      "function": "setDefaultDVNConfigWithDefaults(uint8,address,address,address,address)",
      "arguments": [
        "1",
        "0xB5320B0B3a13cC860893E2Bd79FCd7e13484Dda2",
        "0x7B9E184e07a6EE1aC23eAe0fe8D6Be2f663f05e6",
        "0x9e059a54699a285714207b43B055483E78FAac25",
        "0x2CCA08ae69E0C44b18a57Ab2A87644234dAebaE4"
      ],
      "transaction": {
        "from": "0xefa0e8aa84a713f6a6d4de8cc761fe86c5957d72",
        "to": "0xd3ccef4741d1c7886321bf732e010455f9c60a1b",
        "gas": "0x3020c",
        "value": "0x0",
        "input": "0x4e4e17d90000000000000000000000000000000000000000000000000000000000000001000000000000000000000000b5320b0b3a13cc860893e2bd79fcd7e13484dda20000000000000000000000007b9e184e07a6ee1ac23eae0fe8d6be2f663f05e60000000000000000000000009e059a54699a285714207b43b055483e78faac250000000000000000000000002cca08ae69e0c44b18a57ab2a87644234daebae4",
        "nonce": "0x14",
        "chainId": "0x2105"
      },
      "additionalContracts": [],
      "isFixedGasLimit": false
    },
    {
      "hash": "0x45e5c9145f9c40defae5d4da7d164bbe16c00d0950333ad38e69cf21a0017f74",
      "transactionType": "CALL",
      "contractName": null,
      "contractAddress": "0xd3ccef4741d1c7886321bf732e010455f9c60a1b",
      "function": "setDefaultDVNConfigWithDefaults(uint8,address,address,address,address)",
      "arguments": [
        "0",
        "0x975bcD720be66659e3EB3C0e4F1866a3020E493A",
        "0xc70AB6f32772f59fBfc23889Caf4Ba3376C84bAf",
        "0x2f55C492897526677C5B68fb199ea31E2c126416",
        "0x31CAe3B7fB82d847621859fb1585353c5720660D"
      ],
      "transaction": {
        "from": "0xefa0e8aa84a713f6a6d4de8cc761fe86c5957d72",
        "to": "0xd3ccef4741d1c7886321bf732e010455f9c60a1b",
        "gas": "0x301fb",
        "value": "0x0",
        "input": "0x4e4e17d90000000000000000000000000000000000000000000000000000000000000000000000000000000000000000975bcd720be66659e3eb3c0e4f1866a3020e493a000000000000000000000000c70ab6f32772f59fbfc23889caf4ba3376c84baf0000000000000000000000002f55c492897526677c5b68fb199ea31e2c12641600000000000000000000000031cae3b7fb82d847621859fb1585353c5720660d",
        "nonce": "0x15",
        "chainId": "0x2105"
      },
      "additionalContracts": [],
      "isFixedGasLimit": false
    }
  ],
  "receipts": [
    {
      "status": "0x1",
      "cumulativeGasUsed": "0x1ef3e95",
      "logs": [
        {
          "address": "0xd3ccef4741d1c7886321bf732e010455f9c60a1b",
          "topics": [
            "0xc30b9745f198bb95847e218fb27956e9571a61127a5e6f142a2a3ec1801c669d",
            "0x0000000000000000000000000000000000000000000000000000000000000001"
          ],
          "data": "0x000000000000000000000000b5320b0b3a13cc860893e2bd79fcd7e13484dda20000000000000000000000007b9e184e07a6ee1ac23eae0fe8d6be2f663f05e60000000000000000000000009e059a54699a285714207b43b055483e78faac250000000000000000000000002cca08ae69e0c44b18a57ab2a87644234daebae4000000000000000000000000000000000000000000000000000000000000001400000000000000000000000000000000000000000000000000000000000027100000000000000000000000000000000000000000000000000000000000000000",
          "blockHash": "0xd3e844dbaa24828a4f5bb0f1d2795cd8f1659caa1aef7a1a05885d426c6cc638",
          "blockNumber": "0x25d9ffc",
          "blockTimestamp": "0x69459cdb",
          "transactionHash": "0xfb15dfa3261e2d2a794135a6572130c30721b8a777021bd5ce9d817dc128154b",
          "transactionIndex": "0x68",
          "logIndex": "0x224",
          "removed": false
        }
      ],
      "logsBloom": "0x00000000000000000000000000000000000000000000000000000000000000000000000000000000000000000000000000000000000000000000000000040020000000000002000000000000000000000000000000040000000000000000000000000000000000000000000000000040400000000000000000000000000000000000000000000000000000000000000000000000000000000020000000000000000000000000000000000000000000000000000000000000000000000000000000000000000000000000000000000000000000010000000000000000000040000000000000000000000000000000000000000000000000000000000000000000",
      "type": "0x2",
      "transactionHash": "0xfb15dfa3261e2d2a794135a6572130c30721b8a777021bd5ce9d817dc128154b",
      "transactionIndex": "0x68",
      "blockHash": "0xd3e844dbaa24828a4f5bb0f1d2795cd8f1659caa1aef7a1a05885d426c6cc638",
      "blockNumber": "0x25d9ffc",
      "gasUsed": "0x22d80",
      "effectiveGasPrice": "0x278cd9",
      "blobGasUsed": "0xb58b",
      "from": "0xefa0e8aa84a713f6a6d4de8cc761fe86c5957d72",
      "to": "0xd3ccef4741d1c7886321bf732e010455f9c60a1b",
      "contractAddress": null,
      "daFootprintGasScalar": "0x145",
      "l1BaseFeeScalar": "0x8dd",
      "l1BlobBaseFee": "0x26a2d6",
      "l1BlobBaseFeeScalar": "0x101c12",
      "l1Fee": "0x2a56c761",
      "l1GasPrice": "0x2942a0c",
      "l1GasUsed": "0x8f1"
    },
    {
      "status": "0x1",
      "cumulativeGasUsed": "0x1f16c09",
      "logs": [
        {
          "address": "0xd3ccef4741d1c7886321bf732e010455f9c60a1b",
          "topics": [
            "0xc30b9745f198bb95847e218fb27956e9571a61127a5e6f142a2a3ec1801c669d",
            "0x0000000000000000000000000000000000000000000000000000000000000000"
          ],
          "data": "0x000000000000000000000000975bcd720be66659e3eb3c0e4f1866a3020e493a000000000000000000000000c70ab6f32772f59fbfc23889caf4ba3376c84baf0000000000000000000000002f55c492897526677c5b68fb199ea31e2c12641600000000000000000000000031cae3b7fb82d847621859fb1585353c5720660d000000000000000000000000000000000000000000000000000000000000001400000000000000000000000000000000000000000000000000000000000027100000000000000000000000000000000000000000000000000000000000000000",
          "blockHash": "0xd3e844dbaa24828a4f5bb0f1d2795cd8f1659caa1aef7a1a05885d426c6cc638",
          "blockNumber": "0x25d9ffc",
          "blockTimestamp": "0x69459cdb",
          "transactionHash": "0x45e5c9145f9c40defae5d4da7d164bbe16c00d0950333ad38e69cf21a0017f74",
          "transactionIndex": "0x69",
          "logIndex": "0x225",
          "removed": false
        }
      ],
      "logsBloom": "0x00000000000000000000000000000000000000000000000000000000000000000000000000000000000000000000000000000000000000000000000000000020000000000002000000000000000000000000000000000000000000000000000000000000020000000000000000000840400000000000000000000000000000000000000000000000000000000000000000000000000000000020000000000000000000000000000000000000000000000000000000000000000000000000000000000000000000000000000000000000000000010000000000000000000020000000000000000000000000000000000000000000000000000000000000000000",
      "type": "0x2",
      "transactionHash": "0x45e5c9145f9c40defae5d4da7d164bbe16c00d0950333ad38e69cf21a0017f74",
      "transactionIndex": "0x69",
      "blockHash": "0xd3e844dbaa24828a4f5bb0f1d2795cd8f1659caa1aef7a1a05885d426c6cc638",
      "blockNumber": "0x25d9ffc",
      "gasUsed": "0x22d74",
      "effectiveGasPrice": "0x278cd9",
      "blobGasUsed": "0xaf32",
      "from": "0xefa0e8aa84a713f6a6d4de8cc761fe86c5957d72",
      "to": "0xd3ccef4741d1c7886321bf732e010455f9c60a1b",
      "contractAddress": null,
      "daFootprintGasScalar": "0x145",
      "l1BaseFeeScalar": "0x8dd",
      "l1BlobBaseFee": "0x26a2d6",
      "l1BlobBaseFeeScalar": "0x101c12",
      "l1Fee": "0x2a56c761",
      "l1GasPrice": "0x2942a0c",
      "l1GasUsed": "0x8ae"
    }
  ],
  "libraries": [],
  "pending": [],
  "returns": {},
  "timestamp": 1766169817,
  "chain": 8453,
  "commit": "5e99841a7"
}