{
  "transactions": [
    {
      "hash": "0xaab88e20b05b9084205297542196c450079e2a9d9a1145605aa423aec6ff2ea1",
      "transactionType": "CALL",
      "contractName": null,
      "contractAddress": "0xc3e9eb3f80ec69aa95ce06b7f288b0c1562b7cfa",
      "function": "setDefaultDVNConfigWithDefaults(uint8,address,address,address,address)",
      "arguments": [
        "1",
        "0xB5320B0B3a13cC860893E2Bd79FCd7e13484Dda2",
        "0x7B9E184e07a6EE1aC23eAe0fe8D6Be2f663f05e6",
        "0x9e059a54699a285714207b43B055483E78FAac25",
        "0x2CCA08ae69E0C44b18a57Ab2A87644234dAebaE4"
      ],
      "transaction": {
        "from": "0xefa0e8aa84a713f6a6d4de8cc761fe86c5957d72",
        "to": "0xc3e9eb3f80ec69aa95ce06b7f288b0c1562b7cfa",
        "gas": "0x3020c",
        "value": "0x0",
        "input": "0x4e4e17d90000000000000000000000000000000000000000000000000000000000000001000000000000000000000000b5320b0b3a13cc860893e2bd79fcd7e13484dda20000000000000000000000007b9e184e07a6ee1ac23eae0fe8d6be2f663f05e60000000000000000000000009e059a54699a285714207b43b055483e78faac250000000000000000000000002cca08ae69e0c44b18a57ab2a87644234daebae4",
        "nonce": "0xe",
        "chainId": "0x2105"
      },
      "additionalContracts": [],
      "isFixedGasLimit": false
    },
    {
      "hash": "0x4797c2e4e67cc4bedcce8715486cce1349491c05ad80ab10dd4642e47b77910f",
      "transactionType": "CALL",
      "contractName": null,
      "contractAddress": "0xc3e9eb3f80ec69aa95ce06b7f288b0c1562b7cfa",
      "function": "setDefaultDVNConfigWithDefaults(uint8,address,address,address,address)",
      "arguments": [
        "0",
        "0x975bcD720be66659e3EB3C0e4F1866a3020E493A",
        "0xc70AB6f32772f59fBfc23889Caf4Ba3376C84bAf",
        "0x2f55C492897526677C5B68fb199ea31E2c126416",
        "0x31CAe3B7fB82d847621859fb1585353c5720660D"
      ],
      "transaction": {
        "from": "0xefa0e8aa84a713f6a6d4de8cc761fe86c5957d72",
        "to": "0xc3e9eb3f80ec69aa95ce06b7f288b0c1562b7cfa",
        "gas": "0x301fb",
        "value": "0x0",
        "input": "0x4e4e17d90000000000000000000000000000000000000000000000000000000000000000000000000000000000000000975bcd720be66659e3eb3c0e4f1866a3020e493a000000000000000000000000c70ab6f32772f59fbfc23889caf4ba3376c84baf0000000000000000000000002f55c492897526677c5b68fb199ea31e2c12641600000000000000000000000031cae3b7fb82d847621859fb1585353c5720660d",
        "nonce": "0xf",
        "chainId": "0x2105"
      },
      "additionalContracts": [],
      "isFixedGasLimit": false
    }
  ],
  "receipts": [
    {
      "status": "0x1",
      "cumulativeGasUsed": "0x1512400",
      "logs": [
        {
          "address": "0xc3e9eb3f80ec69aa95ce06b7f288b0c1562b7cfa",
          "topics": [
            "0xc30b9745f198bb95847e218fb27956e9571a61127a5e6f142a2a3ec1801c669d",
            "0x0000000000000000000000000000000000000000000000000000000000000001"
          ],
          "data": "0x000000000000000000000000b5320b0b3a13cc860893e2bd79fcd7e13484dda20000000000000000000000007b9e184e07a6ee1ac23eae0fe8d6be2f663f05e60000000000000000000000009e059a54699a285714207b43b055483e78faac250000000000000000000000002cca08ae69e0c44b18a57ab2a87644234daebae4000000000000000000000000000000000000000000000000000000000000001400000000000000000000000000000000000000000000000000000000000027100000000000000000000000000000000000000000000000000000000000000000",
          "blockHash": "0x1d14aa974994ef64f07acdd9895927e9435ca8757537a4536058fe8e2bbac765",
          "blockNumber": "0x25d9c65",
          "blockTimestamp": "0x694595ad",
          "transactionHash": "0xaab88e20b05b9084205297542196c450079e2a9d9a1145605aa423aec6ff2ea1",
          "transactionIndex": "0x61",
          "logIndex": "0xf9",
          "removed": false
        }
      ],
      "logsBloom": "0x00000000000000000000000000000000000000000000000000000000000000000000000000000000000000000000000000000000000000000000000000040000000000000002000000000000000000000000000000040000000000000000000000000000000000000000000000000000400000000000000000000000000000000000000000000000000000000000000000004000000000000000000000000000000000000000000000000000000000000000000000000000000004000000000000000000000000000000000000000000000000010000000000000000100040000000000000000000000000000000000000000000000000000000000000000000",
      "type": "0x2",
      "transactionHash": "0xaab88e20b05b9084205297542196c450079e2a9d9a1145605aa423aec6ff2ea1",
      "transactionIndex": "0x61",
      "blockHash": "0x1d14aa974994ef64f07acdd9895927e9435ca8757537a4536058fe8e2bbac765",
      "blockNumber": "0x25d9c65",
      "gasUsed": "0x22d80",
      "effectiveGasPrice": "0x3b396a",
      "blobGasUsed": "0xb58b",
      "from": "0xefa0e8aa84a713f6a6d4de8cc761fe86c5957d72",
      "to": "0xc3e9eb3f80ec69aa95ce06b7f288b0c1562b7cfa",
      "contractAddress": null,
      "daFootprintGasScalar": "0x145",
      "l1BaseFeeScalar": "0x8dd",
      "l1BlobBaseFee": "0x3c9af7",
      "l1BlobBaseFeeScalar": "0x101c12",
      "l1Fee": "0x3eaf2ea5",
      "l1GasPrice": "0x3a44b77",
      "l1GasUsed": "0x8f1"
    },
    {
      "status": "0x1",
      "cumulativeGasUsed": "0x1535174",
      "logs": [
        {
          "address": "0xc3e9eb3f80ec69aa95ce06b7f288b0c1562b7cfa",
          "topics": [
            "0xc30b9745f198bb95847e218fb27956e9571a61127a5e6f142a2a3ec1801c669d",
            "0x0000000000000000000000000000000000000000000000000000000000000000"
          ],
          "data": "0x000000000000000000000000975bcd720be66659e3eb3c0e4f1866a3020e493a000000000000000000000000c70ab6f32772f59fbfc23889caf4ba3376c84baf0000000000000000000000002f55c492897526677c5b68fb199ea31e2c12641600000000000000000000000031cae3b7fb82d847621859fb1585353c5720660d000000000000000000000000000000000000000000000000000000000000001400000000000000000000000000000000000000000000000000000000000027100000000000000000000000000000000000000000000000000000000000000000",
          "blockHash": "0x1d14aa974994ef64f07acdd9895927e9435ca8757537a4536058fe8e2bbac765",
          "blockNumber": "0x25d9c65",
          "blockTimestamp": "0x694595ad",
          "transactionHash": "0x4797c2e4e67cc4bedcce8715486cce1349491c05ad80ab10dd4642e47b77910f",
          "transactionIndex": "0x62",
          "logIndex": "0xfa",
          "removed": false
        }
      ],
      "logsBloom": "0x00000000000000000000000000000000000000000000000000000000000000000000000000000000000000000000000000000000000000000000000000000000000000000002000000000000000000000000000000000000000000000000000000000000020000000000000000000800400000000000000000000000000000000000000000000000000000000000000000004000000000000000000000000000000000000000000000000000000000000000000000000000000004000000000000000000000000000000000000000000000000010000000000000000100020000000000000000000000000000000000000000000000000000000000000000000",
      "type": "0x2",
      "transactionHash": "0x4797c2e4e67cc4bedcce8715486cce1349491c05ad80ab10dd4642e47b77910f",
      "transactionIndex": "0x62",
      "blockHash": "0x1d14aa974994ef64f07acdd9895927e9435ca8757537a4536058fe8e2bbac765",
      "blockNumber": "0x25d9c65",
      "gasUsed": "0x22d74",
      "effectiveGasPrice": "0x3b396a",
      "blobGasUsed": "0xaf32",
      "from": "0xefa0e8aa84a713f6a6d4de8cc761fe86c5957d72",
      "to": "0xc3e9eb3f80ec69aa95ce06b7f288b0c1562b7cfa",
      "contractAddress": null,
      "daFootprintGasScalar": "0x145",
      "l1BaseFeeScalar": "0x8dd",
      "l1BlobBaseFee": "0x3c9af7",
      "l1BlobBaseFeeScalar": "0x101c12",
      "l1Fee": "0x3eaf2ea5",
      "l1GasPrice": "0x3a44b77",
      "l1GasUsed": "0x8ae"
    }
  ],
  "libraries": [],
  "pending": [],
  "returns": {},
  "timestamp": 1766167980,
  "chain": 8453,
  "commit": "5e99841a7"
}