{
  "transactions": [
    {
      "hash": "0x0eb3f28a9f67a8fb39e259e770cc3b0039a6754c1bb37046f6e8624e9d662c0e",
      "transactionType": "CALL",
      "contractName": null,
      "contractAddress": "0x617adea1dc03444481d73fdcb15644a191f74944",
      "function": "setConfig((uint256,uint32,uint32,address,uint16,uint128,uint32))",
      "arguments": [
        "(10, 30109, 30109, 0x4D97DCd97eC945f40cF65F87097ACe5EA0476045, 15, 200000, 32)"
      ],
      "transaction": {
        "from": "0xdb5af497a73620d881561edb508012a5f84e9ba2",
        "to": "0x617adea1dc03444481d73fdcb15644a191f74944",
        "gas": "0xbd94",
        "value": "0x0",
        "input": "0x5e0fbc9e000000000000000000000000000000000000000000000000000000000000000a000000000000000000000000000000000000000000000000000000000000759d000000000000000000000000000000000000000000000000000000000000759d0000000000000000000000004d97dcd97ec945f40cf65f87097ace5ea0476045000000000000000000000000000000000000000000000000000000000000000f0000000000000000000000000000000000000000000000000000000000030d400000000000000000000000000000000000000000000000000000000000000020",
        "nonce": "0x12ae",
        "chainId": "0xa4b1"
      },
      "additionalContracts": [],
      "isFixedGasLimit": false
    },
    {
      "hash": "0x9dde17a60eece4eec4c5b9f619a2e9e550067920695e0f905f564da078c66812",
      "transactionType": "CALL",
      "contractName": null,
      "contractAddress": "0x617adea1dc03444481d73fdcb15644a191f74944",
      "function": "setPeer(uint32,bytes32)",
      "arguments": [
        "30109",
        "0x000000000000000000000000617adea1dc03444481d73fdcb15644a191f74944"
      ],
      "transaction": {
        "from": "0xdb5af497a73620d881561edb508012a5f84e9ba2",
        "to": "0x617adea1dc03444481d73fdcb15644a191f74944",
        "gas": "0x8ede",
        "value": "0x0",
        "input": "0x3400288b000000000000000000000000000000000000000000000000000000000000759d000000000000000000000000617adea1dc03444481d73fdcb15644a191f74944",
        "nonce": "0x12af",
        "chainId": "0xa4b1"
      },
      "additionalContracts": [],
      "isFixedGasLimit": false
    },
    {
      "hash": "0x8766b1e90fe853fbd464978ac546405b7901be07353f3b63e13fbc5833e99b7d",
      "transactionType": "CALL",
      "contractName": null,
      "contractAddress": "0x617adea1dc03444481d73fdcb15644a191f74944",
      "function": "setReadChannel(uint32,bool)",
      "arguments": [
        "30109",
        "true"
      ],
      "transaction": {
        "from": "0xdb5af497a73620d881561edb508012a5f84e9ba2",
        "to": "0x617adea1dc03444481d73fdcb15644a191f74944",
        "gas": "0x8df6",
        "value": "0x0",
        "input": "0xf0a9e481000000000000000000000000000000000000000000000000000000000000759d0000000000000000000000000000000000000000000000000000000000000001",
        "nonce": "0x12b0",
        "chainId": "0xa4b1"
      },
      "additionalContracts": [],
      "isFixedGasLimit": false
    }
  ],
  "receipts": [
    {
      "status": "0x1",
      "cumulativeGasUsed": "0x12059",
      "logs": [
        {
          "address": "0x617adea1dc03444481d73fdcb15644a191f74944",
          "topics": [
            "0xfa21e9d333be12fbe5fe4962de122dc63bc49a5304dd4f293ac7694d5a3374a6"
          ],
          "data": "0x000000000000000000000000000000000000000000000000000000000000759d000000000000000000000000000000000000000000000000000000000000759d0000000000000000000000004d97dcd97ec945f40cf65f87097ace5ea0476045000000000000000000000000000000000000000000000000000000000000000f0000000000000000000000000000000000000000000000000000000000030d400000000000000000000000000000000000000000000000000000000000000020000000000000000000000000000000000000000000000000000000000000000a",
          "blockHash": "0x8158e1dc821df67a7bdea5b6eee2c7cc2589f83f2da7b366dab4d90ad48402be",
          "blockNumber": "0x18802d66",
          "blockTimestamp": "0x69409bcb",
          "transactionHash": "0x0eb3f28a9f67a8fb39e259e770cc3b0039a6754c1bb37046f6e8624e9d662c0e",
          "transactionIndex": "0x2",
          "logIndex": "0x0",
          "removed": false
        }
      ],
      "logsBloom": "0x00000000000000000000000000000000000000000000000000000000000000000000000000000000000000000000000000000000000000000000000000000000002000000000000000000000000000000000000000000000000000004000000000000000020000000000000000000000000000000000000000000000000000000000000000000000000000000000000000000000000000000000000000000000000000000000000000000000000000000000000000000000000000000000000000000000008000000000000000000000000000000000000000000000000000000000000000000001000000000000000000000000000000000000000000040000",
      "type": "0x2",
      "transactionHash": "0x0eb3f28a9f67a8fb39e259e770cc3b0039a6754c1bb37046f6e8624e9d662c0e",
      "transactionIndex": "0x2",
      "blockHash": "0x8158e1dc821df67a7bdea5b6eee2c7cc2589f83f2da7b366dab4d90ad48402be",
      "blockNumber": "0x18802d66",
      "gasUsed": "0x9069",
      "effectiveGasPrice": "0x989680",
      "from": "0xdb5af497a73620d881561edb508012a5f84e9ba2",
      "to": "0x617adea1dc03444481d73fdcb15644a191f74944",
      "contractAddress": null,
      "gasUsedForL1": "0x0",
      "l1BlockNumber": "0x16e8954",
      "timeboosted": false
    },
    {
      "status": "0x1",
      "cumulativeGasUsed": "0xfc7c",
      "logs": [
        {
          "address": "0x617adea1dc03444481d73fdcb15644a191f74944",
          "topics": [
            "0x238399d427b947898edb290f5ff0f9109849b1c3ba196a42e35f00c50a54b98b"
          ],
          "data": "0x000000000000000000000000000000000000000000000000000000000000759d000000000000000000000000617adea1dc03444481d73fdcb15644a191f74944",
          "blockHash": "0x24a12fe82edaecdeb9c4e7e896bb94d86af398abfc44241965e301c47e678f76",
          "blockNumber": "0x18802d71",
          "blockTimestamp": "0x69409bcd",
          "transactionHash": "0x9dde17a60eece4eec4c5b9f619a2e9e550067920695e0f905f564da078c66812",
          "transactionIndex": "0x2",
          "logIndex": "0x0",
          "removed": false
        }
      ],
      "logsBloom": "0x00000000000000000000000000000000000000000000000000000000000000000000000000000000000000000000000000000000000000000800000000000000000000000000000000000000000000000000000000000000000000004000000000000000000000000000000000000000000000000000000000000000000000000000000000000000000000000000000000000000000000000000000000000000000000000000000000000000000000000000000000000000000002000000000000000000008000000000000000000000000000000000000000040000000000000000000000000000000000000000000000000000000000000000000000040000",
      "type": "0x2",
      "transactionHash": "0x9dde17a60eece4eec4c5b9f619a2e9e550067920695e0f905f564da078c66812",
      "transactionIndex": "0x2",
      "blockHash": "0x24a12fe82edaecdeb9c4e7e896bb94d86af398abfc44241965e301c47e678f76",
      "blockNumber": "0x18802d71",
      "gasUsed": "0x6c8c",
      "effectiveGasPrice": "0x989680",
      "from": "0xdb5af497a73620d881561edb508012a5f84e9ba2",
      "to": "0x617adea1dc03444481d73fdcb15644a191f74944",
      "contractAddress": null,
      "gasUsedForL1": "0x0",
      "l1BlockNumber": "0x16e8954",
      "timeboosted": false
    },
    {
      "status": "0x1",
      "cumulativeGasUsed": "0x6bdb",
      "logs": [
        {
          "address": "0x617adea1dc03444481d73fdcb15644a191f74944",
          "topics": [
            "0x238399d427b947898edb290f5ff0f9109849b1c3ba196a42e35f00c50a54b98b"
          ],
          "data": "0x000000000000000000000000000000000000000000000000000000000000759d000000000000000000000000617adea1dc03444481d73fdcb15644a191f74944",
          "blockHash": "0xac63fa5ae221489410c512488546ddaff61d0181ae9b7ee95abc19d142715758",
          "blockNumber": "0x18802d7c",
          "blockTimestamp": "0x69409bd0",
          "transactionHash": "0x8766b1e90fe853fbd464978ac546405b7901be07353f3b63e13fbc5833e99b7d",
          "transactionIndex": "0x1",
          "logIndex": "0x0",
          "removed": false
        }
      ],
      "logsBloom": "0x00000000000000000000000000000000000000000000000000000000000000000000000000000000000000000000000000000000000000000800000000000000000000000000000000000000000000000000000000000000000000004000000000000000000000000000000000000000000000000000000000000000000000000000000000000000000000000000000000000000000000000000000000000000000000000000000000000000000000000000000000000000000002000000000000000000008000000000000000000000000000000000000000040000000000000000000000000000000000000000000000000000000000000000000000040000",
      "type": "0x2",
      "transactionHash": "0x8766b1e90fe853fbd464978ac546405b7901be07353f3b63e13fbc5833e99b7d",
      "transactionIndex": "0x1",
      "blockHash": "0xac63fa5ae221489410c512488546ddaff61d0181ae9b7ee95abc19d142715758",
      "blockNumber": "0x18802d7c",
      "gasUsed": "0x6bdb",
      "effectiveGasPrice": "0x989680",
      "from": "0xdb5af497a73620d881561edb508012a5f84e9ba2",
      "to": "0x617adea1dc03444481d73fdcb15644a191f74944",
      "contractAddress": null,
      "gasUsedForL1": "0x0",
      "l1BlockNumber": "0x16e8956",
      "timeboosted": false
    }
  ],
  "libraries": [],
  "pending": [],
  "returns": {},
  "timestamp": 1765841873603,
  "chain": 42161,
  "commit": "6bf3a0df2"
}