{
  "transactions": [
    {
      "hash": "0x9cf171ba403b31a5d8beda37c3c167b2d7b717a8e3b70645acd4bd49dc5cb159",
      "transactionType": "CALL",
      "contractName": null,
      "contractAddress": "0x617adea1dc03444481d73fdcb15644a191f74944",
      "function": "setPeer(uint32,bytes32)",
      "arguments": [
        "30110",
        "0x000000000000000000000000617adea1dc03444481d73fdcb15644a191f74944"
      ],
      "transaction": {
        "from": "0xdb5af497a73620d881561edb508012a5f84e9ba2",
        "to": "0x617adea1dc03444481d73fdcb15644a191f74944",
        "gas": "0xf41e",
        "value": "0x0",
        "input": "0x3400288b000000000000000000000000000000000000000000000000000000000000759e000000000000000000000000617adea1dc03444481d73fdcb15644a191f74944",
        "nonce": "0x129d",
        "chainId": "0xa4b1"
      },
      "additionalContracts": [],
      "isFixedGasLimit": false
    },
    {
      "hash": "0xcb315c4b80148c49a437faa7c97d647c155a18269a2b468a9553d1e51c57fbc1",
      "transactionType": "CALL",
      "contractName": null,
      "contractAddress": "0x617adea1dc03444481d73fdcb15644a191f74944",
      "function": "setReadChannel(uint32,bool)",
      "arguments": [
        "30110",
        "true"
      ],
      "transaction": {
        "from": "0xdb5af497a73620d881561edb508012a5f84e9ba2",
        "to": "0x617adea1dc03444481d73fdcb15644a191f74944",
        "gas": "0xf338",
        "value": "0x0",
        "input": "0xf0a9e481000000000000000000000000000000000000000000000000000000000000759e0000000000000000000000000000000000000000000000000000000000000001",
        "nonce": "0x129e",
        "chainId": "0xa4b1"
      },
      "additionalContracts": [],
      "isFixedGasLimit": false
    }
  ],
  "receipts": [
    {
      "status": "0x1",
      "cumulativeGasUsed": "0x1221a5",
      "logs": [
        {
          "address": "0x617adea1dc03444481d73fdcb15644a191f74944",
          "topics": [
            "0x238399d427b947898edb290f5ff0f9109849b1c3ba196a42e35f00c50a54b98b"
          ],
          "data": "0x000000000000000000000000000000000000000000000000000000000000759e000000000000000000000000617adea1dc03444481d73fdcb15644a191f74944",
          "blockHash": "0xafd05b0597b1ccd6982c28e223825db38617e821e083743b3e5526647793987a",
          "blockNumber": "0x187fd5c8",
          "blockTimestamp": "0x694085e8",
          "transactionHash": "0x9cf171ba403b31a5d8beda37c3c167b2d7b717a8e3b70645acd4bd49dc5cb159",
          "transactionIndex": "0x6",
          "logIndex": "0x3",
          "removed": false
        }
      ],
      "logsBloom": "0x00000000000000000000000000000000000000000000000000000000000000000000000000000000000000000000000000000000000000000800000000000000000000000000000000000000000000000000000000000000000000004000000000000000000000000000000000000000000000000000000000000000000000000000000000000000000000000000000000000000000000000000000000000000000000000000000000000000000000000000000000000000000002000000000000000000008000000000000000000000000000000000000000040000000000000000000000000000000000000000000000000000000000000000000000040000",
      "type": "0x2",
      "transactionHash": "0x9cf171ba403b31a5d8beda37c3c167b2d7b717a8e3b70645acd4bd49dc5cb159",
      "transactionIndex": "0x6",
      "blockHash": "0xafd05b0597b1ccd6982c28e223825db38617e821e083743b3e5526647793987a",
      "blockNumber": "0x187fd5c8",
      "gasUsed": "0xba48",
      "effectiveGasPrice": "0x989680",
      "from": "0xdb5af497a73620d881561edb508012a5f84e9ba2",
      "to": "0x617adea1dc03444481d73fdcb15644a191f74944",
      "contractAddress": null,
      "gasUsedForL1": "0x0",
      "l1BlockNumber": "0x16e8782",
      "timeboosted": false
    },
    {
      "status": "0x1",
      "cumulativeGasUsed": "0x46afd",
      "logs": [
        {
          "address": "0x617adea1dc03444481d73fdcb15644a191f74944",
          "topics": [
            "0x238399d427b947898edb290f5ff0f9109849b1c3ba196a42e35f00c50a54b98b"
          ],
          "data": "0x000000000000000000000000000000000000000000000000000000000000759e000000000000000000000000617adea1dc03444481d73fdcb15644a191f74944",
          "blockHash": "0x1abb8519e58e01a4eb88f91d3e645db550572f1ac972bd1867b7fc9415304c96",
          "blockNumber": "0x187fd5d2",
          "blockTimestamp": "0x694085ea",
          "transactionHash": "0xcb315c4b80148c49a437faa7c97d647c155a18269a2b468a9553d1e51c57fbc1",
          "transactionIndex": "0x4",
          "logIndex": "0x3",
          "removed": false
        }
      ],
      "logsBloom": "0x00000000000000000000000000000000000000000000000000000000000000000000000000000000000000000000000000000000000000000800000000000000000000000000000000000000000000000000000000000000000000004000000000000000000000000000000000000000000000000000000000000000000000000000000000000000000000000000000000000000000000000000000000000000000000000000000000000000000000000000000000000000000002000000000000000000008000000000000000000000000000000000000000040000000000000000000000000000000000000000000000000000000000000000000000040000",
      "type": "0x2",
      "transactionHash": "0xcb315c4b80148c49a437faa7c97d647c155a18269a2b468a9553d1e51c57fbc1",
      "transactionIndex": "0x4",
      "blockHash": "0x1abb8519e58e01a4eb88f91d3e645db550572f1ac972bd1867b7fc9415304c96",
      "blockNumber": "0x187fd5d2",
      "gasUsed": "0x6bdb",
      "effectiveGasPrice": "0x989680",
      "from": "0xdb5af497a73620d881561edb508012a5f84e9ba2",
      "to": "0x617adea1dc03444481d73fdcb15644a191f74944",
      "contractAddress": null,
      "gasUsedForL1": "0x0",
      "l1BlockNumber": "0x16e8782",
      "timeboosted": false
    }
  ],
  "libraries": [],
  "pending": [],
  "returns": {},
  "timestamp": 1765836268263,
  "chain": 42161,
  "commit": "6bf3a0df2"
}