{
  "transactions": [
    {
      "hash": "0xe56b232d8c2c84898beb0966bcdcef3573a58ea3b294c91497a1068b5857440b",
      "transactionType": "CALL",
      "contractName": null,
      "contractAddress": "0x617adea1dc03444481d73fdcb15644a191f74944",
      "function": "setConfig((uint256,uint32,uint32,address,uint16,uint128,uint32))",
      "arguments": [
        "(10, 30109, 30109, 0x4D97DCd97eC945f40cF65F87097ACe5EA0476045, 15, 200000, 32)"
      ],
      "transaction": {
        "from": "0xdb5af497a73620d881561edb508012a5f84e9ba2",
        "to": "0x617adea1dc03444481d73fdcb15644a191f74944",
        "gas": "0xcbd4",
        "value": "0x0",
        "input": "0x5e0fbc9e000000000000000000000000000000000000000000000000000000000000000a000000000000000000000000000000000000000000000000000000000000759d000000000000000000000000000000000000000000000000000000000000759d0000000000000000000000004d97dcd97ec945f40cf65f87097ace5ea0476045000000000000000000000000000000000000000000000000000000000000000f0000000000000000000000000000000000000000000000000000000000030d400000000000000000000000000000000000000000000000000000000000000020",
        "nonce": "0x129f",
        "chainId": "0xa4b1"
      },
      "additionalContracts": [],
      "isFixedGasLimit": false
    },
    {
      "hash": "0x3736293cdade5196c08a030599d96feccfe618b22acfb37130c6ab14e99fff9c",
      "transactionType": "CALL",
      "contractName": null,
      "contractAddress": "0x617adea1dc03444481d73fdcb15644a191f74944",
      "function": "setPeer(uint32,bytes32)",
      "arguments": [
        "30109",
        "0x000000000000000000000000617adea1dc03444481d73fdcb15644a191f74944"
      ],
      "transaction": {
        "from": "0xdb5af497a73620d881561edb508012a5f84e9ba2",
        "to": "0x617adea1dc03444481d73fdcb15644a191f74944",
        "gas": "0xf41e",
        "value": "0x0",
        "input": "0x3400288b000000000000000000000000000000000000000000000000000000000000759d000000000000000000000000617adea1dc03444481d73fdcb15644a191f74944",
        "nonce": "0x12a0",
        "chainId": "0xa4b1"
      },
      "additionalContracts": [],
      "isFixedGasLimit": false
    },
    {
      "hash": "0xbc47479241a42f6e7e9ff6522250a1732fd1f7576dc7549021e1695ca65ef7aa",
      "transactionType": "CALL",
      "contractName": null,
      "contractAddress": "0x617adea1dc03444481d73fdcb15644a191f74944",
      "function": "setReadChannel(uint32,bool)",
      "arguments": [
        "30109",
        "true"
      ],
      "transaction": {
        "from": "0xdb5af497a73620d881561edb508012a5f84e9ba2",
        "to": "0x617adea1dc03444481d73fdcb15644a191f74944",
        "gas": "0xf338",
        "value": "0x0",
        "input": "0xf0a9e481000000000000000000000000000000000000000000000000000000000000759d0000000000000000000000000000000000000000000000000000000000000001",
        "nonce": "0x12a1",
        "chainId": "0xa4b1"
      },
      "additionalContracts": [],
      "isFixedGasLimit": false
    }
  ],
  "receipts": [
    {
      "status": "0x1",
      "cumulativeGasUsed": "0x81de0",
      "logs": [
        {
          "address": "0x617adea1dc03444481d73fdcb15644a191f74944",
          "topics": [
            "0xfa21e9d333be12fbe5fe4962de122dc63bc49a5304dd4f293ac7694d5a3374a6"
          ],
          "data": "0x000000000000000000000000000000000000000000000000000000000000759d000000000000000000000000000000000000000000000000000000000000759d0000000000000000000000004d97dcd97ec945f40cf65f87097ace5ea0476045000000000000000000000000000000000000000000000000000000000000000f0000000000000000000000000000000000000000000000000000000000030d400000000000000000000000000000000000000000000000000000000000000020000000000000000000000000000000000000000000000000000000000000000a",
          "blockHash": "0x9392ce1f038cff84b442b1273147a1a190d7d6f1f148d9b812f3b0485ff0c240",
          "blockNumber": "0x187fd6dd",
          "blockTimestamp": "0x6940862d",
          "transactionHash": "0xe56b232d8c2c84898beb0966bcdcef3573a58ea3b294c91497a1068b5857440b",
          "transactionIndex": "0x9",
          "logIndex": "0x6",
          "removed": false
        }
      ],
      "logsBloom": "0x00000000000000000000000000000000000000000000000000000000000000000000000000000000000000000000000000000000000000000000000000000000002000000000000000000000000000000000000000000000000000004000000000000000020000000000000000000000000000000000000000000000000000000000000000000000000000000000000000000000000000000000000000000000000000000000000000000000000000000000000000000000000000000000000000000000008000000000000000000000000000000000000000000000000000000000000000000001000000000000000000000000000000000000000000040000",
      "type": "0x2",
      "transactionHash": "0xe56b232d8c2c84898beb0966bcdcef3573a58ea3b294c91497a1068b5857440b",
      "transactionIndex": "0x9",
      "blockHash": "0x9392ce1f038cff84b442b1273147a1a190d7d6f1f148d9b812f3b0485ff0c240",
      "blockNumber": "0x187fd6dd",
      "gasUsed": "0x9b59",
      "effectiveGasPrice": "0x989680",
      "from": "0xdb5af497a73620d881561edb508012a5f84e9ba2",
      "to": "0x617adea1dc03444481d73fdcb15644a191f74944",
      "contractAddress": null,
      "gasUsedForL1": "0x0",
      "l1BlockNumber": "0x16e8787",
      "timeboosted": false
    },
    {
      "status": "0x1",
      "cumulativeGasUsed": "0x2a430",
      "logs": [
        {
          "address": "0x617adea1dc03444481d73fdcb15644a191f74944",
          "topics": [
            "0x238399d427b947898edb290f5ff0f9109849b1c3ba196a42e35f00c50a54b98b"
          ],
          "data": "0x000000000000000000000000000000000000000000000000000000000000759d000000000000000000000000617adea1dc03444481d73fdcb15644a191f74944",
          "blockHash": "0x44ecfbcfe78b02f669a3c3ac002360450dd8414fb611d16a5d06c778a7e7f9c2",
          "blockNumber": "0x187fd6e7",
          "blockTimestamp": "0x6940862f",
          "transactionHash": "0x3736293cdade5196c08a030599d96feccfe618b22acfb37130c6ab14e99fff9c",
          "transactionIndex": "0x4",
          "logIndex": "0x0",
          "removed": false
        }
      ],
      "logsBloom": "0x00000000000000000000000000000000000000000000000000000000000000000000000000000000000000000000000000000000000000000800000000000000000000000000000000000000000000000000000000000000000000004000000000000000000000000000000000000000000000000000000000000000000000000000000000000000000000000000000000000000000000000000000000000000000000000000000000000000000000000000000000000000000002000000000000000000008000000000000000000000000000000000000000040000000000000000000000000000000000000000000000000000000000000000000000040000",
      "type": "0x2",
      "transactionHash": "0x3736293cdade5196c08a030599d96feccfe618b22acfb37130c6ab14e99fff9c",
      "transactionIndex": "0x4",
      "blockHash": "0x44ecfbcfe78b02f669a3c3ac002360450dd8414fb611d16a5d06c778a7e7f9c2",
      "blockNumber": "0x187fd6e7",
      "gasUsed": "0xba48",
      "effectiveGasPrice": "0x989680",
      "from": "0xdb5af497a73620d881561edb508012a5f84e9ba2",
      "to": "0x617adea1dc03444481d73fdcb15644a191f74944",
      "contractAddress": null,
      "gasUsedForL1": "0x0",
      "l1BlockNumber": "0x16e8788",
      "timeboosted": false
    },
    {
      "status": "0x1",
      "cumulativeGasUsed": "0x3b7e1",
      "logs": [
        {
          "address": "0x617adea1dc03444481d73fdcb15644a191f74944",
          "topics": [
            "0x238399d427b947898edb290f5ff0f9109849b1c3ba196a42e35f00c50a54b98b"
          ],
          "data": "0x000000000000000000000000000000000000000000000000000000000000759d000000000000000000000000617adea1dc03444481d73fdcb15644a191f74944",
          "blockHash": "0x2924d206c5fe4d37aeb9941450fe38553b2a6d7fdc644e60cc90fbf4569e501a",
          "blockNumber": "0x187fd6f0",
          "blockTimestamp": "0x69408632",
          "transactionHash": "0xbc47479241a42f6e7e9ff6522250a1732fd1f7576dc7549021e1695ca65ef7aa",
          "transactionIndex": "0x5",
          "logIndex": "0x2",
          "removed": false
        }
      ],
      "logsBloom": "0x00000000000000000000000000000000000000000000000000000000000000000000000000000000000000000000000000000000000000000800000000000000000000000000000000000000000000000000000000000000000000004000000000000000000000000000000000000000000000000000000000000000000000000000000000000000000000000000000000000000000000000000000000000000000000000000000000000000000000000000000000000000000002000000000000000000008000000000000000000000000000000000000000040000000000000000000000000000000000000000000000000000000000000000000000040000",
      "type": "0x2",
      "transactionHash": "0xbc47479241a42f6e7e9ff6522250a1732fd1f7576dc7549021e1695ca65ef7aa",
      "transactionIndex": "0x5",
      "blockHash": "0x2924d206c5fe4d37aeb9941450fe38553b2a6d7fdc644e60cc90fbf4569e501a",
      "blockNumber": "0x187fd6f0",
      "gasUsed": "0x6bdb",
      "effectiveGasPrice": "0x989680",
      "from": "0xdb5af497a73620d881561edb508012a5f84e9ba2",
      "to": "0x617adea1dc03444481d73fdcb15644a191f74944",
      "contractAddress": null,
      "gasUsedForL1": "0x0",
      "l1BlockNumber": "0x16e8788",
      "timeboosted": false
    }
  ],
  "libraries": [],
  "pending": [],
  "returns": {},
  "timestamp": 1765836339691,
  "chain": 42161,
  "commit": "6bf3a0df2"
}