{
  "transactions": [
    {
      "hash": "0x611245cdacd5b28b6a4d153044e9d4b02a5750518601a842b43489fb2216afaa",
      "transactionType": "CALL",
      "contractName": null,
      "contractAddress": "0x0fa078c5fd18148337d2adcadbe8590d39a49ac6",
      "function": "setConfig((uint256,uint32,uint32,address,uint16,uint128,uint32))",
      "arguments": [
        "(10, 30110, 30109, 0x4D97DCd97eC945f40cF65F87097ACe5EA0476045, 15, 200000, 32)"
      ],
      "transaction": {
        "from": "0xdb5af497a73620d881561edb508012a5f84e9ba2",
        "to": "0x0fa078c5fd18148337d2adcadbe8590d39a49ac6",
        "gas": "0xbd94",
        "value": "0x0",
        "input": "0x5e0fbc9e000000000000000000000000000000000000000000000000000000000000000a000000000000000000000000000000000000000000000000000000000000759e000000000000000000000000000000000000000000000000000000000000759d0000000000000000000000004d97dcd97ec945f40cf65f87097ace5ea0476045000000000000000000000000000000000000000000000000000000000000000f0000000000000000000000000000000000000000000000000000000000030d400000000000000000000000000000000000000000000000000000000000000020",
        "nonce": "0x12b7",
        "chainId": "0xa4b1"
      },
      "additionalContracts": [],
      "isFixedGasLimit": false
    },
    {
      "hash": "0x42bcee2f4f5a9228a72df2eb1de50125dc4c7c77f679fcb0bd2396ef45b53990",
      "transactionType": "CALL",
      "contractName": null,
      "contractAddress": "0x0fa078c5fd18148337d2adcadbe8590d39a49ac6",
      "function": "setPeer(uint32,bytes32)",
      "arguments": [
        "30110",
        "0x0000000000000000000000000fa078c5fd18148337d2adcadbe8590d39a49ac6"
      ],
      "transaction": {
        "from": "0xdb5af497a73620d881561edb508012a5f84e9ba2",
        "to": "0x0fa078c5fd18148337d2adcadbe8590d39a49ac6",
        "gas": "0xf41e",
        "value": "0x0",
        "input": "0x3400288b000000000000000000000000000000000000000000000000000000000000759e0000000000000000000000000fa078c5fd18148337d2adcadbe8590d39a49ac6",
        "nonce": "0x12b8",
        "chainId": "0xa4b1"
      },
      "additionalContracts": [],
      "isFixedGasLimit": false
    },
    {
      "hash": "0xe7b9cfffcb506e199574b04cefca9d4fd4e7e317cb237251637d6e66ca2a14b0",
      "transactionType": "CALL",
      "contractName": null,
      "contractAddress": "0x0fa078c5fd18148337d2adcadbe8590d39a49ac6",
      "function": "setReadChannel(uint32,bool)",
      "arguments": [
        "30110",
        "true"
      ],
      "transaction": {
        "from": "0xdb5af497a73620d881561edb508012a5f84e9ba2",
        "to": "0x0fa078c5fd18148337d2adcadbe8590d39a49ac6",
        "gas": "0xf338",
        "value": "0x0",
        "input": "0xf0a9e481000000000000000000000000000000000000000000000000000000000000759e0000000000000000000000000000000000000000000000000000000000000001",
        "nonce": "0x12b9",
        "chainId": "0xa4b1"
      },
      "additionalContracts": [],
      "isFixedGasLimit": false
    }
  ],
  "receipts": [
    {
      "status": "0x1",
      "cumulativeGasUsed": "0x35b32",
      "logs": [
        {
          "address": "0x0fa078c5fd18148337d2adcadbe8590d39a49ac6",
          "topics": [
            "0xfa21e9d333be12fbe5fe4962de122dc63bc49a5304dd4f293ac7694d5a3374a6"
          ],
          "data": "0x000000000000000000000000000000000000000000000000000000000000759e000000000000000000000000000000000000000000000000000000000000759d0000000000000000000000004d97dcd97ec945f40cf65f87097ace5ea0476045000000000000000000000000000000000000000000000000000000000000000f0000000000000000000000000000000000000000000000000000000000030d400000000000000000000000000000000000000000000000000000000000000020000000000000000000000000000000000000000000000000000000000000000a",
          "blockHash": "0x39e6461a63a9ca4ee79a1fedd40527a050a4d07db1e1f190fe31d7a48299e7f5",
          "blockNumber": "0x188037f5",
          "blockTimestamp": "0x69409e6d",
          "transactionHash": "0x611245cdacd5b28b6a4d153044e9d4b02a5750518601a842b43489fb2216afaa",
          "transactionIndex": "0x3",
          "logIndex": "0x0",
          "removed": false
        }
      ],
      "logsBloom": "0x00000000000000000000000000000000000000000000000000000000000000000000000000000000000000000000000000000000000000000000000000000000002000000000000000000000000000000000000000000000000000000000000000000000020000000000000000100000000000000000000000000000000000000000000000000000000800000000000000000000000000000000000000000000000000000000000000000000000000000000000000000000000000000000000000000000000000000000000000000040000000000000000000000000000000000000000000000001000000000000000000000000000000000000000000000000",
      "type": "0x2",
      "transactionHash": "0x611245cdacd5b28b6a4d153044e9d4b02a5750518601a842b43489fb2216afaa",
      "transactionIndex": "0x3",
      "blockHash": "0x39e6461a63a9ca4ee79a1fedd40527a050a4d07db1e1f190fe31d7a48299e7f5",
      "blockNumber": "0x188037f5",
      "gasUsed": "0x9069",
      "effectiveGasPrice": "0x989680",
      "from": "0xdb5af497a73620d881561edb508012a5f84e9ba2",
      "to": "0x0fa078c5fd18148337d2adcadbe8590d39a49ac6",
      "contractAddress": null,
      "gasUsedForL1": "0x0",
      "l1BlockNumber": "0x16e898d",
      "timeboosted": false
    },
    {
      "status": "0x1",
      "cumulativeGasUsed": "0x9ca8c",
      "logs": [
        {
          "address": "0x0fa078c5fd18148337d2adcadbe8590d39a49ac6",
          "topics": [
            "0x238399d427b947898edb290f5ff0f9109849b1c3ba196a42e35f00c50a54b98b"
          ],
          "data": "0x000000000000000000000000000000000000000000000000000000000000759e0000000000000000000000000fa078c5fd18148337d2adcadbe8590d39a49ac6",
          "blockHash": "0x91cb0ea2e1d749faec75d72b19571453753a6d189377afa0e1fdf726ed670b6c",
          "blockNumber": "0x18803807",
          "blockTimestamp": "0x69409e72",
          "transactionHash": "0x42bcee2f4f5a9228a72df2eb1de50125dc4c7c77f679fcb0bd2396ef45b53990",
          "transactionIndex": "0x7",
          "logIndex": "0x0",
          "removed": false
        }
      ],
      "logsBloom": "0x00000000000000000000000000000000000000000000000000000000000000000000000000000000000000000000000000000000000000000800000000000000000000000000000000000000000000000000000000000000000000000000000000000000000000000000000000100000000000000000000000000000000000000000000000000000000800000000000000000000000000000000000000000000000000000000000000000000000000000000000000000000000002000000000000000000000000000000000000000040000000000000000000040000000000000000000000000000000000000000000000000000000000000000000000000000",
      "type": "0x2",
      "transactionHash": "0x42bcee2f4f5a9228a72df2eb1de50125dc4c7c77f679fcb0bd2396ef45b53990",
      "transactionIndex": "0x7",
      "blockHash": "0x91cb0ea2e1d749faec75d72b19571453753a6d189377afa0e1fdf726ed670b6c",
      "blockNumber": "0x18803807",
      "gasUsed": "0xba48",
      "effectiveGasPrice": "0x989680",
      "from": "0xdb5af497a73620d881561edb508012a5f84e9ba2",
      "to": "0x0fa078c5fd18148337d2adcadbe8590d39a49ac6",
      "contractAddress": null,
      "gasUsedForL1": "0x0",
      "l1BlockNumber": "0x16e898e",
      "timeboosted": false
    },
    {
      "status": "0x1",
      "cumulativeGasUsed": "0x453cf",
      "logs": [
        {
          "address": "0x0fa078c5fd18148337d2adcadbe8590d39a49ac6",
          "topics": [
            "0x238399d427b947898edb290f5ff0f9109849b1c3ba196a42e35f00c50a54b98b"
          ],
          "data": "0x000000000000000000000000000000000000000000000000000000000000759e0000000000000000000000000fa078c5fd18148337d2adcadbe8590d39a49ac6",
          "blockHash": "0x2e0e5665fded87537201a11b324d5a37c372da1941d87a2df5c6b41ec188e1a8",
          "blockNumber": "0x18803819",
          "blockTimestamp": "0x69409e77",
          "transactionHash": "0xe7b9cfffcb506e199574b04cefca9d4fd4e7e317cb237251637d6e66ca2a14b0",
          "transactionIndex": "0x4",
          "logIndex": "0x0",
          "removed": false
        }
      ],
      "logsBloom": "0x00000000000000000000000000000000000000000000000000000000000000000000000000000000000000000000000000000000000000000800000000000000000000000000000000000000000000000000000000000000000000000000000000000000000000000000000000100000000000000000000000000000000000000000000000000000000800000000000000000000000000000000000000000000000000000000000000000000000000000000000000000000000002000000000000000000000000000000000000000040000000000000000000040000000000000000000000000000000000000000000000000000000000000000000000000000",
      "type": "0x2",
      "transactionHash": "0xe7b9cfffcb506e199574b04cefca9d4fd4e7e317cb237251637d6e66ca2a14b0",
      "transactionIndex": "0x4",
      "blockHash": "0x2e0e5665fded87537201a11b324d5a37c372da1941d87a2df5c6b41ec188e1a8",
      "blockNumber": "0x18803819",
      "gasUsed": "0x6bdb",
      "effectiveGasPrice": "0x989680",
      "from": "0xdb5af497a73620d881561edb508012a5f84e9ba2",
      "to": "0x0fa078c5fd18148337d2adcadbe8590d39a49ac6",
      "contractAddress": null,
      "gasUsedForL1": "0x0",
      "l1BlockNumber": "0x16e898e",
      "timeboosted": false
    }
  ],
  "libraries": [],
  "pending": [],
  "returns": {},
  "timestamp": 1765842553897,
  "chain": 42161,
  "commit": "6bf3a0df2"
}