{
  "transactions": [
    {
      "hash": "0x837cd4d98b65b246aa039cc92a3563357171e7123e7f332ef7979b985139378e",
      "transactionType": "CALL",
      "contractName": null,
      "contractAddress": "0x617adea1dc03444481d73fdcb15644a191f74944",
      "function": "setConfig((uint256,uint32,uint32,address,uint16,uint128,uint32))",
      "arguments": [
        "(10, 30110, 30109, 0x4D97DCd97eC945f40cF65F87097ACe5EA0476045, 15, 200000, 32)"
      ],
      "transaction": {
        "from": "0xdb5af497a73620d881561edb508012a5f84e9ba2",
        "to": "0x617adea1dc03444481d73fdcb15644a191f74944",
        "gas": "0xcbd4",
        "value": "0x0",
        "input": "0x5e0fbc9e000000000000000000000000000000000000000000000000000000000000000a000000000000000000000000000000000000000000000000000000000000759e000000000000000000000000000000000000000000000000000000000000759d0000000000000000000000004d97dcd97ec945f40cf65f87097ace5ea0476045000000000000000000000000000000000000000000000000000000000000000f0000000000000000000000000000000000000000000000000000000000030d400000000000000000000000000000000000000000000000000000000000000020",
        "nonce": "0x12b1",
        "chainId": "0xa4b1"
      },
      "additionalContracts": [],
      "isFixedGasLimit": false
    },
    {
      "hash": "0x1fbfcd469e65b7b5cd59a0c6096c10754711f842a885eb35765ac09c8bde975f",
      "transactionType": "CALL",
      "contractName": null,
      "contractAddress": "0x617adea1dc03444481d73fdcb15644a191f74944",
      "function": "setPeer(uint32,bytes32)",
      "arguments": [
        "30110",
        "0x000000000000000000000000617adea1dc03444481d73fdcb15644a191f74944"
      ],
      "transaction": {
        "from": "0xdb5af497a73620d881561edb508012a5f84e9ba2",
        "to": "0x617adea1dc03444481d73fdcb15644a191f74944",
        "gas": "0x8ede",
        "value": "0x0",
        "input": "0x3400288b000000000000000000000000000000000000000000000000000000000000759e000000000000000000000000617adea1dc03444481d73fdcb15644a191f74944",
        "nonce": "0x12b2",
        "chainId": "0xa4b1"
      },
      "additionalContracts": [],
      "isFixedGasLimit": false
    },
    {
      "hash": "0x615f5876279552aeebd9c444eace8b846e70a95a4c8948f2478073e7e4c5c6c0",
      "transactionType": "CALL",
      "contractName": null,
      "contractAddress": "0x617adea1dc03444481d73fdcb15644a191f74944",
      "function": "setReadChannel(uint32,bool)",
      "arguments": [
        "30110",
        "true"
      ],
      "transaction": {
        "from": "0xdb5af497a73620d881561edb508012a5f84e9ba2",
        "to": "0x617adea1dc03444481d73fdcb15644a191f74944",
        "gas": "0x8df6",
        "value": "0x0",
        "input": "0xf0a9e481000000000000000000000000000000000000000000000000000000000000759e0000000000000000000000000000000000000000000000000000000000000001",
        "nonce": "0x12b3",
        "chainId": "0xa4b1"
      },
      "additionalContracts": [],
      "isFixedGasLimit": false
    }
  ],
  "receipts": [
    {
      "status": "0x1",
      "cumulativeGasUsed": "0x457a8",
      "logs": [
        {
          "address": "0x617adea1dc03444481d73fdcb15644a191f74944",
          "topics": [
            "0xfa21e9d333be12fbe5fe4962de122dc63bc49a5304dd4f293ac7694d5a3374a6"
          ],
          "data": "0x000000000000000000000000000000000000000000000000000000000000759e000000000000000000000000000000000000000000000000000000000000759d0000000000000000000000004d97dcd97ec945f40cf65f87097ace5ea0476045000000000000000000000000000000000000000000000000000000000000000f0000000000000000000000000000000000000000000000000000000000030d400000000000000000000000000000000000000000000000000000000000000020000000000000000000000000000000000000000000000000000000000000000a",
          "blockHash": "0x695fe9211f8a930faf654b425c7ea50a72305cc053e784965b39d96282af30ec",
          "blockNumber": "0x1880319e",
          "blockTimestamp": "0x69409cd8",
          "transactionHash": "0x837cd4d98b65b246aa039cc92a3563357171e7123e7f332ef7979b985139378e",
          "transactionIndex": "0x6",
          "logIndex": "0x3",
          "removed": false
        }
      ],
      "logsBloom": "0x00000000000000000000000000000000000000000000000000000000000000000000000000000000000000000000000000000000000000000000000000000000002000000000000000000000000000000000000000000000000000004000000000000000020000000000000000000000000000000000000000000000000000000000000000000000000000000000000000000000000000000000000000000000000000000000000000000000000000000000000000000000000000000000000000000000008000000000000000000000000000000000000000000000000000000000000000000001000000000000000000000000000000000000000000040000",
      "type": "0x2",
      "transactionHash": "0x837cd4d98b65b246aa039cc92a3563357171e7123e7f332ef7979b985139378e",
      "transactionIndex": "0x6",
      "blockHash": "0x695fe9211f8a930faf654b425c7ea50a72305cc053e784965b39d96282af30ec",
      "blockNumber": "0x1880319e",
      "gasUsed": "0x9b59",
      "effectiveGasPrice": "0x989680",
      "from": "0xdb5af497a73620d881561edb508012a5f84e9ba2",
      "to": "0x617adea1dc03444481d73fdcb15644a191f74944",
      "contractAddress": null,
      "gasUsedForL1": "0x0",
      "l1BlockNumber": "0x16e896b",
      "timeboosted": false
    },
    {
      "status": "0x1",
      "cumulativeGasUsed": "0x6c8c",
      "logs": [
        {
          "address": "0x617adea1dc03444481d73fdcb15644a191f74944",
          "topics": [
            "0x238399d427b947898edb290f5ff0f9109849b1c3ba196a42e35f00c50a54b98b"
          ],
          "data": "0x000000000000000000000000000000000000000000000000000000000000759e000000000000000000000000617adea1dc03444481d73fdcb15644a191f74944",
          "blockHash": "0x5736e87249dac53858fad56692039086430893b1e0dab7243c30a279f67907f5",
          "blockNumber": "0x188031a9",
          "blockTimestamp": "0x69409cdb",
          "transactionHash": "0x1fbfcd469e65b7b5cd59a0c6096c10754711f842a885eb35765ac09c8bde975f",
          "transactionIndex": "0x1",
          "logIndex": "0x0",
          "removed": false
        }
      ],
      "logsBloom": "0x00000000000000000000000000000000000000000000000000000000000000000000000000000000000000000000000000000000000000000800000000000000000000000000000000000000000000000000000000000000000000004000000000000000000000000000000000000000000000000000000000000000000000000000000000000000000000000000000000000000000000000000000000000000000000000000000000000000000000000000000000000000000002000000000000000000008000000000000000000000000000000000000000040000000000000000000000000000000000000000000000000000000000000000000000040000",
      "type": "0x2",
      "transactionHash": "0x1fbfcd469e65b7b5cd59a0c6096c10754711f842a885eb35765ac09c8bde975f",
      "transactionIndex": "0x1",
      "blockHash": "0x5736e87249dac53858fad56692039086430893b1e0dab7243c30a279f67907f5",
      "blockNumber": "0x188031a9",
      "gasUsed": "0x6c8c",
      "effectiveGasPrice": "0x989680",
      "from": "0xdb5af497a73620d881561edb508012a5f84e9ba2",
      "to": "0x617adea1dc03444481d73fdcb15644a191f74944",
      "contractAddress": null,
      "gasUsedForL1": "0x0",
      "l1BlockNumber": "0x16e896b",
      "timeboosted": false
    },
    {
      "status": "0x1",
      "cumulativeGasUsed": "0x6bdb",
      "logs": [
        {
          "address": "0x617adea1dc03444481d73fdcb15644a191f74944",
          "topics": [
            "0x238399d427b947898edb290f5ff0f9109849b1c3ba196a42e35f00c50a54b98b"
          ],
          "data": "0x000000000000000000000000000000000000000000000000000000000000759e000000000000000000000000617adea1dc03444481d73fdcb15644a191f74944",
          "blockHash": "0x7c0c47f5b2e585a132189c4931efd8c587956237358c7a12fb5d08c805ef6bb2",
          "blockNumber": "0x188031b4",
          "blockTimestamp": "0x69409cde",
          "transactionHash": "0x615f5876279552aeebd9c444eace8b846e70a95a4c8948f2478073e7e4c5c6c0",
          "transactionIndex": "0x1",
          "logIndex": "0x0",
          "removed": false
        }
      ],
      "logsBloom": "0x00000000000000000000000000000000000000000000000000000000000000000000000000000000000000000000000000000000000000000800000000000000000000000000000000000000000000000000000000000000000000004000000000000000000000000000000000000000000000000000000000000000000000000000000000000000000000000000000000000000000000000000000000000000000000000000000000000000000000000000000000000000000002000000000000000000008000000000000000000000000000000000000000040000000000000000000000000000000000000000000000000000000000000000000000040000",
      "type": "0x2",
      "transactionHash": "0x615f5876279552aeebd9c444eace8b846e70a95a4c8948f2478073e7e4c5c6c0",
      "transactionIndex": "0x1",
      "blockHash": "0x7c0c47f5b2e585a132189c4931efd8c587956237358c7a12fb5d08c805ef6bb2",
      "blockNumber": "0x188031b4",
      "gasUsed": "0x6bdb",
      "effectiveGasPrice": "0x989680",
      "from": "0xdb5af497a73620d881561edb508012a5f84e9ba2",
      "to": "0x617adea1dc03444481d73fdcb15644a191f74944",
      "contractAddress": null,
      "gasUsedForL1": "0x0",
      "l1BlockNumber": "0x16e896c",
      "timeboosted": false
    }
  ],
  "libraries": [],
  "pending": [],
  "returns": {},
  "timestamp": 1765842143612,
  "chain": 42161,
  "commit": "6bf3a0df2"
}