{
  "transactions": [
    {
      "hash": "0x3302eb4557f6a158cd6af347a30c649a3333342c6136916234d3f12073757fb7",
      "transactionType": "CALL",
      "contractName": null,
      "contractAddress": "0x617adea1dc03444481d73fdcb15644a191f74944",
      "function": "setConfig((uint256,uint32,uint32,address,uint16,uint128,uint32))",
      "arguments": [
        "(10, 30109, 30109, 0x4D97DCd97eC945f40cF65F87097ACe5EA0476045, 15, 200000, 32)"
      ],
      "transaction": {
        "from": "0xdb5af497a73620d881561edb508012a5f84e9ba2",
        "to": "0x617adea1dc03444481d73fdcb15644a191f74944",
        "gas": "0xbd94",
        "value": "0x0",
        "input": "0x5e0fbc9e000000000000000000000000000000000000000000000000000000000000000a000000000000000000000000000000000000000000000000000000000000759d000000000000000000000000000000000000000000000000000000000000759d0000000000000000000000004d97dcd97ec945f40cf65f87097ace5ea0476045000000000000000000000000000000000000000000000000000000000000000f0000000000000000000000000000000000000000000000000000000000030d400000000000000000000000000000000000000000000000000000000000000020",
        "nonce": "0x12a9",
        "chainId": "0xa4b1"
      },
      "additionalContracts": [],
      "isFixedGasLimit": false
    },
    {
      "hash": "0x179e6be13645548f344e446645a8d9bb2e8c38c7d826066cfeae23228d11c7b5",
      "transactionType": "CALL",
      "contractName": null,
      "contractAddress": "0x617adea1dc03444481d73fdcb15644a191f74944",
      "function": "setPeer(uint32,bytes32)",
      "arguments": [
        "30109",
        "0x000000000000000000000000617adea1dc03444481d73fdcb15644a191f74944"
      ],
      "transaction": {
        "from": "0xdb5af497a73620d881561edb508012a5f84e9ba2",
        "to": "0x617adea1dc03444481d73fdcb15644a191f74944",
        "gas": "0x8ede",
        "value": "0x0",
        "input": "0x3400288b000000000000000000000000000000000000000000000000000000000000759d000000000000000000000000617adea1dc03444481d73fdcb15644a191f74944",
        "nonce": "0x12aa",
        "chainId": "0xa4b1"
      },
      "additionalContracts": [],
      "isFixedGasLimit": false
    },
    {
      "hash": "0x812a9a2c67471232b65452c5868a2e4ae601ee1d9e5f94058cbe91954d65d1d0",
      "transactionType": "CALL",
      "contractName": null,
      "contractAddress": "0x617adea1dc03444481d73fdcb15644a191f74944",
      "function": "setReadChannel(uint32,bool)",
      "arguments": [
        "30109",
        "true"
      ],
      "transaction": {
        "from": "0xdb5af497a73620d881561edb508012a5f84e9ba2",
        "to": "0x617adea1dc03444481d73fdcb15644a191f74944",
        "gas": "0x8df6",
        "value": "0x0",
        "input": "0xf0a9e481000000000000000000000000000000000000000000000000000000000000759d0000000000000000000000000000000000000000000000000000000000000001",
        "nonce": "0x12ab",
        "chainId": "0xa4b1"
      },
      "additionalContracts": [],
      "isFixedGasLimit": false
    }
  ],
  "receipts": [
    {
      "status": "0x1",
      "cumulativeGasUsed": "0x70f41",
      "logs": [
        {
          "address": "0x617adea1dc03444481d73fdcb15644a191f74944",
          "topics": [
            "0xfa21e9d333be12fbe5fe4962de122dc63bc49a5304dd4f293ac7694d5a3374a6"
          ],
          "data": "0x000000000000000000000000000000000000000000000000000000000000759d000000000000000000000000000000000000000000000000000000000000759d0000000000000000000000004d97dcd97ec945f40cf65f87097ace5ea0476045000000000000000000000000000000000000000000000000000000000000000f0000000000000000000000000000000000000000000000000000000000030d400000000000000000000000000000000000000000000000000000000000000020000000000000000000000000000000000000000000000000000000000000000a",
          "blockHash": "0xd4da83a7cdd8288901a7c51d264a45ff8074e5bee2aa754558ac5a0c2c07bcbc",
          "blockNumber": "0x188004e9",
          "blockTimestamp": "0x694091ad",
          "transactionHash": "0x3302eb4557f6a158cd6af347a30c649a3333342c6136916234d3f12073757fb7",
          "transactionIndex": "0x6",
          "logIndex": "0x6",
          "removed": false
        }
      ],
      "logsBloom": "0x00000000000000000000000000000000000000000000000000000000000000000000000000000000000000000000000000000000000000000000000000000000002000000000000000000000000000000000000000000000000000004000000000000000020000000000000000000000000000000000000000000000000000000000000000000000000000000000000000000000000000000000000000000000000000000000000000000000000000000000000000000000000000000000000000000000008000000000000000000000000000000000000000000000000000000000000000000001000000000000000000000000000000000000000000040000",
      "type": "0x2",
      "transactionHash": "0x3302eb4557f6a158cd6af347a30c649a3333342c6136916234d3f12073757fb7",
      "transactionIndex": "0x6",
      "blockHash": "0xd4da83a7cdd8288901a7c51d264a45ff8074e5bee2aa754558ac5a0c2c07bcbc",
      "blockNumber": "0x188004e9",
      "gasUsed": "0x9069",
      "effectiveGasPrice": "0x989680",
      "from": "0xdb5af497a73620d881561edb508012a5f84e9ba2",
      "to": "0x617adea1dc03444481d73fdcb15644a191f74944",
      "contractAddress": null,
      "gasUsedForL1": "0x0",
      "l1BlockNumber": "0x16e887d",
      "timeboosted": false
    },
    {
      "status": "0x1",
      "cumulativeGasUsed": "0x6c8c",
      "logs": [
        {
          "address": "0x617adea1dc03444481d73fdcb15644a191f74944",
          "topics": [
            "0x238399d427b947898edb290f5ff0f9109849b1c3ba196a42e35f00c50a54b98b"
          ],
          "data": "0x000000000000000000000000000000000000000000000000000000000000759d000000000000000000000000617adea1dc03444481d73fdcb15644a191f74944",
          "blockHash": "0xdf7650e79335327575da947b1969de301ff7b8c7a79bc9c2fc983dcb4396e57f",
          "blockNumber": "0x188004f3",
          "blockTimestamp": "0x694091b0",
          "transactionHash": "0x179e6be13645548f344e446645a8d9bb2e8c38c7d826066cfeae23228d11c7b5",
          "transactionIndex": "0x1",
          "logIndex": "0x0",
          "removed": false
        }
      ],
      "logsBloom": "0x00000000000000000000000000000000000000000000000000000000000000000000000000000000000000000000000000000000000000000800000000000000000000000000000000000000000000000000000000000000000000004000000000000000000000000000000000000000000000000000000000000000000000000000000000000000000000000000000000000000000000000000000000000000000000000000000000000000000000000000000000000000000002000000000000000000008000000000000000000000000000000000000000040000000000000000000000000000000000000000000000000000000000000000000000040000",
      "type": "0x2",
      "transactionHash": "0x179e6be13645548f344e446645a8d9bb2e8c38c7d826066cfeae23228d11c7b5",
      "transactionIndex": "0x1",
      "blockHash": "0xdf7650e79335327575da947b1969de301ff7b8c7a79bc9c2fc983dcb4396e57f",
      "blockNumber": "0x188004f3",
      "gasUsed": "0x6c8c",
      "effectiveGasPrice": "0x989680",
      "from": "0xdb5af497a73620d881561edb508012a5f84e9ba2",
      "to": "0x617adea1dc03444481d73fdcb15644a191f74944",
      "contractAddress": null,
      "gasUsedForL1": "0x0",
      "l1BlockNumber": "0x16e887d",
      "timeboosted": false
    },
    {
      "status": "0x1",
      "cumulativeGasUsed": "0x1ff6d",
      "logs": [
        {
          "address": "0x617adea1dc03444481d73fdcb15644a191f74944",
          "topics": [
            "0x238399d427b947898edb290f5ff0f9109849b1c3ba196a42e35f00c50a54b98b"
          ],
          "data": "0x000000000000000000000000000000000000000000000000000000000000759d000000000000000000000000617adea1dc03444481d73fdcb15644a191f74944",
          "blockHash": "0xecf0b376797bd2615767bb7503bd66f95e0f404fff9cab98ad6a6f886ad49ed8",
          "blockNumber": "0x188004fc",
          "blockTimestamp": "0x694091b2",
          "transactionHash": "0x812a9a2c67471232b65452c5868a2e4ae601ee1d9e5f94058cbe91954d65d1d0",
          "transactionIndex": "0x2",
          "logIndex": "0x2",
          "removed": false
        }
      ],
      "logsBloom": "0x00000000000000000000000000000000000000000000000000000000000000000000000000000000000000000000000000000000000000000800000000000000000000000000000000000000000000000000000000000000000000004000000000000000000000000000000000000000000000000000000000000000000000000000000000000000000000000000000000000000000000000000000000000000000000000000000000000000000000000000000000000000000002000000000000000000008000000000000000000000000000000000000000040000000000000000000000000000000000000000000000000000000000000000000000040000",
      "type": "0x2",
      "transactionHash": "0x812a9a2c67471232b65452c5868a2e4ae601ee1d9e5f94058cbe91954d65d1d0",
      "transactionIndex": "0x2",
      "blockHash": "0xecf0b376797bd2615767bb7503bd66f95e0f404fff9cab98ad6a6f886ad49ed8",
      "blockNumber": "0x188004fc",
      "gasUsed": "0x6bdb",
      "effectiveGasPrice": "0x989680",
      "from": "0xdb5af497a73620d881561edb508012a5f84e9ba2",
      "to": "0x617adea1dc03444481d73fdcb15644a191f74944",
      "contractAddress": null,
      "gasUsedForL1": "0x0",
      "l1BlockNumber": "0x16e887d",
      "timeboosted": false
    }
  ],
  "libraries": [],
  "pending": [],
  "returns": {},
  "timestamp": 1765839283797,
  "chain": 42161,
  "commit": "6bf3a0df2"
}