{
  "transactions": [
    {
      "hash": "0xae85c38368e212e12ccb6715ca0e4a42cbae063ed939be3b377000e21f5c3b32",
      "transactionType": "CALL",
      "contractName": null,
      "contractAddress": "0xc873efa9d22a09e39101efb977c03011620bf015",
      "function": "setPeer(uint32,bytes32)",
      "arguments": [
        "30110",
        "0x000000000000000000000000070bd542474390c3afed2dae85c2d13932c75f17"
      ],
      "transaction": {
        "from": "0x6a225f09e0ebe597f79e86875b3704325d40c84d",
        "to": "0xc873efa9d22a09e39101efb977c03011620bf015",
        "gas": "0x1015d",
        "value": "0x0",
        "input": "0x3400288b000000000000000000000000000000000000000000000000000000000000759e000000000000000000000000070bd542474390c3afed2dae85c2d13932c75f17",
        "nonce": "0x9",
        "chainId": "0x4d454e"
      },
      "additionalContracts": [],
      "isFixedGasLimit": false
    }
  ],
  "receipts": [
    {
      "status": "0x1",
      "cumulativeGasUsed": "0xba54",
      "logs": [
        {
          "address": "0xc873efa9d22a09e39101efb977c03011620bf015",
          "topics": [
            "0x238399d427b947898edb290f5ff0f9109849b1c3ba196a42e35f00c50a54b98b"
          ],
          "data": "0x000000000000000000000000000000000000000000000000000000000000759e000000000000000000000000070bd542474390c3afed2dae85c2d13932c75f17",
          "blockHash": "0x22f2944c2dcff54e7fa4b060d71d56851e11bbe9aaee20e6dbd4c50e9b218da0",
          "blockNumber": "0x530e2",
          "transactionHash": "0xae85c38368e212e12ccb6715ca0e4a42cbae063ed939be3b377000e21f5c3b32",
          "transactionIndex": "0x1",
          "logIndex": "0x0",
          "removed": false
        }
      ],
      "logsBloom": "0x00000000000000000000000000000000000000000000000020000000000000000000000000000000000000000000000000000000000000000800000000000000000000000000000000000000000000000040000000000000000000000000000000000000000000000000000000000000000000000000000000000000000000000000000000000000000000000000000000000000000000000000000000000000000000000000000000000000000000000000008000000000000002000000000000000000000000000000000000000000000000000000000000040000000000000000000000000000000000000000000000000000000000000000000000000000",
      "type": "0x2",
      "transactionHash": "0xae85c38368e212e12ccb6715ca0e4a42cbae063ed939be3b377000e21f5c3b32",
      "transactionIndex": "0x1",
      "blockHash": "0x22f2944c2dcff54e7fa4b060d71d56851e11bbe9aaee20e6dbd4c50e9b218da0",
      "blockNumber": "0x530e2",
      "gasUsed": "0xba54",
      "effectiveGasPrice": "0x989680",
      "from": "0x6a225f09e0ebe597f79e86875b3704325d40c84d",
      "to": "0xc873efa9d22a09e39101efb977c03011620bf015",
      "contractAddress": null,
      "gasUsedForL1": "0x0",
      "l1BlockNumber": "0x16c42b5"
    }
  ],
  "libraries": [],
  "pending": [],
  "returns": {},
  "timestamp": 1764029554,
  "chain": 5064014,
  "commit": "452ee5b9"
}