{
  "transactions": [
    {
      "hash": "0xbff6f674468b91a36ca7085dcf0c7e6f17bcdd6da82e841c4baf6bf1b3e23df5",
      "transactionType": "CALL",
      "contractName": null,
      "contractAddress": "0xd82f211d0d9be9a73a829a5f1f0e34b02bf2fb36",
      "function": "setPeer(uint32,bytes32)",
      "arguments": [
        "30110",
        "0x00000000000000000000000077bf3900d79d7ba4daefeb5ed4d216308dbfbf53"
      ],
      "transaction": {
        "from": "0x6a225f09e0ebe597f79e86875b3704325d40c84d",
        "to": "0xd82f211d0d9be9a73a829a5f1f0e34b02bf2fb36",
        "gas": "0x1014c",
        "value": "0x0",
        "input": "0x3400288b000000000000000000000000000000000000000000000000000000000000759e00000000000000000000000077bf3900d79d7ba4daefeb5ed4d216308dbfbf53",
        "nonce": "0x10",
        "chainId": "0x4d454e"
      },
      "additionalContracts": [],
      "isFixedGasLimit": false
    },
    {
      "hash": "0xdd79261ee03c8a8954913c8f9e649a630a7c452351aaa1b15b47e790f4e02925",
      "transactionType": "CALL",
      "contractName": null,
      "contractAddress": "0xd82f211d0d9be9a73a829a5f1f0e34b02bf2fb36",
      "function": "setBridgeConfig((uint32,address))",
      "arguments": [
        "(30110, 0x77Bf3900D79D7Ba4DAEfEb5Ed4D216308dbfbf53)"
      ],
      "transaction": {
        "from": "0x6a225f09e0ebe597f79e86875b3704325d40c84d",
        "to": "0xd82f211d0d9be9a73a829a5f1f0e34b02bf2fb36",
        "gas": "0xfb10",
        "value": "0x0",
        "input": "0x90919c2e000000000000000000000000000000000000000000000000000000000000759e00000000000000000000000077bf3900d79d7ba4daefeb5ed4d216308dbfbf53",
        "nonce": "0x11",
        "chainId": "0x4d454e"
      },
      "additionalContracts": [],
      "isFixedGasLimit": false
    }
  ],
  "receipts": [
    {
      "status": "0x1",
      "cumulativeGasUsed": "0xba48",
      "logs": [
        {
          "address": "0xd82f211d0d9be9a73a829a5f1f0e34b02bf2fb36",
          "topics": [
            "0x238399d427b947898edb290f5ff0f9109849b1c3ba196a42e35f00c50a54b98b"
          ],
          "data": "0x000000000000000000000000000000000000000000000000000000000000759e00000000000000000000000077bf3900d79d7ba4daefeb5ed4d216308dbfbf53",
          "blockHash": "0x449fe0edd1b89c3d3b68a2a093432be105c5dca73730888e6ab8b9f835ec4457",
          "blockNumber": "0xa8bf6",
          "blockTimestamp": "0x693757e7",
          "transactionHash": "0xbff6f674468b91a36ca7085dcf0c7e6f17bcdd6da82e841c4baf6bf1b3e23df5",
          "transactionIndex": "0x1",
          "logIndex": "0x0",
          "removed": false
        }
      ],
      "logsBloom": "0x04000000000000000000000000000000000020000000000000000000000000000000000000000001000000000000000000000000000000000800000000000000000000000000000000000000000000000000000000000000000000000000000000000000000000000000000000000000000000000000000000000000000000000000000000000000000000000000000000000000000000000000000000000000000000000000000000000000000000000000000000000000000002000000000000000000000000000000000000000000000000000000000000040000000000000000000000000000000000000000000000000000000000000000000000000000",
      "type": "0x2",
      "transactionHash": "0xbff6f674468b91a36ca7085dcf0c7e6f17bcdd6da82e841c4baf6bf1b3e23df5",
      "transactionIndex": "0x1",
      "blockHash": "0x449fe0edd1b89c3d3b68a2a093432be105c5dca73730888e6ab8b9f835ec4457",
      "blockNumber": "0xa8bf6",
      "gasUsed": "0xba48",
      "effectiveGasPrice": "0x989680",
      "from": "0x6a225f09e0ebe597f79e86875b3704325d40c84d",
      "to": "0xd82f211d0d9be9a73a829a5f1f0e34b02bf2fb36",
      "contractAddress": null,
      "gasUsedForL1": "0x0",
      "l1BlockNumber": "0x16dc581"
    },
    {
      "status": "0x1",
      "cumulativeGasUsed": "0xb5c4",
      "logs": [],
      "logsBloom": "0x00000000000000000000000000000000000000000000000000000000000000000000000000000000000000000000000000000000000000000000000000000000000000000000000000000000000000000000000000000000000000000000000000000000000000000000000000000000000000000000000000000000000000000000000000000000000000000000000000000000000000000000000000000000000000000000000000000000000000000000000000000000000000000000000000000000000000000000000000000000000000000000000000000000000000000000000000000000000000000000000000000000000000000000000000000000",
      "type": "0x2",
      "transactionHash": "0xdd79261ee03c8a8954913c8f9e649a630a7c452351aaa1b15b47e790f4e02925",
      "transactionIndex": "0x1",
      "blockHash": "0xd1d6ffb29ea7aece8d15c7a21455b647e9ec937db7ab68f43f7d36f14b826c1d",
      "blockNumber": "0xa8bf7",
      "gasUsed": "0xb5c4",
      "effectiveGasPrice": "0x989680",
      "from": "0x6a225f09e0ebe597f79e86875b3704325d40c84d",
      "to": "0xd82f211d0d9be9a73a829a5f1f0e34b02bf2fb36",
      "contractAddress": null,
      "gasUsedForL1": "0x0",
      "l1BlockNumber": "0x16dc581"
    }
  ],
  "libraries": [],
  "pending": [],
  "returns": {},
  "timestamp": 1765234663,
  "chain": 5064014,
  "commit": "af49cf04f"
}