{
  "transactions": [
    {
      "hash": "0x82425dc615e0e52317eb43e950c354748e8e23b33dfba60ed0fed9b97f5fbe7e",
      "transactionType": "CALL",
      "contractName": null,
      "contractAddress": "0x4716338fcf8c0b2d8358dcb9c0e020cc6a25e8ef",
      "function": "sendValue(uint256)",
      "arguments": [
        "12345"
      ],
      "transaction": {
        "from": "0xefa0e8aa84a713f6a6d4de8cc761fe86c5957d72",
        "to": "0x4716338fcf8c0b2d8358dcb9c0e020cc6a25e8ef",
        "gas": "0x52a07",
        "value": "0xfdb22e9ce6b",
        "input": "0x675632680000000000000000000000000000000000000000000000000000000000003039",
        "nonce": "0x24",
        "chainId": "0xa4b1"
      },
      "additionalContracts": [],
      "isFixedGasLimit": false
    }
  ],
  "receipts": [
    {
      "status": "0x1",
      "cumulativeGasUsed": "0x3e6e7",
      "logs": [
        {
          "address": "0x975bcd720be66659e3eb3c0e4f1866a3020e493a",
          "topics": [
            "0x61ed099e74a97a1d7f8bb0952a88ca8b7b8ebd00c126ea04671f92a81213318a"
          ],
          "data": "0x00000000000000000000000031cae3b7fb82d847621859fb1585353c5720660d00000000000000000000000000000000000000000000000000000fae13e30c22",
          "blockHash": "0xc4d71467450f6befc4b6c102e54ce7f8cdc62e812e9cf57e6615bf47e80a6f78",
          "blockNumber": "0x18a2bf96",
          "blockTimestamp": "0x69493dd3",
          "transactionHash": "0x82425dc615e0e52317eb43e950c354748e8e23b33dfba60ed0fed9b97f5fbe7e",
          "transactionIndex": "0x1",
          "logIndex": "0x0",
          "removed": false
        },
        {
          "address": "0x975bcd720be66659e3eb3c0e4f1866a3020e493a",
          "topics": [
            "0x07ea52d82345d6e838192107d8fd7123d9c2ec8e916cd0aad13fd2b60db24644"
          ],
          "data": "0x000000000000000000000000000000000000000000000000000000000000006000000000000000000000000000000000000000000000000000000000000000a000000000000000000000000000000000000000000000000000000000000000c000000000000000000000000000000000000000000000000000000000000000010000000000000000000000002f55c492897526677c5b68fb199ea31e2c126416000000000000000000000000000000000000000000000000000000000000000000000000000000000000000000000000000000000000000000000000000000010000000000000000000000000000000000000000000000000000002d0f06c249",
          "blockHash": "0xc4d71467450f6befc4b6c102e54ce7f8cdc62e812e9cf57e6615bf47e80a6f78",
          "blockNumber": "0x18a2bf96",
          "blockTimestamp": "0x69493dd3",
          "transactionHash": "0x82425dc615e0e52317eb43e950c354748e8e23b33dfba60ed0fed9b97f5fbe7e",
          "transactionIndex": "0x1",
          "logIndex": "0x1",
          "removed": false
        },
        {
          "address": "0x1a44076050125825900e736c501f859c50fe728c",
          "topics": [
            "0x1ab700d4ced0c005b164c0f789fd09fcbb0156d4c2041b8a3bfbcd961cd1567f"
          ],
          "data": "0x00000000000000000000000000000000000000000000000000000000000000600000000000000000000000000000000000000000000000000000000000000120000000000000000000000000975bcd720be66659e3eb3c0e4f1866a3020e493a00000000000000000000000000000000000000000000000000000000000000910100000000000000010000759e0000000000000000000000004716338fcf8c0b2d8358dcb9c0e020cc6a25e8ef000075e80000000000000000000000004716338fcf8c0b2d8358dcb9c0e020cc6a25e8ef28faf39e636fa629fb92a6c82bbaa59610b5b1b5b6a9bd8b7c5003e42f60700b0000000000000000000000000000000000000000000000000000000000003039000000000000000000000000000000000000000000000000000000000000000000000000000000000000000000001600030100110100000000000000000000000000030d4000000000000000000000",
          "blockHash": "0xc4d71467450f6befc4b6c102e54ce7f8cdc62e812e9cf57e6615bf47e80a6f78",
          "blockNumber": "0x18a2bf96",
          "blockTimestamp": "0x69493dd3",
          "transactionHash": "0x82425dc615e0e52317eb43e950c354748e8e23b33dfba60ed0fed9b97f5fbe7e",
          "transactionIndex": "0x1",
          "logIndex": "0x2",
          "removed": false
        },
        {
          "address": "0x4716338fcf8c0b2d8358dcb9c0e020cc6a25e8ef",
          "topics": [
            "0xc8dcad7f3bb826fe986c6e68dcfe5125916f759dfee760ce862a970895fd744f"
          ],
          "data": "0x000000000000000000000000000000000000000000000000000000000000303900000000000000000000000000000000000000000000000000000000000075e8",
          "blockHash": "0xc4d71467450f6befc4b6c102e54ce7f8cdc62e812e9cf57e6615bf47e80a6f78",
          "blockNumber": "0x18a2bf96",
          "blockTimestamp": "0x69493dd3",
          "transactionHash": "0x82425dc615e0e52317eb43e950c354748e8e23b33dfba60ed0fed9b97f5fbe7e",
          "transactionIndex": "0x1",
          "logIndex": "0x3",
          "removed": false
        }
      ],
      "logsBloom": "0x00000000000000000000000000000000000000000000000000000000001000000000000000000000000000000000000000000000000400000000000000000000000000200000000000000000000000000000020000000000000000000000000080000000000800018000000000000000000000000010000000000000000000000000000000000000000000080000000000000000000000000000000000000000000000008000000000100040000000000000000000400000000440000000008040000000000000000000000000000000000000000000000000000000000000000000040000000000000000000000002000000000010000000000000000000000",
      "type": "0x2",
      "transactionHash": "0x82425dc615e0e52317eb43e950c354748e8e23b33dfba60ed0fed9b97f5fbe7e",
      "transactionIndex": "0x1",
      "blockHash": "0xc4d71467450f6befc4b6c102e54ce7f8cdc62e812e9cf57e6615bf47e80a6f78",
      "blockNumber": "0x18a2bf96",
      "gasUsed": "0x3e6e7",
      "effectiveGasPrice": "0x1055e28",
      "from": "0xefa0e8aa84a713f6a6d4de8cc761fe86c5957d72",
      "to": "0x4716338fcf8c0b2d8358dcb9c0e020cc6a25e8ef",
      "contractAddress": null,
      "gasUsedForL1": "0x0",
      "l1BlockNumber": "0x16f4094",
      "timeboosted": false
    }
  ],
  "libraries": [],
  "pending": [],
  "returns": {},
  "timestamp": 1766407637,
  "chain": 42161,
  "commit": "43d1dd2a2"
}