{
  "transactions": [
    {
      "hash": "0x440ee96fe4b935b66612adfb3784337ce049f16251a3d094dc4a45af7ffd0b41",
      "transactionType": "CALL",
      "contractName": null,
      "contractAddress": "0x26db702647e56b230e15687bfbc48b526e131dae",
      "function": "setBridgeConfig((uint32,address))",
      "arguments": [
        "(40422, 0x2A97702591ACCbF330c6c813C46DE287653eb645)"
      ],
      "transaction": {
        "from": "0xdb5af497a73620d881561edb508012a5f84e9ba2",
        "to": "0x26db702647e56b230e15687bfbc48b526e131dae",
        "gas": "0xf812",
        "value": "0x0",
        "input": "0x90919c2e0000000000000000000000000000000000000000000000000000000000009de60000000000000000000000002a97702591accbf330c6c813c46de287653eb645",
        "nonce": "0x1",
        "chainId": "0x66eee"
      },
      "additionalContracts": [],
      "isFixedGasLimit": false
    },
    {
      "hash": "0x8984fab3e776da2ad3c7002b2172d586f3814fd534003a4f3ed5f650d0f98f8b",
      "transactionType": "CALL",
      "contractName": null,
      "contractAddress": "0x26db702647e56b230e15687bfbc48b526e131dae",
      "function": "approveAsserter(address)",
      "arguments": [
        "0xdb5Af497A73620d881561eDb508012A5f84e9BA2"
      ],
      "transaction": {
        "from": "0xdb5af497a73620d881561edb508012a5f84e9ba2",
        "to": "0x26db702647e56b230e15687bfbc48b526e131dae",
        "gas": "0xf24e",
        "value": "0x0",
        "input": "0x70867bc3000000000000000000000000db5af497a73620d881561edb508012a5f84e9ba2",
        "nonce": "0x2",
        "chainId": "0x66eee"
      },
      "additionalContracts": [],
      "isFixedGasLimit": false
    }
  ],
  "receipts": [
    {
      "status": "0x1",
      "cumulativeGasUsed": "0xbbcd",
      "logs": [
        {
          "address": "0x26db702647e56b230e15687bfbc48b526e131dae",
          "topics": [
            "0x667c4919e9f81a90720a09575224afc1e5c12c569c86afa746138907a029cd0d"
          ],
          "data": "0x0000000000000000000000000000000000000000000000000000000000009de60000000000000000000000002a97702591accbf330c6c813c46de287653eb645",
          "blockHash": "0xc77bdf6810c70ea9a643600ace0709ce1af224702106b8451b30fd52939ff304",
          "blockNumber": "0xce85ef6",
          "blockTimestamp": "0x691cadd1",
          "transactionHash": "0x440ee96fe4b935b66612adfb3784337ce049f16251a3d094dc4a45af7ffd0b41",
          "transactionIndex": "0x1",
          "logIndex": "0x0",
          "removed": false
        }
      ],
      "logsBloom": "0x00000000000000000000200000000000000000000000000000000000000000000000000000000000000000000000000000000000000000000000000000000000000000000000000000000000000000000000000000000000000000000000000000000000000100000000000000000000000000000000000000008000000000000000000000000000000000000000000000000000000000000000000000000000000000000000000000000000000000000000000000000000000000000000000000000000000000000000000000000004000000000000000000000000000000000000000010000000000000000000000000000000000000000000004000000000",
      "type": "0x2",
      "transactionHash": "0x440ee96fe4b935b66612adfb3784337ce049f16251a3d094dc4a45af7ffd0b41",
      "transactionIndex": "0x1",
      "blockHash": "0xc77bdf6810c70ea9a643600ace0709ce1af224702106b8451b30fd52939ff304",
      "blockNumber": "0xce85ef6",
      "gasUsed": "0xbbcd",
      "effectiveGasPrice": "0x5f5e100",
      "from": "0xdb5af497a73620d881561edb508012a5f84e9ba2",
      "to": "0x26db702647e56b230e15687bfbc48b526e131dae",
      "contractAddress": null,
      "gasUsedForL1": "0x0",
      "l1BlockNumber": "0x9358d8",
      "timeboosted": false
    },
    {
      "status": "0x1",
      "cumulativeGasUsed": "0xb8e3",
      "logs": [
        {
          "address": "0x26db702647e56b230e15687bfbc48b526e131dae",
          "topics": [
            "0xa294d016c0db7718af815dd05b3fac66689245edf42a14556d47e40c5a92225c",
            "0x000000000000000000000000db5af497a73620d881561edb508012a5f84e9ba2"
          ],
          "data": "0x",
          "blockHash": "0x98b06974aa33cd5e9b03344c2e7d57c8d16dd691b4ddcd86aff4613aca4f8d20",
          "blockNumber": "0xce85f00",
          "blockTimestamp": "0x691cadd4",
          "transactionHash": "0x8984fab3e776da2ad3c7002b2172d586f3814fd534003a4f3ed5f650d0f98f8b",
          "transactionIndex": "0x1",
          "logIndex": "0x0",
          "removed": false
        }
      ],
      "logsBloom": "0x00000000000000000000200000000000000000000000000000000000000000000000000000000000000000000000000000000000000000000000000000000000000000000000000000000000000000000000000000000008040000000000000000000000000100000000000000000000000000000000000000008000000004000000000000000000000000000000000000000008000000000000000000080000000000000001000000000000000000000000000000000000000000000000000000000000000000000000000000000000000000000000000000000000000000000000000000000000000000000000000000000000000000000000000000000000",
      "type": "0x2",
      "transactionHash": "0x8984fab3e776da2ad3c7002b2172d586f3814fd534003a4f3ed5f650d0f98f8b",
      "transactionIndex": "0x1",
      "blockHash": "0x98b06974aa33cd5e9b03344c2e7d57c8d16dd691b4ddcd86aff4613aca4f8d20",
      "blockNumber": "0xce85f00",
      "gasUsed": "0xb8e3",
      "effectiveGasPrice": "0x5f5e100",
      "from": "0xdb5af497a73620d881561edb508012a5f84e9ba2",
      "to": "0x26db702647e56b230e15687bfbc48b526e131dae",
      "contractAddress": null,
      "gasUsedForL1": "0x0",
      "l1BlockNumber": "0x9358d8",
      "timeboosted": false
    }
  ],
  "libraries": [],
  "pending": [],
  "returns": {},
  "timestamp": 1763487188,
  "chain": 421614,
  "commit": "5b99f683"
}