{
  "transactions": [
    {
      "hash": "0x925add1b71cf0e6951ce51317e505998407778e2b0fd46815db73ba0eedc5a67",
      "transactionType": "CALL",
      "contractName": "ConditionalTokensReader",
      "contractAddress": "0xe94a1978f725cefa53487adbc588fdddf01e20ff",
      "function": "setBridgeConfig((uint32,address))",
      "arguments": [
        "(30391, 0x04aD4e8AE0F828E4BeA2C86165a7800Db499e0F5)"
      ],
      "transaction": {
        "from": "0xdb5af497a73620d881561edb508012a5f84e9ba2",
        "to": "0xe94a1978f725cefa53487adbc588fdddf01e20ff",
        "gas": "0x103a1",
        "value": "0x0",
        "input": "0x90919c2e00000000000000000000000000000000000000000000000000000000000076b700000000000000000000000004ad4e8ae0f828e4bea2c86165a7800db499e0f5",
        "nonce": "0xb",
        "chainId": "0x89"
      },
      "additionalContracts": [],
      "isFixedGasLimit": false
    },
    {
      "hash": "0x8587fa40cc69c10c0e0697fb470184502537d04e3f8079cf1d5245fc53a0a9da",
      "transactionType": "CALL",
      "contractName": "ConditionalTokensReader",
      "contractAddress": "0xe94a1978f725cefa53487adbc588fdddf01e20ff",
      "function": "setPeer(uint32,bytes32)",
      "arguments": [
        "30391",
        "0x00000000000000000000000004ad4e8ae0f828e4bea2c86165a7800db499e0f5"
      ],
      "transaction": {
        "from": "0xdb5af497a73620d881561edb508012a5f84e9ba2",
        "to": "0xe94a1978f725cefa53487adbc588fdddf01e20ff",
        "gas": "0x1104f",
        "value": "0x0",
        "input": "0x3400288b00000000000000000000000000000000000000000000000000000000000076b700000000000000000000000004ad4e8ae0f828e4bea2c86165a7800db499e0f5",
        "nonce": "0xc",
        "chainId": "0x89"
      },
      "additionalContracts": [],
      "isFixedGasLimit": false
    }
  ],
  "receipts": [
    {
      "status": "0x1",
      "cumulativeGasUsed": "0x3def101",
      "logs": [
        {
          "address": "0xe94a1978f725cefa53487adbc588fdddf01e20ff",
          "topics": [
            "0x667c4919e9f81a90720a09575224afc1e5c12c569c86afa746138907a029cd0d"
          ],
          "data": "0x00000000000000000000000000000000000000000000000000000000000076b700000000000000000000000004ad4e8ae0f828e4bea2c86165a7800db499e0f5",
          "blockHash": "0x208af6349d15aec0e32550086ffe374ad63913f87ac48f41e0f5948473cae505",
          "blockNumber": "0x4da72e8",
          "blockTimestamp": "0x696112ee",
          "transactionHash": "0x925add1b71cf0e6951ce51317e505998407778e2b0fd46815db73ba0eedc5a67",
          "transactionIndex": "0xb2",
          "logIndex": "0xd49",
          "removed": false
        },
        {
          "address": "0x0000000000000000000000000000000000001010",
          "topics": [
            "0x4dfe1bbbcf077ddc3e01291eea2d5c70c2b422b415d95645b9adcfd678cb1d63",
            "0x0000000000000000000000000000000000000000000000000000000000001010",
            "0x000000000000000000000000db5af497a73620d881561edb508012a5f84e9ba2",
            "0x0000000000000000000000007ee41d8a25641000661b1ef5e6ae8a00400466b0"
          ],
          "data": "0x0000000000000000000000000000000000000000000000000004461f43aa30000000000000000000000000000000000000000000000000001227ea5a2f74fb160000000000000000000000000000000000000000000480a7dce08622dcb0835d0000000000000000000000000000000000000000000000001223a43aebcacb160000000000000000000000000000000000000000000480a7dce4cc42205ab35d",
          "blockHash": "0x208af6349d15aec0e32550086ffe374ad63913f87ac48f41e0f5948473cae505",
          "blockNumber": "0x4da72e8",
          "blockTimestamp": "0x696112ee",
          "transactionHash": "0x925add1b71cf0e6951ce51317e505998407778e2b0fd46815db73ba0eedc5a67",
          "transactionIndex": "0xb2",
          "logIndex": "0xd4a",
          "removed": false
        }
      ],
      "logsBloom": "0x00000000000000000000000000000004000000000000000000000000000000000000000000000004000000000000000000008000000000000000000000000000000000000000000000000000000000800000000000000000000100000000000000000000008000000000000000000000000000000000000080000000000004000000000000000000020000000400000000000008000000000000000000080000200000000000000000000000000000000000000000000000000000000000004000000000000000000001000000000004000000400000000000100000000000000000000010000000000000000000000000000000000000000000004000100000",
      "type": "0x2",
      "transactionHash": "0x925add1b71cf0e6951ce51317e505998407778e2b0fd46815db73ba0eedc5a67",
      "transactionIndex": "0xb2",
      "blockHash": "0x208af6349d15aec0e32550086ffe374ad63913f87ac48f41e0f5948473cae505",
      "blockNumber": "0x4da72e8",
      "gasUsed": "0xbbf8",
      "effectiveGasPrice": "0xa62dba3c00",
      "from": "0xdb5af497a73620d881561edb508012a5f84e9ba2",
      "to": "0xe94a1978f725cefa53487adbc588fdddf01e20ff",
      "contractAddress": null
    },
    {
      "status": "0x1",
      "cumulativeGasUsed": "0x3d53f69",
      "logs": [
        {
          "address": "0xe94a1978f725cefa53487adbc588fdddf01e20ff",
          "topics": [
            "0x238399d427b947898edb290f5ff0f9109849b1c3ba196a42e35f00c50a54b98b"
          ],
          "data": "0x00000000000000000000000000000000000000000000000000000000000076b700000000000000000000000004ad4e8ae0f828e4bea2c86165a7800db499e0f5",
          "blockHash": "0x44b22c6db391987c9cef5e24ba751c8e2ebc3de603731280e1ca94c7c6f40e81",
          "blockNumber": "0x4da72e9",
          "blockTimestamp": "0x696112f0",
          "transactionHash": "0x8587fa40cc69c10c0e0697fb470184502537d04e3f8079cf1d5245fc53a0a9da",
          "transactionIndex": "0xc9",
          "logIndex": "0xc57",
          "removed": false
        },
        {
          "address": "0x0000000000000000000000000000000000001010",
          "topics": [
            "0x4dfe1bbbcf077ddc3e01291eea2d5c70c2b422b415d95645b9adcfd678cb1d63",
            "0x0000000000000000000000000000000000000000000000000000000000001010",
            "0x000000000000000000000000db5af497a73620d881561edb508012a5f84e9ba2",
            "0x0000000000000000000000007ee41d8a25641000661b1ef5e6ae8a00400466b0"
          ],
          "data": "0x00000000000000000000000000000000000000000000000000043bcca2f2540000000000000000000000000000000000000000000000000011ade5f6d936db160000000000000000000000000000000000000000000480a7f9653d21b3cfed5b00000000000000000000000000000000000000000000000011a9aa2a364487160000000000000000000000000000000000000000000480a7f96978ee56c2415b",
          "blockHash": "0x44b22c6db391987c9cef5e24ba751c8e2ebc3de603731280e1ca94c7c6f40e81",
          "blockNumber": "0x4da72e9",
          "blockTimestamp": "0x696112f0",
          "transactionHash": "0x8587fa40cc69c10c0e0697fb470184502537d04e3f8079cf1d5245fc53a0a9da",
          "transactionIndex": "0xc9",
          "logIndex": "0xc58",
          "removed": false
        }
      ],
      "logsBloom": "0x00000000000000000000000000000004000000000000000000000000000000000000000000000004000000000000000000008000000000000800000000000000000000000000000000000000000000800000000000000000000100000000000000000000008000000000000000000000000000000000000080000000000004000000000000000000020000000400000000000008000000000000000000080000200000000000000000000000000000000000000000000000000002000000004000000000000000000001000000000000000000400000000000140000000000000000000000000000000000000000000000000000000000000000000000100000",
      "type": "0x2",
      "transactionHash": "0x8587fa40cc69c10c0e0697fb470184502537d04e3f8079cf1d5245fc53a0a9da",
      "transactionIndex": "0xc9",
      "blockHash": "0x44b22c6db391987c9cef5e24ba751c8e2ebc3de603731280e1ca94c7c6f40e81",
      "blockNumber": "0x4da72e9",
      "gasUsed": "0xba32",
      "effectiveGasPrice": "0xa786a2b6ca",
      "from": "0xdb5af497a73620d881561edb508012a5f84e9ba2",
      "to": "0xe94a1978f725cefa53487adbc588fdddf01e20ff",
      "contractAddress": null
    }
  ],
  "libraries": [],
  "pending": [],
  "returns": {},
  "timestamp": 1767969521697,
  "chain": 137,
  "commit": "d1921b927"
}