{
  "transactions": [
    {
      "hash": "0x5e782d21004eecc889eb60c24f6648f30b502100bd18fd03a35178cb02dc1d3f",
      "transactionType": "CALL",
      "contractName": null,
      "contractAddress": "0x26db702647e56b230e15687bfbc48b526e131dae",
      "function": "setBridgeConfig((uint32,address))",
      "arguments": [
        "(30110, 0xC304B7052B385A631dfcC4d97206a12A346cddAd)"
      ],
      "transaction": {
        "from": "0xdb5af497a73620d881561edb508012a5f84e9ba2",
        "to": "0x26db702647e56b230e15687bfbc48b526e131dae",
        "gas": "0x112c7",
        "value": "0x0",
        "input": "0x90919c2e000000000000000000000000000000000000000000000000000000000000759e000000000000000000000000c304b7052b385a631dfcc4d97206a12a346cddad",
        "nonce": "0x1",
        "chainId": "0x89"
      },
      "additionalContracts": [],
      "isFixedGasLimit": false
    },
    {
      "hash": "0xb0e1e09ad8632fbd01b8e21681ec62621c9deb4c97d1f3fba5b07ef28660923e",
      "transactionType": "CALL",
      "contractName": null,
      "contractAddress": "0x26db702647e56b230e15687bfbc48b526e131dae",
      "function": "setPeer(uint32,bytes32)",
      "arguments": [
        "30110",
        "0x000000000000000000000000c304b7052b385a631dfcc4d97206a12a346cddad"
      ],
      "transaction": {
        "from": "0xdb5af497a73620d881561edb508012a5f84e9ba2",
        "to": "0x26db702647e56b230e15687bfbc48b526e131dae",
        "gas": "0x1010f",
        "value": "0x0",
        "input": "0x3400288b000000000000000000000000000000000000000000000000000000000000759e000000000000000000000000c304b7052b385a631dfcc4d97206a12a346cddad",
        "nonce": "0x2",
        "chainId": "0x89"
      },
      "additionalContracts": [],
      "isFixedGasLimit": false
    }
  ],
  "receipts": [
    {
      "status": "0x1",
      "cumulativeGasUsed": "0x18e22a7",
      "logs": [
        {
          "address": "0x26db702647e56b230e15687bfbc48b526e131dae",
          "topics": [
            "0x667c4919e9f81a90720a09575224afc1e5c12c569c86afa746138907a029cd0d"
          ],
          "data": "0x000000000000000000000000000000000000000000000000000000000000759e000000000000000000000000c304b7052b385a631dfcc4d97206a12a346cddad",
          "blockHash": "0xf89cd17062b481bc86e8840a23d9f18d928ec0c86929263d50428a18a25ec53f",
          "blockNumber": "0x4d91ea7",
          "blockTimestamp": "0x695e6a69",
          "transactionHash": "0x5e782d21004eecc889eb60c24f6648f30b502100bd18fd03a35178cb02dc1d3f",
          "transactionIndex": "0x79",
          "logIndex": "0x58d",
          "removed": false
        },
        {
          "address": "0x0000000000000000000000000000000000001010",
          "topics": [
            "0x4dfe1bbbcf077ddc3e01291eea2d5c70c2b422b415d95645b9adcfd678cb1d63",
            "0x0000000000000000000000000000000000000000000000000000000000001010",
            "0x000000000000000000000000db5af497a73620d881561edb508012a5f84e9ba2",
            "0x0000000000000000000000007ee41d8a25641000661b1ef5e6ae8a00400466b0"
          ],
          "data": "0x0000000000000000000000000000000000000000000000000005b225e08686800000000000000000000000000000000000000000000000002fae2a68548dd6d40000000000000000000000000000000000000000000458860ad24a5ab870241c0000000000000000000000000000000000000000000000002fa87842740750540000000000000000000000000000000000000000000458860ad7fc8098f6aa9c",
          "blockHash": "0xf89cd17062b481bc86e8840a23d9f18d928ec0c86929263d50428a18a25ec53f",
          "blockNumber": "0x4d91ea7",
          "blockTimestamp": "0x695e6a69",
          "transactionHash": "0x5e782d21004eecc889eb60c24f6648f30b502100bd18fd03a35178cb02dc1d3f",
          "transactionIndex": "0x79",
          "logIndex": "0x58e",
          "removed": false
        }
      ],
      "logsBloom": "0x00000000000000000000200000000000000000000000000000000000000000000000000000000000000000000000000000008000000000000000000000000000000000000000000000000000000000800000000000000000000100000000000000000000000100000000000000000000000000000000000080008000000004000000000000000000020000000400000000000008000000000000000000080000200000000000000000000000000000000000000000000000000000000000004000000000000000000001000000000004000000400000000000100000000000000000000010000000000000000000000000000000000000000000004000100000",
      "type": "0x2",
      "transactionHash": "0x5e782d21004eecc889eb60c24f6648f30b502100bd18fd03a35178cb02dc1d3f",
      "transactionIndex": "0x79",
      "blockHash": "0xf89cd17062b481bc86e8840a23d9f18d928ec0c86929263d50428a18a25ec53f",
      "blockNumber": "0x4d91ea7",
      "gasUsed": "0xbbe2",
      "effectiveGasPrice": "0xc9135d2043",
      "from": "0xdb5af497a73620d881561edb508012a5f84e9ba2",
      "to": "0x26db702647e56b230e15687bfbc48b526e131dae",
      "contractAddress": null
    },
    {
      "status": "0x1",
      "cumulativeGasUsed": "0x18edcc3",
      "logs": [
        {
          "address": "0x26db702647e56b230e15687bfbc48b526e131dae",
          "topics": [
            "0x238399d427b947898edb290f5ff0f9109849b1c3ba196a42e35f00c50a54b98b"
          ],
          "data": "0x000000000000000000000000000000000000000000000000000000000000759e000000000000000000000000c304b7052b385a631dfcc4d97206a12a346cddad",
          "blockHash": "0xf89cd17062b481bc86e8840a23d9f18d928ec0c86929263d50428a18a25ec53f",
          "blockNumber": "0x4d91ea7",
          "blockTimestamp": "0x695e6a69",
          "transactionHash": "0xb0e1e09ad8632fbd01b8e21681ec62621c9deb4c97d1f3fba5b07ef28660923e",
          "transactionIndex": "0x7a",
          "logIndex": "0x58f",
          "removed": false
        },
        {
          "address": "0x0000000000000000000000000000000000001010",
          "topics": [
            "0x4dfe1bbbcf077ddc3e01291eea2d5c70c2b422b415d95645b9adcfd678cb1d63",
            "0x0000000000000000000000000000000000000000000000000000000000001010",
            "0x000000000000000000000000db5af497a73620d881561edb508012a5f84e9ba2",
            "0x0000000000000000000000007ee41d8a25641000661b1ef5e6ae8a00400466b0"
          ],
          "data": "0x0000000000000000000000000000000000000000000000000005a46268968b000000000000000000000000000000000000000000000000002f1a97c035c66aae0000000000000000000000000000000000000000000458860ad7fc8098f6aa9c0000000000000000000000000000000000000000000000002f14f35dcd2fdfae0000000000000000000000000000000000000000000458860adda0e3018d359c",
          "blockHash": "0xf89cd17062b481bc86e8840a23d9f18d928ec0c86929263d50428a18a25ec53f",
          "blockNumber": "0x4d91ea7",
          "blockTimestamp": "0x695e6a69",
          "transactionHash": "0xb0e1e09ad8632fbd01b8e21681ec62621c9deb4c97d1f3fba5b07ef28660923e",
          "transactionIndex": "0x7a",
          "logIndex": "0x590",
          "removed": false
        }
      ],
      "logsBloom": "0x00000000000000000000200000000000000000000000000000000000000000000000000000000000000000000000000000008000000000000800000000000000000000000000000000000000000000800000000000000000000100000000000000000000000100000000000000000000000000000000000080008000000004000000000000000000020000000400000000000008000000000000000000080000200000000000000000000000000000000000000000000000000002000000004000000000000000000001000000000000000000400000000000140000000000000000000000000000000000000000000000000000000000000000000000100000",
      "type": "0x2",
      "transactionHash": "0xb0e1e09ad8632fbd01b8e21681ec62621c9deb4c97d1f3fba5b07ef28660923e",
      "transactionIndex": "0x7a",
      "blockHash": "0xf89cd17062b481bc86e8840a23d9f18d928ec0c86929263d50428a18a25ec53f",
      "blockNumber": "0x4d91ea7",
      "gasUsed": "0xba1c",
      "effectiveGasPrice": "0xc9135d2043",
      "from": "0xdb5af497a73620d881561edb508012a5f84e9ba2",
      "to": "0x26db702647e56b230e15687bfbc48b526e131dae",
      "contractAddress": null
    }
  ],
  "libraries": [],
  "pending": [],
  "returns": {},
  "timestamp": 1767795307,
  "chain": 137,
  "commit": "7a32c6575"
}