{
  "transactions": [
    {
      "hash": "0x80854edbd4f68d0780f87a5ccffd69fd2acd5518577668eaaddfa69cb6de8cb4",
      "transactionType": "CALL",
      "contractName": null,
      "contractAddress": "0x04ad4e8ae0f828e4bea2c86165a7800db499e0f5",
      "function": "setBridgeConfig((uint32,address))",
      "arguments": [
        "(30109, 0xE94a1978F725cEfA53487aDbc588FDDDF01e20ff)"
      ],
      "transaction": {
        "from": "0x6a225f09e0ebe597f79e86875b3704325d40c84d",
        "to": "0x04ad4e8ae0f828e4bea2c86165a7800db499e0f5",
        "gas": "0x103de",
        "value": "0x0",
        "input": "0x90919c2e000000000000000000000000000000000000000000000000000000000000759d000000000000000000000000e94a1978f725cefa53487adbc588fdddf01e20ff",
        "nonce": "0x1d",
        "chainId": "0x4d454e"
      },
      "additionalContracts": [],
      "isFixedGasLimit": false
    },
    {
      "hash": "0x96ca6ed009352da42cb3a3058562b40a7344f7c60b8bd92250d6b5288acf1436",
      "transactionType": "CALL",
      "contractName": null,
      "contractAddress": "0x04ad4e8ae0f828e4bea2c86165a7800db499e0f5",
      "function": "setPeer(uint32,bytes32)",
      "arguments": [
        "30109",
        "0x000000000000000000000000e94a1978f725cefa53487adbc588fdddf01e20ff"
      ],
      "transaction": {
        "from": "0x6a225f09e0ebe597f79e86875b3704325d40c84d",
        "to": "0x04ad4e8ae0f828e4bea2c86165a7800db499e0f5",
        "gas": "0x1102d",
        "value": "0x0",
        "input": "0x3400288b000000000000000000000000000000000000000000000000000000000000759d000000000000000000000000e94a1978f725cefa53487adbc588fdddf01e20ff",
        "nonce": "0x1e",
        "chainId": "0x4d454e"
      },
      "additionalContracts": [],
      "isFixedGasLimit": false
    }
  ],
  "receipts": [
    {
      "status": "0x1",
      "cumulativeGasUsed": "0xbc24",
      "logs": [
        {
          "address": "0x04ad4e8ae0f828e4bea2c86165a7800db499e0f5",
          "topics": [
            "0x667c4919e9f81a90720a09575224afc1e5c12c569c86afa746138907a029cd0d"
          ],
          "data": "0x000000000000000000000000000000000000000000000000000000000000759d000000000000000000000000e94a1978f725cefa53487adbc588fdddf01e20ff",
          "blockHash": "0x84cab91b0129f115a3a05aa7fa9447fbdace4cef9bbf5f076cbab75d56facbdf",
          "blockNumber": "0x1678a2",
          "blockTimestamp": "0x696112ff",
          "transactionHash": "0x80854edbd4f68d0780f87a5ccffd69fd2acd5518577668eaaddfa69cb6de8cb4",
          "transactionIndex": "0x1",
          "logIndex": "0x0",
          "removed": false
        }
      ],
      "logsBloom": "0x00000000000000000000000000000000000000000000000000000000000000000000000000000000000000000000000000000000000000000000000000000000000000000000000000000000000000000000000000000000000000000000000000000000000000000000000000000000000000000000000000000000000000000000000000000020000000000000000000000000000000000000000000000000000000000000000000000000000000000000000000000000000000000000000000000000000000000000000000000004000000000000000000000000000000000000000010000000000000000000020000000000000000000000004000000002",
      "type": "0x2",
      "transactionHash": "0x80854edbd4f68d0780f87a5ccffd69fd2acd5518577668eaaddfa69cb6de8cb4",
      "transactionIndex": "0x1",
      "blockHash": "0x84cab91b0129f115a3a05aa7fa9447fbdace4cef9bbf5f076cbab75d56facbdf",
      "blockNumber": "0x1678a2",
      "gasUsed": "0xbc24",
      "effectiveGasPrice": "0x989680",
      "from": "0x6a225f09e0ebe597f79e86875b3704325d40c84d",
      "to": "0x04ad4e8ae0f828e4bea2c86165a7800db499e0f5",
      "contractAddress": null,
      "gasUsedForL1": "0x0",
      "l1BlockNumber": "0x1713a8d"
    },
    {
      "status": "0x1",
      "cumulativeGasUsed": "0xba1b",
      "logs": [
        {
          "address": "0x04ad4e8ae0f828e4bea2c86165a7800db499e0f5",
          "topics": [
            "0x238399d427b947898edb290f5ff0f9109849b1c3ba196a42e35f00c50a54b98b"
          ],
          "data": "0x000000000000000000000000000000000000000000000000000000000000759d000000000000000000000000e94a1978f725cefa53487adbc588fdddf01e20ff",
          "blockHash": "0x2014c4ec94372c316b53febe8df677cd52b1415bf213e29a7439a6283e9c885c",
          "blockNumber": "0x1678a3",
          "blockTimestamp": "0x696112ff",
          "transactionHash": "0x96ca6ed009352da42cb3a3058562b40a7344f7c60b8bd92250d6b5288acf1436",
          "transactionIndex": "0x1",
          "logIndex": "0x0",
          "removed": false
        }
      ],
      "logsBloom": "0x00000000000000000000000000000000000000000000000000000000000000000000000000000000000000000000000000000000000000000800000000000000000000000000000000000000000000000000000000000000000000000000000000000000000000000000000000000000000000000000000000000000000000000000000000000020000000000000000000000000000000000000000000000000000000000000000000000000000000000000000000000000000002000000000000000000000000000000000000000000000000000000000000040000000000000000000000000000000000000000020000000000000000000000000000000002",
      "type": "0x2",
      "transactionHash": "0x96ca6ed009352da42cb3a3058562b40a7344f7c60b8bd92250d6b5288acf1436",
      "transactionIndex": "0x1",
      "blockHash": "0x2014c4ec94372c316b53febe8df677cd52b1415bf213e29a7439a6283e9c885c",
      "blockNumber": "0x1678a3",
      "gasUsed": "0xba1b",
      "effectiveGasPrice": "0x989680",
      "from": "0x6a225f09e0ebe597f79e86875b3704325d40c84d",
      "to": "0x04ad4e8ae0f828e4bea2c86165a7800db499e0f5",
      "contractAddress": null,
      "gasUsedForL1": "0x0",
      "l1BlockNumber": "0x1713a8d"
    }
  ],
  "libraries": [],
  "pending": [],
  "returns": {},
  "timestamp": 1767969535861,
  "chain": 5064014,
  "commit": "d1921b927"
}