{
  "transactions": [
    {
      "hash": "0x21341584838e4bbd3de45e534eff03404c7e5f54e60852506d60b8290f361f1e",
      "transactionType": "CALL",
      "contractName": null,
      "contractAddress": "0x6f475642a6e85809b1c36fa62763669b1b48dd5b",
      "function": "setConfig(address,address,(uint32,uint32,bytes)[])",
      "arguments": [
        "0x04aD4e8AE0F828E4BeA2C86165a7800Db499e0F5",
        "0xe1844c5D63a9543023008D332Bd3d2e6f1FE1043",
        "[(30109, 2, 0x0000000000000000000000000000000000000000000000000000000000000020000000000000000000000000000000000000000000000000000000000000000200000000000000000000000000000000000000000000000000000000000000010000000000000000000000000000000000000000000000000000000000000000000000000000000000000000000000000000000000000000000000000000000000000000000000000000000000000000000000000000000000000000000000c000000000000000000000000000000000000000000000000000000000000001000000000000000000000000000000000000000000000000000000000000000001000000000000000000000000282b3386571f7f794450d5789911a9804fa346b40000000000000000000000000000000000000000000000000000000000000000)]"
      ],
      "transaction": {
        "from": "0x6a225f09e0ebe597f79e86875b3704325d40c84d",
        "to": "0x6f475642a6e85809b1c36fa62763669b1b48dd5b",
        "gas": "0x13ed4",
        "value": "0x0",
        "input": "0x6dbd9f9000000000000000000000000004ad4e8ae0f828e4bea2c86165a7800db499e0f5000000000000000000000000e1844c5d63a9543023008d332bd3d2e6f1fe1043000000000000000000000000000000000000000000000000000000000000006000000000000000000000000000000000000000000000000000000000000000010000000000000000000000000000000000000000000000000000000000000020000000000000000000000000000000000000000000000000000000000000759d0000000000000000000000000000000000000000000000000000000000000002000000000000000000000000000000000000000000000000000000000000006000000000000000000000000000000000000000000000000000000000000001400000000000000000000000000000000000000000000000000000000000000020000000000000000000000000000000000000000000000000000000000000000200000000000000000000000000000000000000000000000000000000000000010000000000000000000000000000000000000000000000000000000000000000000000000000000000000000000000000000000000000000000000000000000000000000000000000000000000000000000000000000000000000000000000c000000000000000000000000000000000000000000000000000000000000001000000000000000000000000000000000000000000000000000000000000000001000000000000000000000000282b3386571f7f794450d5789911a9804fa346b40000000000000000000000000000000000000000000000000000000000000000",
        "nonce": "0x1f",
        "chainId": "0x4d454e"
      },
      "additionalContracts": [],
      "isFixedGasLimit": false
    }
  ],
  "receipts": [
    {
      "status": "0x1",
      "cumulativeGasUsed": "0xda01",
      "logs": [
        {
          "address": "0xe1844c5d63a9543023008d332bd3d2e6f1fe1043",
          "topics": [
            "0x82118522aa536ac0e96cc5c689407ae42b89d592aa133890a01f1509842f5081"
          ],
          "data": "0x00000000000000000000000004ad4e8ae0f828e4bea2c86165a7800db499e0f5000000000000000000000000000000000000000000000000000000000000759d0000000000000000000000000000000000000000000000000000000000000060000000000000000000000000000000000000000000000000000000000000000200000000000000000000000000000000000000000000000000000000000000010000000000000000000000000000000000000000000000000000000000000000000000000000000000000000000000000000000000000000000000000000000000000000000000000000000000000000000000000000000000000000000000c000000000000000000000000000000000000000000000000000000000000001000000000000000000000000000000000000000000000000000000000000000001000000000000000000000000282b3386571f7f794450d5789911a9804fa346b40000000000000000000000000000000000000000000000000000000000000000",
          "blockHash": "0x26e2d20835f8286d41478a249cb98a0d1a587db01be7aa0b3fb64b4dad080b74",
          "blockNumber": "0x16791d",
          "blockTimestamp": "0x6961137f",
          "transactionHash": "0x21341584838e4bbd3de45e534eff03404c7e5f54e60852506d60b8290f361f1e",
          "transactionIndex": "0x1",
          "logIndex": "0x0",
          "removed": false
        }
      ],
      "logsBloom": "0x00000000000000000000000000000000020000000000000000000000000000000000000000000000000000000000000000000000000000000000000000000000000000000000000000000000000000000000000000000000002000000000000000000000000000000000000000000000000000000000000000000000000000000000000000000000000000000000000000000000000000000000000000000000000000000000000000000002000000000000000000000000000000000000000000000000000000000000000000000000000000008000000000000000000000000000000000000002000000000000000000000000000000000000000000000010",
      "type": "0x2",
      "transactionHash": "0x21341584838e4bbd3de45e534eff03404c7e5f54e60852506d60b8290f361f1e",
      "transactionIndex": "0x1",
      "blockHash": "0x26e2d20835f8286d41478a249cb98a0d1a587db01be7aa0b3fb64b4dad080b74",
      "blockNumber": "0x16791d",
      "gasUsed": "0xda01",
      "effectiveGasPrice": "0x989680",
      "from": "0x6a225f09e0ebe597f79e86875b3704325d40c84d",
      "to": "0x6f475642a6e85809b1c36fa62763669b1b48dd5b",
      "contractAddress": null,
      "gasUsedForL1": "0x0",
      "l1BlockNumber": "0x1713a97"
    }
  ],
  "libraries": [],
  "pending": [],
  "returns": {},
  "timestamp": 1767969664176,
  "chain": 5064014,
  "commit": "d1921b927"
}