{
  "transactions": [
    {
      "hash": "0xbe331a56e75465de9037e8654086853cf5a875c70e412d28239ff1a4a79cabf8",
      "transactionType": "CALL",
      "contractName": null,
      "contractAddress": "0x6f475642a6e85809b1c36fa62763669b1b48dd5b",
      "function": "setConfig(address,address,(uint32,uint32,bytes)[])",
      "arguments": [
        "0x04aD4e8AE0F828E4BeA2C86165a7800Db499e0F5",
        "0xe1844c5D63a9543023008D332Bd3d2e6f1FE1043",
        "[(30109, 2, 0x0000000000000000000000000000000000000000000000000000000000000020000000000000000000000000000000000000000000000000000000000000000a00000000000000000000000000000000000000000000000000000000000000010000000000000000000000000000000000000000000000000000000000000000000000000000000000000000000000000000000000000000000000000000000000000000000000000000000000000000000000000000000000000000000000c0000000000000000000000000000000000000000000000000000000000000010000000000000000000000000000000000000000000000000000000000000000010000000000000000000000002afa3787cd95fee5d5753cd717ef228eb259f4ea0000000000000000000000000000000000000000000000000000000000000000)]"
      ],
      "transaction": {
        "from": "0x6a225f09e0ebe597f79e86875b3704325d40c84d",
        "to": "0x6f475642a6e85809b1c36fa62763669b1b48dd5b",
        "gas": "0x14ed3",
        "value": "0x0",
        "input": "0x6dbd9f9000000000000000000000000004ad4e8ae0f828e4bea2c86165a7800db499e0f5000000000000000000000000e1844c5d63a9543023008d332bd3d2e6f1fe1043000000000000000000000000000000000000000000000000000000000000006000000000000000000000000000000000000000000000000000000000000000010000000000000000000000000000000000000000000000000000000000000020000000000000000000000000000000000000000000000000000000000000759d0000000000000000000000000000000000000000000000000000000000000002000000000000000000000000000000000000000000000000000000000000006000000000000000000000000000000000000000000000000000000000000001400000000000000000000000000000000000000000000000000000000000000020000000000000000000000000000000000000000000000000000000000000000a00000000000000000000000000000000000000000000000000000000000000010000000000000000000000000000000000000000000000000000000000000000000000000000000000000000000000000000000000000000000000000000000000000000000000000000000000000000000000000000000000000000000000c0000000000000000000000000000000000000000000000000000000000000010000000000000000000000000000000000000000000000000000000000000000010000000000000000000000002afa3787cd95fee5d5753cd717ef228eb259f4ea0000000000000000000000000000000000000000000000000000000000000000",
        "nonce": "0x21",
        "chainId": "0x4d454e"
      },
      "additionalContracts": [],
      "isFixedGasLimit": false
    }
  ],
  "receipts": [
    {
      "status": "0x1",
      "cumulativeGasUsed": "0xe4f1",
      "logs": [
        {
          "address": "0xe1844c5d63a9543023008d332bd3d2e6f1fe1043",
          "topics": [
            "0x82118522aa536ac0e96cc5c689407ae42b89d592aa133890a01f1509842f5081"
          ],
          "data": "0x00000000000000000000000004ad4e8ae0f828e4bea2c86165a7800db499e0f5000000000000000000000000000000000000000000000000000000000000759d0000000000000000000000000000000000000000000000000000000000000060000000000000000000000000000000000000000000000000000000000000000a00000000000000000000000000000000000000000000000000000000000000010000000000000000000000000000000000000000000000000000000000000000000000000000000000000000000000000000000000000000000000000000000000000000000000000000000000000000000000000000000000000000000000c0000000000000000000000000000000000000000000000000000000000000010000000000000000000000000000000000000000000000000000000000000000010000000000000000000000002afa3787cd95fee5d5753cd717ef228eb259f4ea0000000000000000000000000000000000000000000000000000000000000000",
          "blockHash": "0x66e8a256b344b4eef5d3b50f23090f5c7dedd34d1744b765925a36d0ab2bc591",
          "blockNumber": "0x1682ac",
          "blockTimestamp": "0x69611e02",
          "transactionHash": "0xbe331a56e75465de9037e8654086853cf5a875c70e412d28239ff1a4a79cabf8",
          "transactionIndex": "0x1",
          "logIndex": "0x0",
          "removed": false
        }
      ],
      "logsBloom": "0x00000000000000000000000000000000020000000000000000000000000000000000000000000000000000000000000000000000000000000000000000000000000000000000000000000000000000000000000000000000002000000000000000000000000000000000000000000000000000000000000000000000000000000000000000000000000000000000000000000000000000000000000000000000000000000000000000000002000000000000000000000000000000000000000000000000000000000000000000000000000000008000000000000000000000000000000000000002000000000000000000000000000000000000000000000010",
      "type": "0x2",
      "transactionHash": "0xbe331a56e75465de9037e8654086853cf5a875c70e412d28239ff1a4a79cabf8",
      "transactionIndex": "0x1",
      "blockHash": "0x66e8a256b344b4eef5d3b50f23090f5c7dedd34d1744b765925a36d0ab2bc591",
      "blockNumber": "0x1682ac",
      "gasUsed": "0xe4f1",
      "effectiveGasPrice": "0x989680",
      "from": "0x6a225f09e0ebe597f79e86875b3704325d40c84d",
      "to": "0x6f475642a6e85809b1c36fa62763669b1b48dd5b",
      "contractAddress": null,
      "gasUsedForL1": "0x0",
      "l1BlockNumber": "0x1713b76"
    }
  ],
  "libraries": [],
  "pending": [],
  "returns": {},
  "timestamp": 1767972355711,
  "chain": 5064014,
  "commit": "968fa6650"
}