{
  "transactions": [
    {
      "hash": "0x52af952b08866d81cea579c0dd9e1f34da2b7ec918e74f4bf80c8f87bf57b91c",
      "transactionType": "CALL",
      "contractName": null,
      "contractAddress": "0x6f475642a6e85809b1c36fa62763669b1b48dd5b",
      "function": "setReceiveLibrary(address,uint32,address,uint256)",
      "arguments": [
        "0x04aD4e8AE0F828E4BeA2C86165a7800Db499e0F5",
        "30109",
        "0xe1844c5D63a9543023008D332Bd3d2e6f1FE1043",
        "0"
      ],
      "transaction": {
        "from": "0x6a225f09e0ebe597f79e86875b3704325d40c84d",
        "to": "0x6f475642a6e85809b1c36fa62763669b1b48dd5b",
        "gas": "0x15b7f",
        "value": "0x0",
        "input": "0x6a14d71500000000000000000000000004ad4e8ae0f828e4bea2c86165a7800db499e0f5000000000000000000000000000000000000000000000000000000000000759d000000000000000000000000e1844c5d63a9543023008d332bd3d2e6f1fe10430000000000000000000000000000000000000000000000000000000000000000",
        "nonce": "0x1a",
        "chainId": "0x4d454e"
      },
      "additionalContracts": [],
      "isFixedGasLimit": false
    },
    {
      "hash": "0xb066445256992ada465ac4e68b339dafafef485eadafa44e180f0e8feef64b14",
      "transactionType": "CALL",
      "contractName": null,
      "contractAddress": "0x6f475642a6e85809b1c36fa62763669b1b48dd5b",
      "function": "setConfig(address,address,(uint32,uint32,bytes)[])",
      "arguments": [
        "0x04aD4e8AE0F828E4BeA2C86165a7800Db499e0F5",
        "0xe1844c5D63a9543023008D332Bd3d2e6f1FE1043",
        "[(30109, 2, 0x0000000000000000000000000000000000000000000000000000000000000020000000000000000000000000000000000000000000000000000000000000000200000000000000000000000000000000000000000000000000000000000000010000000000000000000000000000000000000000000000000000000000000000000000000000000000000000000000000000000000000000000000000000000000000000000000000000000000000000000000000000000000000000000000c00000000000000000000000000000000000000000000000000000000000000100000000000000000000000000000000000000000000000000000000000000000100000000000000000000000043cfcc293cdf99f7d021f21ffd443f174ab0e8430000000000000000000000000000000000000000000000000000000000000000)]"
      ],
      "transaction": {
        "from": "0x6a225f09e0ebe597f79e86875b3704325d40c84d",
        "to": "0x6f475642a6e85809b1c36fa62763669b1b48dd5b",
        "gas": "0x26f3a",
        "value": "0x0",
        "input": "0x6dbd9f9000000000000000000000000004ad4e8ae0f828e4bea2c86165a7800db499e0f5000000000000000000000000e1844c5d63a9543023008d332bd3d2e6f1fe1043000000000000000000000000000000000000000000000000000000000000006000000000000000000000000000000000000000000000000000000000000000010000000000000000000000000000000000000000000000000000000000000020000000000000000000000000000000000000000000000000000000000000759d0000000000000000000000000000000000000000000000000000000000000002000000000000000000000000000000000000000000000000000000000000006000000000000000000000000000000000000000000000000000000000000001400000000000000000000000000000000000000000000000000000000000000020000000000000000000000000000000000000000000000000000000000000000200000000000000000000000000000000000000000000000000000000000000010000000000000000000000000000000000000000000000000000000000000000000000000000000000000000000000000000000000000000000000000000000000000000000000000000000000000000000000000000000000000000000000c00000000000000000000000000000000000000000000000000000000000000100000000000000000000000000000000000000000000000000000000000000000100000000000000000000000043cfcc293cdf99f7d021f21ffd443f174ab0e8430000000000000000000000000000000000000000000000000000000000000000",
        "nonce": "0x1b",
        "chainId": "0x4d454e"
      },
      "additionalContracts": [],
      "isFixedGasLimit": false
    }
  ],
  "receipts": [
    {
      "status": "0x1",
      "cumulativeGasUsed": "0xfb95",
      "logs": [
        {
          "address": "0x6f475642a6e85809b1c36fa62763669b1b48dd5b",
          "topics": [
            "0xcd6f92f5ac6185a5acfa02c92090746cec64d777269cbcd0ed031e396657a1c2"
          ],
          "data": "0x00000000000000000000000004ad4e8ae0f828e4bea2c86165a7800db499e0f5000000000000000000000000000000000000000000000000000000000000759d000000000000000000000000e1844c5d63a9543023008d332bd3d2e6f1fe1043",
          "blockHash": "0x8ef20dfa794b51a51b711d962a53062a6c10db008d3d9c4d801bdd9358b3f538",
          "blockNumber": "0x161948",
          "blockTimestamp": "0x6960223d",
          "transactionHash": "0xb066445256992ada465ac4e68b339dafafef485eadafa44e180f0e8feef64b14",
          "transactionIndex": "0x1",
          "logIndex": "0x0",
          "removed": false
        },
        {
          "address": "0x6f475642a6e85809b1c36fa62763669b1b48dd5b",
          "topics": [
            "0x4e0a5bbfa0c11a64effb1ada324b5437a17272e1aed9320398715ef71bb20928"
          ],
          "data": "0x00000000000000000000000004ad4e8ae0f828e4bea2c86165a7800db499e0f5000000000000000000000000000000000000000000000000000000000000759d00000000000000000000000000000000000000000000000000000000000000000000000000000000000000000000000000000000000000000000000000000000",
          "blockHash": "0x8ef20dfa794b51a51b711d962a53062a6c10db008d3d9c4d801bdd9358b3f538",
          "blockNumber": "0x161948",
          "blockTimestamp": "0x6960223d",
          "transactionHash": "0xb066445256992ada465ac4e68b339dafafef485eadafa44e180f0e8feef64b14",
          "transactionIndex": "0x1",
          "logIndex": "0x1",
          "removed": false
        }
      ],
      "logsBloom": "0x00000000000000000000020800000000000000000000000000000000000000020400000000000000000000000000000000000000000000000000000000000000000000000000000000000000000000000140000000800000000000000000000000000000000000000000000000000000000000000000000000000000000000100000000000000000000000000000000000000000000000000000000000000000000000000000000000000000000000000000000000000000000000000000000000000000000000000000000000000000000000000000000000000000000000004000000000000000000000000000000000000000000000000000000000000000",
      "type": "0x2",
      "transactionHash": "0xb066445256992ada465ac4e68b339dafafef485eadafa44e180f0e8feef64b14",
      "transactionIndex": "0x1",
      "blockHash": "0x8ef20dfa794b51a51b711d962a53062a6c10db008d3d9c4d801bdd9358b3f538",
      "blockNumber": "0x161948",
      "gasUsed": "0xfb95",
      "effectiveGasPrice": "0x989680",
      "from": "0x6a225f09e0ebe597f79e86875b3704325d40c84d",
      "to": "0x6f475642a6e85809b1c36fa62763669b1b48dd5b",
      "contractAddress": null,
      "gasUsedForL1": "0x0",
      "l1BlockNumber": "0x1712692"
    },
    {
      "status": "0x1",
      "cumulativeGasUsed": "0x2beca",
      "logs": [
        {
          "address": "0xe1844c5d63a9543023008d332bd3d2e6f1fe1043",
          "topics": [
            "0x82118522aa536ac0e96cc5c689407ae42b89d592aa133890a01f1509842f5081"
          ],
          "data": "0x00000000000000000000000004ad4e8ae0f828e4bea2c86165a7800db499e0f5000000000000000000000000000000000000000000000000000000000000759d0000000000000000000000000000000000000000000000000000000000000060000000000000000000000000000000000000000000000000000000000000000200000000000000000000000000000000000000000000000000000000000000010000000000000000000000000000000000000000000000000000000000000000000000000000000000000000000000000000000000000000000000000000000000000000000000000000000000000000000000000000000000000000000000c00000000000000000000000000000000000000000000000000000000000000100000000000000000000000000000000000000000000000000000000000000000100000000000000000000000043cfcc293cdf99f7d021f21ffd443f174ab0e8430000000000000000000000000000000000000000000000000000000000000000",
          "blockHash": "0x8ef20dfa794b51a51b711d962a53062a6c10db008d3d9c4d801bdd9358b3f538",
          "blockNumber": "0x161948",
          "blockTimestamp": "0x6960223d",
          "transactionHash": "0x52af952b08866d81cea579c0dd9e1f34da2b7ec918e74f4bf80c8f87bf57b91c",
          "transactionIndex": "0x2",
          "logIndex": "0x2",
          "removed": false
        }
      ],
      "logsBloom": "0x00000000000000000000000000000000020000000000000000000000000000000000000000000000000000000000000000000000000000000000000000000000000000000000000000000000000000000000000000000000002000000000000000000000000000000000000000000000000000000000000000000000000000000000000000000000000000000000000000000000000000000000000000000000000000000000000000000002000000000000000000000000000000000000000000000000000000000000000000000000000000008000000000000000000000000000000000000002000000000000000000000000000000000000000000000010",
      "type": "0x2",
      "transactionHash": "0x52af952b08866d81cea579c0dd9e1f34da2b7ec918e74f4bf80c8f87bf57b91c",
      "transactionIndex": "0x2",
      "blockHash": "0x8ef20dfa794b51a51b711d962a53062a6c10db008d3d9c4d801bdd9358b3f538",
      "blockNumber": "0x161948",
      "gasUsed": "0x1c335",
      "effectiveGasPrice": "0x989680",
      "from": "0x6a225f09e0ebe597f79e86875b3704325d40c84d",
      "to": "0x6f475642a6e85809b1c36fa62763669b1b48dd5b",
      "contractAddress": null,
      "gasUsedForL1": "0x0",
      "l1BlockNumber": "0x1712692"
    }
  ],
  "libraries": [],
  "pending": [],
  "returns": {},
  "timestamp": 1767907901986,
  "chain": 5064014,
  "commit": "0b62887c8"
}