{
  "transactions": [
    {
      "hash": "0x3433345b93f030ea48b64497d7256a37635fd7d5d1f2d0c4475b7c5d307dbf94",
      "transactionType": "CALL",
      "contractName": null,
      "contractAddress": "0x4716338fcf8c0b2d8358dcb9c0e020cc6a25e8ef",
      "function": "sendValue(uint256)",
      "arguments": [
        "12345"
      ],
      "transaction": {
        "from": "0xefa0e8aa84a713f6a6d4de8cc761fe86c5957d72",
        "to": "0x4716338fcf8c0b2d8358dcb9c0e020cc6a25e8ef",
        "gas": "0x5fcce",
        "value": "0x1d8a609254be",
        "input": "0x675632680000000000000000000000000000000000000000000000000000000000003039",
        "nonce": "0x24",
        "chainId": "0x2105"
      },
      "additionalContracts": [],
      "isFixedGasLimit": false
    }
  ],
  "receipts": [
    {
      "status": "0x1",
      "cumulativeGasUsed": "0xaf40ef",
      "logs": [
        {
          "address": "0xb5320b0b3a13cc860893e2bd79fcd7e13484dda2",
          "topics": [
            "0x61ed099e74a97a1d7f8bb0952a88ca8b7b8ebd00c126ea04671f92a81213318a"
          ],
          "data": "0x0000000000000000000000002cca08ae69e0c44b18a57ab2a87644234daebae400000000000000000000000000000000000000000000000000001927eef1dcbe",
          "blockHash": "0x814f83f280ec0a65d67ff493b8b6ac701a3e1633495c2ee1a9ddce4459b15167",
          "blockNumber": "0x25f70fd",
          "blockTimestamp": "0x69493edd",
          "transactionHash": "0x3433345b93f030ea48b64497d7256a37635fd7d5d1f2d0c4475b7c5d307dbf94",
          "transactionIndex": "0x32",
          "logIndex": "0x130",
          "removed": false
        },
        {
          "address": "0xb5320b0b3a13cc860893e2bd79fcd7e13484dda2",
          "topics": [
            "0x07ea52d82345d6e838192107d8fd7123d9c2ec8e916cd0aad13fd2b60db24644"
          ],
          "data": "0x000000000000000000000000000000000000000000000000000000000000006000000000000000000000000000000000000000000000000000000000000000a000000000000000000000000000000000000000000000000000000000000000c000000000000000000000000000000000000000000000000000000000000000010000000000000000000000009e059a54699a285714207b43b055483e78faac25000000000000000000000000000000000000000000000000000000000000000000000000000000000000000000000000000000000000000000000000000000010000000000000000000000000000000000000000000000000000046271a07800",
          "blockHash": "0x814f83f280ec0a65d67ff493b8b6ac701a3e1633495c2ee1a9ddce4459b15167",
          "blockNumber": "0x25f70fd",
          "blockTimestamp": "0x69493edd",
          "transactionHash": "0x3433345b93f030ea48b64497d7256a37635fd7d5d1f2d0c4475b7c5d307dbf94",
          "transactionIndex": "0x32",
          "logIndex": "0x131",
          "removed": false
        },
        {
          "address": "0x1a44076050125825900e736c501f859c50fe728c",
          "topics": [
            "0x1ab700d4ced0c005b164c0f789fd09fcbb0156d4c2041b8a3bfbcd961cd1567f"
          ],
          "data": "0x00000000000000000000000000000000000000000000000000000000000000600000000000000000000000000000000000000000000000000000000000000120000000000000000000000000b5320b0b3a13cc860893e2bd79fcd7e13484dda20000000000000000000000000000000000000000000000000000000000000091010000000000000001000075e80000000000000000000000004716338fcf8c0b2d8358dcb9c0e020cc6a25e8ef0000759e0000000000000000000000004716338fcf8c0b2d8358dcb9c0e020cc6a25e8ef91ef20d3489ce146c2c809e2d1aa336eb6cc1c850d8931cc39a9f64fa2b7ef030000000000000000000000000000000000000000000000000000000000003039000000000000000000000000000000000000000000000000000000000000000000000000000000000000000000001600030100110100000000000000000000000000030d4000000000000000000000",
          "blockHash": "0x814f83f280ec0a65d67ff493b8b6ac701a3e1633495c2ee1a9ddce4459b15167",
          "blockNumber": "0x25f70fd",
          "blockTimestamp": "0x69493edd",
          "transactionHash": "0x3433345b93f030ea48b64497d7256a37635fd7d5d1f2d0c4475b7c5d307dbf94",
          "transactionIndex": "0x32",
          "logIndex": "0x132",
          "removed": false
        },
        {
          "address": "0x4716338fcf8c0b2d8358dcb9c0e020cc6a25e8ef",
          "topics": [
            "0xc8dcad7f3bb826fe986c6e68dcfe5125916f759dfee760ce862a970895fd744f"
          ],
          "data": "0x0000000000000000000000000000000000000000000000000000000000003039000000000000000000000000000000000000000000000000000000000000759e",
          "blockHash": "0x814f83f280ec0a65d67ff493b8b6ac701a3e1633495c2ee1a9ddce4459b15167",
          "blockNumber": "0x25f70fd",
          "blockTimestamp": "0x69493edd",
          "transactionHash": "0x3433345b93f030ea48b64497d7256a37635fd7d5d1f2d0c4475b7c5d307dbf94",
          "transactionIndex": "0x32",
          "logIndex": "0x133",
          "removed": false
        }
      ],
      "logsBloom": "0x00000000000000000000000000000000000000000000000000000000001000000000000000000000000000000000000000000000000000000000000000000000000000200000000000000400000000000000020000000000000000000000000180000000000000018000000000000000000000000010000000000000000000000000000000000000000000080000000000000000000000000004000000000000000000008000000000100040000000000000000000400000000440000000000040000000000000000000000000000000000000000000000000000000000000000000040000000000000000000000002000000000010000000000000000000000",
      "type": "0x2",
      "transactionHash": "0x3433345b93f030ea48b64497d7256a37635fd7d5d1f2d0c4475b7c5d307dbf94",
      "transactionIndex": "0x32",
      "blockHash": "0x814f83f280ec0a65d67ff493b8b6ac701a3e1633495c2ee1a9ddce4459b15167",
      "blockNumber": "0x25f70fd",
      "gasUsed": "0x41813",
      "effectiveGasPrice": "0xae4db",
      "blobGasUsed": "0x7ef4",
      "from": "0xefa0e8aa84a713f6a6d4de8cc761fe86c5957d72",
      "to": "0x4716338fcf8c0b2d8358dcb9c0e020cc6a25e8ef",
      "contractAddress": null,
      "daFootprintGasScalar": "0x145",
      "l1BaseFeeScalar": "0x8dd",
      "l1BlobBaseFee": "0x226ac7",
      "l1BlobBaseFeeScalar": "0x101c12",
      "l1Fee": "0x2893b9a7",
      "l1GasPrice": "0x2460c96",
      "l1GasUsed": "0x640"
    }
  ],
  "libraries": [],
  "pending": [],
  "returns": {},
  "timestamp": 1766407899,
  "chain": 8453,
  "commit": "43d1dd2a2"
}