{
  "transactions": [
    {
      "hash": "0x378931b3b5f6fd2886d126c72db286155856a47ac7344342cfac222193e91048",
      "transactionType": "CALL",
      "contractName": null,
      "contractAddress": "0x1a44076050125825900e736c501f859c50fe728c",
      "function": "setSendLibrary(address,uint32,address)",
      "arguments": [
        "0xE94a1978F725cEfA53487aDbc588FDDDF01e20ff",
        "30391",
        "0x6c26c61a97006888ea9E4FA36584c7df57Cd9dA3"
      ],
      "transaction": {
        "from": "0xdb5af497a73620d881561edb508012a5f84e9ba2",
        "to": "0x1a44076050125825900e736c501f859c50fe728c",
        "gas": "0x149cd",
        "value": "0x0",
        "input": "0x9535ff30000000000000000000000000e94a1978f725cefa53487adbc588fdddf01e20ff00000000000000000000000000000000000000000000000000000000000076b70000000000000000000000006c26c61a97006888ea9e4fa36584c7df57cd9da3",
        "nonce": "0x8",
        "chainId": "0x89"
      },
      "additionalContracts": [],
      "isFixedGasLimit": false
    },
    {
      "hash": "0xec81e8b7b1f871855aa2563557531d1f0701c386e9a1c77cdb8afc589bd05b3f",
      "transactionType": "CALL",
      "contractName": null,
      "contractAddress": "0x1a44076050125825900e736c501f859c50fe728c",
      "function": "setConfig(address,address,(uint32,uint32,bytes)[])",
      "arguments": [
        "0xE94a1978F725cEfA53487aDbc588FDDDF01e20ff",
        "0x6c26c61a97006888ea9E4FA36584c7df57Cd9dA3",
        "[(30391, 1, 0x0000000000000000000000000000000000000000000000000000000000002710000000000000000000000000cd3f213ad101472e1713c72b1697e727c803885b), (30391, 2, 0x0000000000000000000000000000000000000000000000000000000000000020000000000000000000000000000000000000000000000000000000000000020000000000000000000000000000000000000000000000000000000000000000010000000000000000000000000000000000000000000000000000000000000000000000000000000000000000000000000000000000000000000000000000000000000000000000000000000000000000000000000000000000000000000000c00000000000000000000000000000000000000000000000000000000000000100000000000000000000000000000000000000000000000000000000000000000100000000000000000000000043cfcc293cdf99f7d021f21ffd443f174ab0e8430000000000000000000000000000000000000000000000000000000000000000)]"
      ],
      "transaction": {
        "from": "0xdb5af497a73620d881561edb508012a5f84e9ba2",
        "to": "0x1a44076050125825900e736c501f859c50fe728c",
        "gas": "0x33382",
        "value": "0x0",
        "input": "0x6dbd9f90000000000000000000000000e94a1978f725cefa53487adbc588fdddf01e20ff0000000000000000000000006c26c61a97006888ea9e4fa36584c7df57cd9da3000000000000000000000000000000000000000000000000000000000000006000000000000000000000000000000000000000000000000000000000000000020000000000000000000000000000000000000000000000000000000000000040000000000000000000000000000000000000000000000000000000000000010000000000000000000000000000000000000000000000000000000000000076b70000000000000000000000000000000000000000000000000000000000000001000000000000000000000000000000000000000000000000000000000000006000000000000000000000000000000000000000000000000000000000000000400000000000000000000000000000000000000000000000000000000000002710000000000000000000000000cd3f213ad101472e1713c72b1697e727c803885b00000000000000000000000000000000000000000000000000000000000076b70000000000000000000000000000000000000000000000000000000000000002000000000000000000000000000000000000000000000000000000000000006000000000000000000000000000000000000000000000000000000000000001400000000000000000000000000000000000000000000000000000000000000020000000000000000000000000000000000000000000000000000000000000020000000000000000000000000000000000000000000000000000000000000000010000000000000000000000000000000000000000000000000000000000000000000000000000000000000000000000000000000000000000000000000000000000000000000000000000000000000000000000000000000000000000000000c00000000000000000000000000000000000000000000000000000000000000100000000000000000000000000000000000000000000000000000000000000000100000000000000000000000043cfcc293cdf99f7d021f21ffd443f174ab0e8430000000000000000000000000000000000000000000000000000000000000000",
        "nonce": "0x9",
        "chainId": "0x89"
      },
      "additionalContracts": [],
      "isFixedGasLimit": false
    }
  ],
  "receipts": [
    {
      "status": "0x1",
      "cumulativeGasUsed": "0x17aab7f",
      "logs": [
        {
          "address": "0x1a44076050125825900e736c501f859c50fe728c",
          "topics": [
            "0x4cff966ebee29a156dcb34cf72c1d06231fb1777f6bdf6e8089819232f002b1c"
          ],
          "data": "0x000000000000000000000000e94a1978f725cefa53487adbc588fdddf01e20ff00000000000000000000000000000000000000000000000000000000000076b70000000000000000000000006c26c61a97006888ea9e4fa36584c7df57cd9da3",
          "blockHash": "0x4617ad1be21b33b65a14971a5b3284fa6f359dfc0d1bdf9d3a885780416c4ea5",
          "blockNumber": "0x4d9fa74",
          "blockTimestamp": "0x69602206",
          "transactionHash": "0xec81e8b7b1f871855aa2563557531d1f0701c386e9a1c77cdb8afc589bd05b3f",
          "transactionIndex": "0x5a",
          "logIndex": "0x516",
          "removed": false
        },
        {
          "address": "0x0000000000000000000000000000000000001010",
          "topics": [
            "0x4dfe1bbbcf077ddc3e01291eea2d5c70c2b422b415d95645b9adcfd678cb1d63",
            "0x0000000000000000000000000000000000000000000000000000000000001010",
            "0x000000000000000000000000db5af497a73620d881561edb508012a5f84e9ba2",
            "0x0000000000000000000000007ee41d8a25641000661b1ef5e6ae8a00400466b0"
          ],
          "data": "0x000000000000000000000000000000000000000000000000000520a0d39274000000000000000000000000000000000000000000000000001462d7cf8629b3a30000000000000000000000000000000000000000000472ddc30344f8cda3960c000000000000000000000000000000000000000000000000145db72eb2973fa30000000000000000000000000000000000000000000472ddc3086599a1360a0c",
          "blockHash": "0x4617ad1be21b33b65a14971a5b3284fa6f359dfc0d1bdf9d3a885780416c4ea5",
          "blockNumber": "0x4d9fa74",
          "blockTimestamp": "0x69602206",
          "transactionHash": "0xec81e8b7b1f871855aa2563557531d1f0701c386e9a1c77cdb8afc589bd05b3f",
          "transactionIndex": "0x5a",
          "logIndex": "0x517",
          "removed": false
        }
      ],
      "logsBloom": "0x00000000000000000000000000000000000200000000000000000000001000000000000000000000000000000000000000008000000000000000000001000000000000000000000000000000000000800000000000000000000100000000000000000000000000000000000000000000000000000010000080000000000004000000000000000000020000000400000000000008000000000000000000080000200000000000000000000000000000000000000000000000000000000000004000000000000000000001000000000000000000400000000000100000000000000040000000000000000000000000000000000000010000000000000000100000",
      "type": "0x2",
      "transactionHash": "0xec81e8b7b1f871855aa2563557531d1f0701c386e9a1c77cdb8afc589bd05b3f",
      "transactionIndex": "0x5a",
      "blockHash": "0x4617ad1be21b33b65a14971a5b3284fa6f359dfc0d1bdf9d3a885780416c4ea5",
      "blockNumber": "0x4d9fa74",
      "gasUsed": "0xe182",
      "effectiveGasPrice": "0x9953b8aad5",
      "from": "0xdb5af497a73620d881561edb508012a5f84e9ba2",
      "to": "0x1a44076050125825900e736c501f859c50fe728c",
      "contractAddress": null
    },
    {
      "status": "0x1",
      "cumulativeGasUsed": "0x17cdbd8",
      "logs": [
        {
          "address": "0x6c26c61a97006888ea9e4fa36584c7df57cd9da3",
          "topics": [
            "0x779cb2dd9d2bb1be1737d05435d744facbfb84a2a4912e21379d39beddcdc805"
          ],
          "data": "0x000000000000000000000000e94a1978f725cefa53487adbc588fdddf01e20ff00000000000000000000000000000000000000000000000000000000000076b70000000000000000000000000000000000000000000000000000000000002710000000000000000000000000cd3f213ad101472e1713c72b1697e727c803885b",
          "blockHash": "0x4617ad1be21b33b65a14971a5b3284fa6f359dfc0d1bdf9d3a885780416c4ea5",
          "blockNumber": "0x4d9fa74",
          "blockTimestamp": "0x69602206",
          "transactionHash": "0x378931b3b5f6fd2886d126c72db286155856a47ac7344342cfac222193e91048",
          "transactionIndex": "0x5b",
          "logIndex": "0x518",
          "removed": false
        },
        {
          "address": "0x6c26c61a97006888ea9e4fa36584c7df57cd9da3",
          "topics": [
            "0x82118522aa536ac0e96cc5c689407ae42b89d592aa133890a01f1509842f5081"
          ],
          "data": "0x000000000000000000000000e94a1978f725cefa53487adbc588fdddf01e20ff00000000000000000000000000000000000000000000000000000000000076b70000000000000000000000000000000000000000000000000000000000000060000000000000000000000000000000000000000000000000000000000000020000000000000000000000000000000000000000000000000000000000000000010000000000000000000000000000000000000000000000000000000000000000000000000000000000000000000000000000000000000000000000000000000000000000000000000000000000000000000000000000000000000000000000c00000000000000000000000000000000000000000000000000000000000000100000000000000000000000000000000000000000000000000000000000000000100000000000000000000000043cfcc293cdf99f7d021f21ffd443f174ab0e8430000000000000000000000000000000000000000000000000000000000000000",
          "blockHash": "0x4617ad1be21b33b65a14971a5b3284fa6f359dfc0d1bdf9d3a885780416c4ea5",
          "blockNumber": "0x4d9fa74",
          "blockTimestamp": "0x69602206",
          "transactionHash": "0x378931b3b5f6fd2886d126c72db286155856a47ac7344342cfac222193e91048",
          "transactionIndex": "0x5b",
          "logIndex": "0x519",
          "removed": false
        },
        {
          "address": "0x0000000000000000000000000000000000001010",
          "topics": [
            "0x4dfe1bbbcf077ddc3e01291eea2d5c70c2b422b415d95645b9adcfd678cb1d63",
            "0x0000000000000000000000000000000000000000000000000000000000001010",
            "0x000000000000000000000000db5af497a73620d881561edb508012a5f84e9ba2",
            "0x0000000000000000000000007ee41d8a25641000661b1ef5e6ae8a00400466b0"
          ],
          "data": "0x000000000000000000000000000000000000000000000000000cbda71335aa0000000000000000000000000000000000000000000000000013dbc75db43dbe790000000000000000000000000000000000000000000472ddc3086599a1360a0c00000000000000000000000000000000000000000000000013cf09b6a10814790000000000000000000000000000000000000000000472ddc3152340b46bb40c",
          "blockHash": "0x4617ad1be21b33b65a14971a5b3284fa6f359dfc0d1bdf9d3a885780416c4ea5",
          "blockNumber": "0x4d9fa74",
          "blockTimestamp": "0x69602206",
          "transactionHash": "0x378931b3b5f6fd2886d126c72db286155856a47ac7344342cfac222193e91048",
          "transactionIndex": "0x5b",
          "logIndex": "0x51a",
          "removed": false
        }
      ],
      "logsBloom": "0x00000000000000000000000000000000000000000000000000000000000000000000004000000000000000000000000000008000000000000000000000000000000000000000000000000040000000800000000000000000002100000000000000000000000000000000000000000000000000000000000080000000000004000000000000000000020000000400000000000008000000000000010000080000200000000000000000000002000000000000000000000000000000000000004200000000000000000001000000000000000000400000000000180000000000000008000000000000000000000000000000000000000000000000000000100010",
      "type": "0x2",
      "transactionHash": "0x378931b3b5f6fd2886d126c72db286155856a47ac7344342cfac222193e91048",
      "transactionIndex": "0x5b",
      "blockHash": "0x4617ad1be21b33b65a14971a5b3284fa6f359dfc0d1bdf9d3a885780416c4ea5",
      "blockNumber": "0x4d9fa74",
      "gasUsed": "0x23059",
      "effectiveGasPrice": "0x9953b8aad5",
      "from": "0xdb5af497a73620d881561edb508012a5f84e9ba2",
      "to": "0x1a44076050125825900e736c501f859c50fe728c",
      "contractAddress": null
    }
  ],
  "libraries": [],
  "pending": [],
  "returns": {},
  "timestamp": 1767907847029,
  "chain": 137,
  "commit": "0b62887c8"
}