{
  "transactions": [
    {
      "hash": "0xf66ff3cae5add6ea9468c287722f891c9e66c235e3511f452c9aa570f59aa602",
      "transactionType": "CALL",
      "contractName": null,
      "contractAddress": "0x1a44076050125825900e736c501f859c50fe728c",
      "function": "setConfig(address,address,(uint32,uint32,bytes)[])",
      "arguments": [
        "0xE94a1978F725cEfA53487aDbc588FDDDF01e20ff",
        "0x6c26c61a97006888ea9E4FA36584c7df57Cd9dA3",
        "[(30391, 1, 0x0000000000000000000000000000000000000000000000000000000000002710000000000000000000000000cd3f213ad101472e1713c72b1697e727c803885b), (30391, 2, 0x0000000000000000000000000000000000000000000000000000000000000020000000000000000000000000000000000000000000000000000000000000000a00000000000000000000000000000000000000000000000000000000000000010000000000000000000000000000000000000000000000000000000000000000000000000000000000000000000000000000000000000000000000000000000000000000000000000000000000000000000000000000000000000000000000c0000000000000000000000000000000000000000000000000000000000000010000000000000000000000000000000000000000000000000000000000000000010000000000000000000000002afa3787cd95fee5d5753cd717ef228eb259f4ea0000000000000000000000000000000000000000000000000000000000000000)]"
      ],
      "transaction": {
        "from": "0xdb5af497a73620d881561edb508012a5f84e9ba2",
        "to": "0x1a44076050125825900e736c501f859c50fe728c",
        "gas": "0x17cc2",
        "value": "0x0",
        "input": "0x6dbd9f90000000000000000000000000e94a1978f725cefa53487adbc588fdddf01e20ff0000000000000000000000006c26c61a97006888ea9e4fa36584c7df57cd9da3000000000000000000000000000000000000000000000000000000000000006000000000000000000000000000000000000000000000000000000000000000020000000000000000000000000000000000000000000000000000000000000040000000000000000000000000000000000000000000000000000000000000010000000000000000000000000000000000000000000000000000000000000076b70000000000000000000000000000000000000000000000000000000000000001000000000000000000000000000000000000000000000000000000000000006000000000000000000000000000000000000000000000000000000000000000400000000000000000000000000000000000000000000000000000000000002710000000000000000000000000cd3f213ad101472e1713c72b1697e727c803885b00000000000000000000000000000000000000000000000000000000000076b70000000000000000000000000000000000000000000000000000000000000002000000000000000000000000000000000000000000000000000000000000006000000000000000000000000000000000000000000000000000000000000001400000000000000000000000000000000000000000000000000000000000000020000000000000000000000000000000000000000000000000000000000000000a00000000000000000000000000000000000000000000000000000000000000010000000000000000000000000000000000000000000000000000000000000000000000000000000000000000000000000000000000000000000000000000000000000000000000000000000000000000000000000000000000000000000000c0000000000000000000000000000000000000000000000000000000000000010000000000000000000000000000000000000000000000000000000000000000010000000000000000000000002afa3787cd95fee5d5753cd717ef228eb259f4ea0000000000000000000000000000000000000000000000000000000000000000",
        "nonce": "0x10",
        "chainId": "0x89"
      },
      "additionalContracts": [],
      "isFixedGasLimit": false
    }
  ],
  "receipts": [
    {
      "status": "0x1",
      "cumulativeGasUsed": "0x15c75e6",
      "logs": [
        {
          "address": "0x6c26c61a97006888ea9e4fa36584c7df57cd9da3",
          "topics": [
            "0x779cb2dd9d2bb1be1737d05435d744facbfb84a2a4912e21379d39beddcdc805"
          ],
          "data": "0x000000000000000000000000e94a1978f725cefa53487adbc588fdddf01e20ff00000000000000000000000000000000000000000000000000000000000076b70000000000000000000000000000000000000000000000000000000000002710000000000000000000000000cd3f213ad101472e1713c72b1697e727c803885b",
          "blockHash": "0x30f856273fd6e075c0d33041b8d0db4a4c8d97b038d0962f50bddfdb248001d7",
          "blockNumber": "0x4da7858",
          "blockTimestamp": "0x69611dce",
          "transactionHash": "0xf66ff3cae5add6ea9468c287722f891c9e66c235e3511f452c9aa570f59aa602",
          "transactionIndex": "0x5e",
          "logIndex": "0x2c6",
          "removed": false
        },
        {
          "address": "0x6c26c61a97006888ea9e4fa36584c7df57cd9da3",
          "topics": [
            "0x82118522aa536ac0e96cc5c689407ae42b89d592aa133890a01f1509842f5081"
          ],
          "data": "0x000000000000000000000000e94a1978f725cefa53487adbc588fdddf01e20ff00000000000000000000000000000000000000000000000000000000000076b70000000000000000000000000000000000000000000000000000000000000060000000000000000000000000000000000000000000000000000000000000000a00000000000000000000000000000000000000000000000000000000000000010000000000000000000000000000000000000000000000000000000000000000000000000000000000000000000000000000000000000000000000000000000000000000000000000000000000000000000000000000000000000000000000c0000000000000000000000000000000000000000000000000000000000000010000000000000000000000000000000000000000000000000000000000000000010000000000000000000000002afa3787cd95fee5d5753cd717ef228eb259f4ea0000000000000000000000000000000000000000000000000000000000000000",
          "blockHash": "0x30f856273fd6e075c0d33041b8d0db4a4c8d97b038d0962f50bddfdb248001d7",
          "blockNumber": "0x4da7858",
          "blockTimestamp": "0x69611dce",
          "transactionHash": "0xf66ff3cae5add6ea9468c287722f891c9e66c235e3511f452c9aa570f59aa602",
          "transactionIndex": "0x5e",
          "logIndex": "0x2c7",
          "removed": false
        },
        {
          "address": "0x0000000000000000000000000000000000001010",
          "topics": [
            "0x4dfe1bbbcf077ddc3e01291eea2d5c70c2b422b415d95645b9adcfd678cb1d63",
            "0x0000000000000000000000000000000000000000000000000000000000001010",
            "0x000000000000000000000000db5af497a73620d881561edb508012a5f84e9ba2",
            "0x0000000000000000000000007ee41d8a25641000661b1ef5e6ae8a00400466b0"
          ],
          "data": "0x0000000000000000000000000000000000000000000000000005eb6c3d3daa0000000000000000000000000000000000000000000000000354a3cdb03488b122000000000000000000000000000000000000000000048189b8ab0abf278b72d1000000000000000000000000000000000000000000000003549de243f74b0722000000000000000000000000000000000000000000048189b8b0f62b64c91cd1",
          "blockHash": "0x30f856273fd6e075c0d33041b8d0db4a4c8d97b038d0962f50bddfdb248001d7",
          "blockNumber": "0x4da7858",
          "blockTimestamp": "0x69611dce",
          "transactionHash": "0xf66ff3cae5add6ea9468c287722f891c9e66c235e3511f452c9aa570f59aa602",
          "transactionIndex": "0x5e",
          "logIndex": "0x2c8",
          "removed": false
        }
      ],
      "logsBloom": "0x00000000000000000000000000000000000000000000000000000000000000000000004000000000000000000000000000008000000000000000000000000000000000000000000000000040000000800000000000000000002100000000000000000000000000000000000000000000000000000000000080000000000004000000000000000000020000000400000000000008000000000000010000080000200000000000000000000002000000000000000000000000000000000000004200000000000000000001000000000000000000400000000000180000000000000008000000000000000000000000000000000000000000000000000000100010",
      "type": "0x2",
      "transactionHash": "0xf66ff3cae5add6ea9468c287722f891c9e66c235e3511f452c9aa570f59aa602",
      "transactionIndex": "0x5e",
      "blockHash": "0x30f856273fd6e075c0d33041b8d0db4a4c8d97b038d0962f50bddfdb248001d7",
      "blockNumber": "0x4da7858",
      "gasUsed": "0x10459",
      "effectiveGasPrice": "0xc4a3a9529c",
      "from": "0xdb5af497a73620d881561edb508012a5f84e9ba2",
      "to": "0x1a44076050125825900e736c501f859c50fe728c",
      "contractAddress": null
    }
  ],
  "libraries": [],
  "pending": [],
  "returns": {},
  "timestamp": 1767972302974,
  "chain": 137,
  "commit": "968fa6650"
}