{
  "transactions": [
    {
      "hash": "0x08742ddef2ac14a0439eb9142af3fa44c10bdeb807b1314f0c9651bddb4bb867",
      "transactionType": "CALL",
      "contractName": null,
      "contractAddress": "0x1a44076050125825900e736c501f859c50fe728c",
      "function": "setSendLibrary(address,uint32,address)",
      "arguments": [
        "0x77Bf3900D79D7Ba4DAEfEb5Ed4D216308dbfbf53",
        "30391",
        "0x975bcD720be66659e3EB3C0e4F1866a3020E493A"
      ],
      "transaction": {
        "from": "0xdb5af497a73620d881561edb508012a5f84e9ba2",
        "to": "0x1a44076050125825900e736c501f859c50fe728c",
        "gas": "0x12948",
        "value": "0x0",
        "input": "0x9535ff3000000000000000000000000077bf3900d79d7ba4daefeb5ed4d216308dbfbf5300000000000000000000000000000000000000000000000000000000000076b7000000000000000000000000975bcd720be66659e3eb3c0e4f1866a3020e493a",
        "nonce": "0x1282",
        "chainId": "0xa4b1"
      },
      "additionalContracts": [],
      "isFixedGasLimit": false
    },
    {
      "hash": "0x6f339bd9f07cffde751decfed804c7e92e919528d41e9a6f9697d0256e45bb81",
      "transactionType": "CALL",
      "contractName": null,
      "contractAddress": "0x1a44076050125825900e736c501f859c50fe728c",
      "function": "setReceiveLibrary(address,uint32,address,uint256)",
      "arguments": [
        "0x77Bf3900D79D7Ba4DAEfEb5Ed4D216308dbfbf53",
        "30110",
        "0x7B9E184e07a6EE1aC23eAe0fe8D6Be2f663f05e6",
        "0"
      ],
      "transaction": {
        "from": "0xdb5af497a73620d881561edb508012a5f84e9ba2",
        "to": "0x1a44076050125825900e736c501f859c50fe728c",
        "gas": "0x14b4f",
        "value": "0x0",
        "input": "0x6a14d71500000000000000000000000077bf3900d79d7ba4daefeb5ed4d216308dbfbf53000000000000000000000000000000000000000000000000000000000000759e0000000000000000000000007b9e184e07a6ee1ac23eae0fe8d6be2f663f05e60000000000000000000000000000000000000000000000000000000000000000",
        "nonce": "0x1283",
        "chainId": "0xa4b1"
      },
      "additionalContracts": [],
      "isFixedGasLimit": false
    },
    {
      "hash": "0x13cde77a8316037828256ce85578d3e8b769e25e72535d30e67b1ebc6fbf098b",
      "transactionType": "CALL",
      "contractName": null,
      "contractAddress": "0x1a44076050125825900e736c501f859c50fe728c",
      "function": "setConfig(address,address,(uint32,uint32,bytes)[])",
      "arguments": [
        "0x77Bf3900D79D7Ba4DAEfEb5Ed4D216308dbfbf53",
        "0x975bcD720be66659e3EB3C0e4F1866a3020E493A",
        "[(30391, 1, 0x000000000000000000000000000000000000000000000000000000000000271000000000000000000000000031cae3b7fb82d847621859fb1585353c5720660d), (30391, 2, 0x00000000000000000000000000000000000000000000000000000000000000200000000000000000000000000000000000000000000000000000000000000014000000000000000000000000000000000000000000000000000000000000000100000000000000000000000000000000000000000000000000000000000000ff000000000000000000000000000000000000000000000000000000000000000000000000000000000000000000000000000000000000000000000000000000c0000000000000000000000000000000000000000000000000000000000000010000000000000000000000000000000000000000000000000000000000000000010000000000000000000000002f55c492897526677c5b68fb199ea31e2c1264160000000000000000000000000000000000000000000000000000000000000000)]"
      ],
      "transaction": {
        "from": "0xdb5af497a73620d881561edb508012a5f84e9ba2",
        "to": "0x1a44076050125825900e736c501f859c50fe728c",
        "gas": "0x2e414",
        "value": "0x0",
        "input": "0x6dbd9f9000000000000000000000000077bf3900d79d7ba4daefeb5ed4d216308dbfbf53000000000000000000000000975bcd720be66659e3eb3c0e4f1866a3020e493a000000000000000000000000000000000000000000000000000000000000006000000000000000000000000000000000000000000000000000000000000000020000000000000000000000000000000000000000000000000000000000000040000000000000000000000000000000000000000000000000000000000000010000000000000000000000000000000000000000000000000000000000000076b7000000000000000000000000000000000000000000000000000000000000000100000000000000000000000000000000000000000000000000000000000000600000000000000000000000000000000000000000000000000000000000000040000000000000000000000000000000000000000000000000000000000000271000000000000000000000000031cae3b7fb82d847621859fb1585353c5720660d00000000000000000000000000000000000000000000000000000000000076b700000000000000000000000000000000000000000000000000000000000000020000000000000000000000000000000000000000000000000000000000000060000000000000000000000000000000000000000000000000000000000000014000000000000000000000000000000000000000000000000000000000000000200000000000000000000000000000000000000000000000000000000000000014000000000000000000000000000000000000000000000000000000000000000100000000000000000000000000000000000000000000000000000000000000ff000000000000000000000000000000000000000000000000000000000000000000000000000000000000000000000000000000000000000000000000000000c0000000000000000000000000000000000000000000000000000000000000010000000000000000000000000000000000000000000000000000000000000000010000000000000000000000002f55c492897526677c5b68fb199ea31e2c1264160000000000000000000000000000000000000000000000000000000000000000",
        "nonce": "0x1284",
        "chainId": "0xa4b1"
      },
      "additionalContracts": [],
      "isFixedGasLimit": false
    }
  ],
  "receipts": [
    {
      "status": "0x1",
      "cumulativeGasUsed": "0x3a4b8",
      "logs": [
        {
          "address": "0x1a44076050125825900e736c501f859c50fe728c",
          "topics": [
            "0x4cff966ebee29a156dcb34cf72c1d06231fb1777f6bdf6e8089819232f002b1c"
          ],
          "data": "0x00000000000000000000000077bf3900d79d7ba4daefeb5ed4d216308dbfbf5300000000000000000000000000000000000000000000000000000000000076b7000000000000000000000000975bcd720be66659e3eb3c0e4f1866a3020e493a",
          "blockHash": "0x16a845690cf4eb830c1d9e0c03af551b4975a6093ac209f7403cba4a71a1ac9f",
          "blockNumber": "0x185b0f80",
          "blockTimestamp": "0x69375813",
          "transactionHash": "0x08742ddef2ac14a0439eb9142af3fa44c10bdeb807b1314f0c9651bddb4bb867",
          "transactionIndex": "0x3",
          "logIndex": "0x0",
          "removed": false
        }
      ],
      "logsBloom": "0x00000000000000000000000000000000000200000000000000000000001000000000000000000000000000000000000000000000000000000000000001000000000000000000000000000000000000000000000000000000000000000000000000000000000000000000000000000000000000000010000000000000000000000000000000000000000000000000000000000000000000000000000000000000000000000000000000000000000000000000000000000000000000000000000000000000000000000000000000000000000000000000000000000000000000000040000000000000000000000000000000000000010000000000000000000000",
      "type": "0x2",
      "transactionHash": "0x08742ddef2ac14a0439eb9142af3fa44c10bdeb807b1314f0c9651bddb4bb867",
      "transactionIndex": "0x3",
      "blockHash": "0x16a845690cf4eb830c1d9e0c03af551b4975a6093ac209f7403cba4a71a1ac9f",
      "blockNumber": "0x185b0f80",
      "gasUsed": "0xe182",
      "effectiveGasPrice": "0x989680",
      "from": "0xdb5af497a73620d881561edb508012a5f84e9ba2",
      "to": "0x1a44076050125825900e736c501f859c50fe728c",
      "contractAddress": null,
      "gasUsedForL1": "0x0",
      "l1BlockNumber": "0x16dc584",
      "timeboosted": false
    },
    {
      "status": "0x1",
      "cumulativeGasUsed": "0xbf59c",
      "logs": [
        {
          "address": "0x1a44076050125825900e736c501f859c50fe728c",
          "topics": [
            "0xcd6f92f5ac6185a5acfa02c92090746cec64d777269cbcd0ed031e396657a1c2"
          ],
          "data": "0x00000000000000000000000077bf3900d79d7ba4daefeb5ed4d216308dbfbf53000000000000000000000000000000000000000000000000000000000000759e0000000000000000000000007b9e184e07a6ee1ac23eae0fe8d6be2f663f05e6",
          "blockHash": "0x4262e470f8aac2f48a32e8ad8fd13b3ee79141d4a7abf271e396dd354e1add36",
          "blockNumber": "0x185b0f8c",
          "blockTimestamp": "0x69375816",
          "transactionHash": "0x6f339bd9f07cffde751decfed804c7e92e919528d41e9a6f9697d0256e45bb81",
          "transactionIndex": "0x6",
          "logIndex": "0x14",
          "removed": false
        },
        {
          "address": "0x1a44076050125825900e736c501f859c50fe728c",
          "topics": [
            "0x4e0a5bbfa0c11a64effb1ada324b5437a17272e1aed9320398715ef71bb20928"
          ],
          "data": "0x00000000000000000000000077bf3900d79d7ba4daefeb5ed4d216308dbfbf53000000000000000000000000000000000000000000000000000000000000759e00000000000000000000000000000000000000000000000000000000000000000000000000000000000000000000000000000000000000000000000000000000",
          "blockHash": "0x4262e470f8aac2f48a32e8ad8fd13b3ee79141d4a7abf271e396dd354e1add36",
          "blockNumber": "0x185b0f8c",
          "blockTimestamp": "0x69375816",
          "transactionHash": "0x6f339bd9f07cffde751decfed804c7e92e919528d41e9a6f9697d0256e45bb81",
          "transactionIndex": "0x6",
          "logIndex": "0x15",
          "removed": false
        }
      ],
      "logsBloom": "0x00000000000000000000020800000000000000000000000000000000001000020400000000000000000000000000000000000000000000000000000000000000000000000000000000000000000000000000000000800000000000000000000000000000000000000000000000000000000000000010000000000000000000100000000000000000000000000000000000000000000000000000000000000000000000000000000000000000000000000000000000000000000000000000000000000000000000000000000000000000000000000000000000000000000000000000000000000000000000000000000000000000010000000000000000000000",
      "type": "0x2",
      "transactionHash": "0x6f339bd9f07cffde751decfed804c7e92e919528d41e9a6f9697d0256e45bb81",
      "transactionIndex": "0x6",
      "blockHash": "0x4262e470f8aac2f48a32e8ad8fd13b3ee79141d4a7abf271e396dd354e1add36",
      "blockNumber": "0x185b0f8c",
      "gasUsed": "0xfb95",
      "effectiveGasPrice": "0x989680",
      "from": "0xdb5af497a73620d881561edb508012a5f84e9ba2",
      "to": "0x1a44076050125825900e736c501f859c50fe728c",
      "contractAddress": null,
      "gasUsedForL1": "0x0",
      "l1BlockNumber": "0x16dc586",
      "timeboosted": false
    },
    {
      "status": "0x1",
      "cumulativeGasUsed": "0x66130",
      "logs": [
        {
          "address": "0x975bcd720be66659e3eb3c0e4f1866a3020e493a",
          "topics": [
            "0x779cb2dd9d2bb1be1737d05435d744facbfb84a2a4912e21379d39beddcdc805"
          ],
          "data": "0x00000000000000000000000077bf3900d79d7ba4daefeb5ed4d216308dbfbf5300000000000000000000000000000000000000000000000000000000000076b7000000000000000000000000000000000000000000000000000000000000271000000000000000000000000031cae3b7fb82d847621859fb1585353c5720660d",
          "blockHash": "0xb54e1c414f0d3d9c5fd6fa876b0cb133172a55e8334ad25c06691cb3f8648928",
          "blockNumber": "0x185b0f98",
          "blockTimestamp": "0x69375819",
          "transactionHash": "0x13cde77a8316037828256ce85578d3e8b769e25e72535d30e67b1ebc6fbf098b",
          "transactionIndex": "0x4",
          "logIndex": "0x0",
          "removed": false
        },
        {
          "address": "0x975bcd720be66659e3eb3c0e4f1866a3020e493a",
          "topics": [
            "0x82118522aa536ac0e96cc5c689407ae42b89d592aa133890a01f1509842f5081"
          ],
          "data": "0x00000000000000000000000077bf3900d79d7ba4daefeb5ed4d216308dbfbf5300000000000000000000000000000000000000000000000000000000000076b700000000000000000000000000000000000000000000000000000000000000600000000000000000000000000000000000000000000000000000000000000014000000000000000000000000000000000000000000000000000000000000000100000000000000000000000000000000000000000000000000000000000000ff000000000000000000000000000000000000000000000000000000000000000000000000000000000000000000000000000000000000000000000000000000c0000000000000000000000000000000000000000000000000000000000000010000000000000000000000000000000000000000000000000000000000000000010000000000000000000000002f55c492897526677c5b68fb199ea31e2c1264160000000000000000000000000000000000000000000000000000000000000000",
          "blockHash": "0xb54e1c414f0d3d9c5fd6fa876b0cb133172a55e8334ad25c06691cb3f8648928",
          "blockNumber": "0x185b0f98",
          "blockTimestamp": "0x69375819",
          "transactionHash": "0x13cde77a8316037828256ce85578d3e8b769e25e72535d30e67b1ebc6fbf098b",
          "transactionIndex": "0x4",
          "logIndex": "0x1",
          "removed": false
        }
      ],
      "logsBloom": "0x00000000000000000000000000000000000000000000000000000000000000000000000000000000000000000000000000000000000400000000000000000000000000000000000000000040000000000000000000000000002000000000000000000000000800000000000000000000000000000000000000000000000000000000000000000000000000000000000000000000000000000000000000000000000000000000000000000002000000000000000000000000000000000000008200000000000000000000000000000000000000000000000000000000000000000008000000000000000000000000000000000000000000000000000000000010",
      "type": "0x2",
      "transactionHash": "0x13cde77a8316037828256ce85578d3e8b769e25e72535d30e67b1ebc6fbf098b",
      "transactionIndex": "0x4",
      "blockHash": "0xb54e1c414f0d3d9c5fd6fa876b0cb133172a55e8334ad25c06691cb3f8648928",
      "blockNumber": "0x185b0f98",
      "gasUsed": "0x23049",
      "effectiveGasPrice": "0x989680",
      "from": "0xdb5af497a73620d881561edb508012a5f84e9ba2",
      "to": "0x1a44076050125825900e736c501f859c50fe728c",
      "contractAddress": null,
      "gasUsedForL1": "0x0",
      "l1BlockNumber": "0x16dc586",
      "timeboosted": false
    }
  ],
  "libraries": [],
  "pending": [],
  "returns": {},
  "timestamp": 1765234715,
  "chain": 42161,
  "commit": "af49cf04f"
}