{
  "transactions": [
    {
      "hash": "0x2c2e90634001f605ff3b6f04b77e018764a154e00e62fece23743bd90d613c0e",
      "transactionType": "CALL",
      "contractName": "OAppFactory",
      "contractAddress": "0x4ab1decb7d8dd00091e2a6285e99f319aabd5c5e",
      "function": "setDefaultDVNConfigWithDefaults(uint8,address,address,address,address)",
      "arguments": [
        "1",
        "0xC1868e054425D378095A003EcbA3823a5D0135C9",
        "0x12523de19dc41c91F7d2093E0CFbB76b17012C8d",
        "0x78551ADC2553EF1858a558F5300F7018Aad2FA7e",
        "0x8A3D588D9f6AC041476b094f97FF94ec30169d3D"
      ],
      "transaction": {
        "from": "0xefa0e8aa84a713f6a6d4de8cc761fe86c5957d72",
        "to": "0x4ab1decb7d8dd00091e2a6285e99f319aabd5c5e",
        "gas": "0x301fb",
        "value": "0x0",
        "input": "0x4e4e17d90000000000000000000000000000000000000000000000000000000000000001000000000000000000000000c1868e054425d378095a003ecba3823a5d0135c900000000000000000000000012523de19dc41c91f7d2093e0cfbb76b17012c8d00000000000000000000000078551adc2553ef1858a558f5300f7018aad2fa7e0000000000000000000000008a3d588d9f6ac041476b094f97ff94ec30169d3d",
        "nonce": "0x1",
        "chainId": "0x14a34"
      },
      "additionalContracts": [],
      "isFixedGasLimit": false
    },
    {
      "hash": "0x32a6d0e6c639723226c421b974e090400bdbffb3555dcd45934a9f57a56e0dea",
      "transactionType": "CALL",
      "contractName": "OAppFactory",
      "contractAddress": "0x4ab1decb7d8dd00091e2a6285e99f319aabd5c5e",
      "function": "setDefaultDVNConfigWithDefaults(uint8,address,address,address,address)",
      "arguments": [
        "0",
        "0x4f7cd4DA19ABB31b0eC98b9066B9e857B1bf9C0E",
        "0x75Db67CDab2824970131D5aa9CECfC9F69c69636",
        "0xA85BE08A6Ce2771C730661766AACf2c8Bb24C611",
        "0x0C77d8d771aB35E2E184E7cE127f19CEd31FF8C0"
      ],
      "transaction": {
        "from": "0xefa0e8aa84a713f6a6d4de8cc761fe86c5957d72",
        "to": "0x4ab1decb7d8dd00091e2a6285e99f319aabd5c5e",
        "gas": "0x301fb",
        "value": "0x0",
        "input": "0x4e4e17d900000000000000000000000000000000000000000000000000000000000000000000000000000000000000004f7cd4da19abb31b0ec98b9066b9e857b1bf9c0e00000000000000000000000075db67cdab2824970131d5aa9cecfc9f69c69636000000000000000000000000a85be08a6ce2771c730661766aacf2c8bb24c6110000000000000000000000000c77d8d771ab35e2e184e7ce127f19ced31ff8c0",
        "nonce": "0x2",
        "chainId": "0x14a34"
      },
      "additionalContracts": [],
      "isFixedGasLimit": false
    }
  ],
  "receipts": [
    {
      "status": "0x1",
      "cumulativeGasUsed": "0x2e1b6",
      "logs": [
        {
          "address": "0x4ab1decb7d8dd00091e2a6285e99f319aabd5c5e",
          "topics": [
            "0xc30b9745f198bb95847e218fb27956e9571a61127a5e6f142a2a3ec1801c669d",
            "0x0000000000000000000000000000000000000000000000000000000000000001"
          ],
          "data": "0x000000000000000000000000c1868e054425d378095a003ecba3823a5d0135c900000000000000000000000012523de19dc41c91f7d2093e0cfbb76b17012c8d00000000000000000000000078551adc2553ef1858a558f5300f7018aad2fa7e0000000000000000000000008a3d588d9f6ac041476b094f97ff94ec30169d3d000000000000000000000000000000000000000000000000000000000000001400000000000000000000000000000000000000000000000000000000000027100000000000000000000000000000000000000000000000000000000000000000",
          "blockHash": "0x733f1a93b527355375f076450e6d0872a669bfeb02e99e78a7c7889a60ee8224",
          "blockNumber": "0x218f5fe",
          "blockTimestamp": "0x69454adc",
          "transactionHash": "0x2c2e90634001f605ff3b6f04b77e018764a154e00e62fece23743bd90d613c0e",
          "transactionIndex": "0x1",
          "logIndex": "0x0",
          "removed": false
        }
      ],
      "logsBloom": "0x00000000000000000000000000000000000000000000000000020000000000000000000000000000000000000000000000000000000000000000000000040000000000000002000000000000000000000000000000040000000000000000000000000000000000000000000000000000400000000000000000000000000000000000000000000000000000000000000000000000000000000000000000000000010000000000000000000000000000000200000000000000000000000000000000000000000000000000000000000000000000010000000000000000000040000000000000000000000000000000000000000000000000000000000000000000",
      "type": "0x2",
      "transactionHash": "0x2c2e90634001f605ff3b6f04b77e018764a154e00e62fece23743bd90d613c0e",
      "transactionIndex": "0x1",
      "blockHash": "0x733f1a93b527355375f076450e6d0872a669bfeb02e99e78a7c7889a60ee8224",
      "blockNumber": "0x218f5fe",
      "gasUsed": "0x22d74",
      "effectiveGasPrice": "0x124f80",
      "blobGasUsed": "0xae48",
      "from": "0xefa0e8aa84a713f6a6d4de8cc761fe86c5957d72",
      "to": "0x4ab1decb7d8dd00091e2a6285e99f319aabd5c5e",
      "contractAddress": null,
      "daFootprintGasScalar": "0x138",
      "l1BaseFeeScalar": "0x44d",
      "l1BlobBaseFee": "0xc",
      "l1BlobBaseFeeScalar": "0xa118b",
      "l1Fee": "0x650",
      "l1GasPrice": "0xbc",
      "l1GasUsed": "0x8ff"
    },
    {
      "status": "0x1",
      "cumulativeGasUsed": "0x50f2a",
      "logs": [
        {
          "address": "0x4ab1decb7d8dd00091e2a6285e99f319aabd5c5e",
          "topics": [
            "0xc30b9745f198bb95847e218fb27956e9571a61127a5e6f142a2a3ec1801c669d",
            "0x0000000000000000000000000000000000000000000000000000000000000000"
          ],
          "data": "0x0000000000000000000000004f7cd4da19abb31b0ec98b9066b9e857b1bf9c0e00000000000000000000000075db67cdab2824970131d5aa9cecfc9f69c69636000000000000000000000000a85be08a6ce2771c730661766aacf2c8bb24c6110000000000000000000000000c77d8d771ab35e2e184e7ce127f19ced31ff8c0000000000000000000000000000000000000000000000000000000000000001400000000000000000000000000000000000000000000000000000000000027100000000000000000000000000000000000000000000000000000000000000000",
          "blockHash": "0x733f1a93b527355375f076450e6d0872a669bfeb02e99e78a7c7889a60ee8224",
          "blockNumber": "0x218f5fe",
          "blockTimestamp": "0x69454adc",
          "transactionHash": "0x32a6d0e6c639723226c421b974e090400bdbffb3555dcd45934a9f57a56e0dea",
          "transactionIndex": "0x2",
          "logIndex": "0x1",
          "removed": false
        }
      ],
      "logsBloom": "0x00000000000000000000000000000000000000000000000000020000000000000000000000000000000000000000000000000000000000000000000000000000000000000002000000000000000000000000000000000000000000000000000000000000020000000000000000000800400000000000000000000000000000000000000000000000000000000000000000000000000000000000000000000000010000000000000000000000000000000200000000000000000000000000000000000000000000000000000000000000000000010000000000000000000020000000000000000000000000000000000000000000000000000000000000000000",
      "type": "0x2",
      "transactionHash": "0x32a6d0e6c639723226c421b974e090400bdbffb3555dcd45934a9f57a56e0dea",
      "transactionIndex": "0x2",
      "blockHash": "0x733f1a93b527355375f076450e6d0872a669bfeb02e99e78a7c7889a60ee8224",
      "blockNumber": "0x218f5fe",
      "gasUsed": "0x22d74",
      "effectiveGasPrice": "0x124f80",
      "blobGasUsed": "0xa968",
      "from": "0xefa0e8aa84a713f6a6d4de8cc761fe86c5957d72",
      "to": "0x4ab1decb7d8dd00091e2a6285e99f319aabd5c5e",
      "contractAddress": null,
      "daFootprintGasScalar": "0x138",
      "l1BaseFeeScalar": "0x44d",
      "l1BlobBaseFee": "0xc",
      "l1BlobBaseFeeScalar": "0xa118b",
      "l1Fee": "0x650",
      "l1GasPrice": "0xbc",
      "l1GasUsed": "0x8bc"
    }
  ],
  "libraries": [],
  "pending": [],
  "returns": {},
  "timestamp": 1766148826,
  "chain": 84532,
  "commit": "33a2f051e"
}