{
  "transactions": [
    {
      "hash": "0x9090d0b134e51138c56fccb0673ecc02094d8f141710fb29803a46d5141cb1b6",
      "transactionType": "CALL",
      "contractName": null,
      "contractAddress": "0xab5c685d69f4ea2ec36e6e356a192adaa2338129",
      "function": "setDefaultDVNConfigWithDefaults(uint8,address,address,address,address)",
      "arguments": [
        "0",
        "0x975bcD720be66659e3EB3C0e4F1866a3020E493A",
        "0x7B9E184e07a6EE1aC23eAe0fe8D6Be2f663f05e6",
        "0x2f55C492897526677C5B68fb199ea31E2c126416",
        "0x31CAe3B7fB82d847621859fb1585353c5720660D"
      ],
      "transaction": {
        "from": "0xefa0e8aa84a713f6a6d4de8cc761fe86c5957d72",
        "to": "0xab5c685d69f4ea2ec36e6e356a192adaa2338129",
        "gas": "0x2da86",
        "value": "0x0",
        "input": "0x4e4e17d90000000000000000000000000000000000000000000000000000000000000000000000000000000000000000975bcd720be66659e3eb3c0e4f1866a3020e493a0000000000000000000000007b9e184e07a6ee1ac23eae0fe8d6be2f663f05e60000000000000000000000002f55c492897526677c5b68fb199ea31e2c12641600000000000000000000000031cae3b7fb82d847621859fb1585353c5720660d",
        "nonce": "0x1e",
        "chainId": "0xa4b1"
      },
      "additionalContracts": [],
      "isFixedGasLimit": false
    },
    {
      "hash": "0xb2e7036fd543d12b7ade9c9fd80f160f8d67f8f4c36de1b80945a05bb6166edf",
      "transactionType": "CALL",
      "contractName": null,
      "contractAddress": "0xab5c685d69f4ea2ec36e6e356a192adaa2338129",
      "function": "setDefaultDVNConfigWithDefaults(uint8,address,address,address,address)",
      "arguments": [
        "1",
        "0xB5320B0B3a13cC860893E2Bd79FCd7e13484Dda2",
        "0xc70AB6f32772f59fBfc23889Caf4Ba3376C84bAf",
        "0x9e059a54699a285714207b43B055483E78FAac25",
        "0x2CCA08ae69E0C44b18a57Ab2A87644234dAebaE4"
      ],
      "transaction": {
        "from": "0xefa0e8aa84a713f6a6d4de8cc761fe86c5957d72",
        "to": "0xab5c685d69f4ea2ec36e6e356a192adaa2338129",
        "gas": "0x2da95",
        "value": "0x0",
        "input": "0x4e4e17d90000000000000000000000000000000000000000000000000000000000000001000000000000000000000000b5320b0b3a13cc860893e2bd79fcd7e13484dda2000000000000000000000000c70ab6f32772f59fbfc23889caf4ba3376c84baf0000000000000000000000009e059a54699a285714207b43b055483e78faac250000000000000000000000002cca08ae69e0c44b18a57ab2a87644234daebae4",
        "nonce": "0x1f",
        "chainId": "0xa4b1"
      },
      "additionalContracts": [],
      "isFixedGasLimit": false
    }
  ],
  "receipts": [
    {
      "status": "0x1",
      "cumulativeGasUsed": "0x57c3a",
      "logs": [
        {
          "address": "0xab5c685d69f4ea2ec36e6e356a192adaa2338129",
          "topics": [
            "0xc30b9745f198bb95847e218fb27956e9571a61127a5e6f142a2a3ec1801c669d",
            "0x0000000000000000000000000000000000000000000000000000000000000000"
          ],
          "data": "0x000000000000000000000000975bcd720be66659e3eb3c0e4f1866a3020e493a0000000000000000000000007b9e184e07a6ee1ac23eae0fe8d6be2f663f05e60000000000000000000000002f55c492897526677c5b68fb199ea31e2c12641600000000000000000000000031cae3b7fb82d847621859fb1585353c5720660d000000000000000000000000000000000000000000000000000000000000001400000000000000000000000000000000000000000000000000000000000027100000000000000000000000000000000000000000000000000000000000000000",
          "blockHash": "0x7b3d4da97dedfd341f6a77ecffce11186f5f9414aa4195f0ccbe3e19f89bd97a",
          "blockNumber": "0x18a2b8d7",
          "blockTimestamp": "0x69493c24",
          "transactionHash": "0x9090d0b134e51138c56fccb0673ecc02094d8f141710fb29803a46d5141cb1b6",
          "transactionIndex": "0x2",
          "logIndex": "0x2",
          "removed": false
        }
      ],
      "logsBloom": "0x00000000000000000000000000000000000000000000000000000000000000000000008000000000000000000000000000000000000000000000000000000000000000000002000000000000000000000000000000000000000000000000000000000000020000000000000000000800400000000000000000000000000000000000000000000000000000000000000000000000000000000000000008000000000000000000000000000000000000000000000000000000000000000000000000000000000000000000000000000000000000010000000000000000000020000000000000000000000400000000000000000000000000000000000000000000",
      "type": "0x2",
      "transactionHash": "0x9090d0b134e51138c56fccb0673ecc02094d8f141710fb29803a46d5141cb1b6",
      "transactionIndex": "0x2",
      "blockHash": "0x7b3d4da97dedfd341f6a77ecffce11186f5f9414aa4195f0ccbe3e19f89bd97a",
      "blockNumber": "0x18a2b8d7",
      "gasUsed": "0x22d74",
      "effectiveGasPrice": "0x204ff90",
      "from": "0xefa0e8aa84a713f6a6d4de8cc761fe86c5957d72",
      "to": "0xab5c685d69f4ea2ec36e6e356a192adaa2338129",
      "contractAddress": null,
      "gasUsedForL1": "0x0",
      "l1BlockNumber": "0x16f4071",
      "timeboosted": false
    },
    {
      "status": "0x1",
      "cumulativeGasUsed": "0x21025e",
      "logs": [
        {
          "address": "0xab5c685d69f4ea2ec36e6e356a192adaa2338129",
          "topics": [
            "0xc30b9745f198bb95847e218fb27956e9571a61127a5e6f142a2a3ec1801c669d",
            "0x0000000000000000000000000000000000000000000000000000000000000001"
          ],
          "data": "0x000000000000000000000000b5320b0b3a13cc860893e2bd79fcd7e13484dda2000000000000000000000000c70ab6f32772f59fbfc23889caf4ba3376c84baf0000000000000000000000009e059a54699a285714207b43b055483e78faac250000000000000000000000002cca08ae69e0c44b18a57ab2a87644234daebae4000000000000000000000000000000000000000000000000000000000000001400000000000000000000000000000000000000000000000000000000000027100000000000000000000000000000000000000000000000000000000000000000",
          "blockHash": "0x0eee8f54f9bfd603ae7e01c1f86061e210b49d284de62f7bc738118cd42dc332",
          "blockNumber": "0x18a2b8e3",
          "blockTimestamp": "0x69493c27",
          "transactionHash": "0xb2e7036fd543d12b7ade9c9fd80f160f8d67f8f4c36de1b80945a05bb6166edf",
          "transactionIndex": "0x10",
          "logIndex": "0x22",
          "removed": false
        }
      ],
      "logsBloom": "0x00000000000000000000000000000000000000000000000000000000000000000000008000000000000000000000000000000000000000000000000000040000000000000002000000000000000000000000000000040000000000000000000000000000000000000000000000000000400000000000000000000000000000000000000000000000000000000000000000000000000000000000000008000000000000000000000000000000000000000000000000000000000000000000000000000000000000000000000000000000000000010000000000000000000040000000000000000000000400000000000000000000000000000000000000000000",
      "type": "0x2",
      "transactionHash": "0xb2e7036fd543d12b7ade9c9fd80f160f8d67f8f4c36de1b80945a05bb6166edf",
      "transactionIndex": "0x10",
      "blockHash": "0x0eee8f54f9bfd603ae7e01c1f86061e210b49d284de62f7bc738118cd42dc332",
      "blockNumber": "0x18a2b8e3",
      "gasUsed": "0x22d80",
      "effectiveGasPrice": "0x1fe0280",
      "from": "0xefa0e8aa84a713f6a6d4de8cc761fe86c5957d72",
      "to": "0xab5c685d69f4ea2ec36e6e356a192adaa2338129",
      "contractAddress": null,
      "gasUsedForL1": "0x0",
      "l1BlockNumber": "0x16f4071",
      "timeboosted": false
    }
  ],
  "libraries": [],
  "pending": [],
  "returns": {},
  "timestamp": 1766407210,
  "chain": 42161,
  "commit": "43d1dd2a2"
}