{
  "transactions": [
    {
      "hash": "0x87d0e5d8c8cd35c0252fe7fe5c46753714d14e4297db142d16c38207b2e48d6f",
      "transactionType": "CALL",
      "contractName": null,
      "contractAddress": "0x989fb51453c6294ec62d38a4d27a300b4f17f16b",
      "function": "setDefaultDVNConfigWithDefaults(uint8,address,address,address,address)",
      "arguments": [
        "0",
        "0x975bcD720be66659e3EB3C0e4F1866a3020E493A",
        "0xc70AB6f32772f59fBfc23889Caf4Ba3376C84bAf",
        "0x2f55C492897526677C5B68fb199ea31E2c126416",
        "0x31CAe3B7fB82d847621859fb1585353c5720660D"
      ],
      "transaction": {
        "from": "0xefa0e8aa84a713f6a6d4de8cc761fe86c5957d72",
        "to": "0x989fb51453c6294ec62d38a4d27a300b4f17f16b",
        "gas": "0x2da86",
        "value": "0x0",
        "input": "0x4e4e17d90000000000000000000000000000000000000000000000000000000000000000000000000000000000000000975bcd720be66659e3eb3c0e4f1866a3020e493a000000000000000000000000c70ab6f32772f59fbfc23889caf4ba3376c84baf0000000000000000000000002f55c492897526677c5b68fb199ea31e2c12641600000000000000000000000031cae3b7fb82d847621859fb1585353c5720660d",
        "nonce": "0x11",
        "chainId": "0xa4b1"
      },
      "additionalContracts": [],
      "isFixedGasLimit": false
    },
    {
      "hash": "0xf5ec35f53c10442c25657f68ee74d34e2129cb33dea78e37d22afac38124d9d6",
      "transactionType": "CALL",
      "contractName": null,
      "contractAddress": "0x989fb51453c6294ec62d38a4d27a300b4f17f16b",
      "function": "setDefaultDVNConfigWithDefaults(uint8,address,address,address,address)",
      "arguments": [
        "1",
        "0xB5320B0B3a13cC860893E2Bd79FCd7e13484Dda2",
        "0x7B9E184e07a6EE1aC23eAe0fe8D6Be2f663f05e6",
        "0x9e059a54699a285714207b43B055483E78FAac25",
        "0x2CCA08ae69E0C44b18a57Ab2A87644234dAebaE4"
      ],
      "transaction": {
        "from": "0xefa0e8aa84a713f6a6d4de8cc761fe86c5957d72",
        "to": "0x989fb51453c6294ec62d38a4d27a300b4f17f16b",
        "gas": "0x2da95",
        "value": "0x0",
        "input": "0x4e4e17d90000000000000000000000000000000000000000000000000000000000000001000000000000000000000000b5320b0b3a13cc860893e2bd79fcd7e13484dda20000000000000000000000007b9e184e07a6ee1ac23eae0fe8d6be2f663f05e60000000000000000000000009e059a54699a285714207b43b055483e78faac250000000000000000000000002cca08ae69e0c44b18a57ab2a87644234daebae4",
        "nonce": "0x12",
        "chainId": "0xa4b1"
      },
      "additionalContracts": [],
      "isFixedGasLimit": false
    }
  ],
  "receipts": [
    {
      "status": "0x1",
      "cumulativeGasUsed": "0x329a9",
      "logs": [
        {
          "address": "0x989fb51453c6294ec62d38a4d27a300b4f17f16b",
          "topics": [
            "0xc30b9745f198bb95847e218fb27956e9571a61127a5e6f142a2a3ec1801c669d",
            "0x0000000000000000000000000000000000000000000000000000000000000000"
          ],
          "data": "0x000000000000000000000000975bcd720be66659e3eb3c0e4f1866a3020e493a000000000000000000000000c70ab6f32772f59fbfc23889caf4ba3376c84baf0000000000000000000000002f55c492897526677c5b68fb199ea31e2c12641600000000000000000000000031cae3b7fb82d847621859fb1585353c5720660d000000000000000000000000000000000000000000000000000000000000001400000000000000000000000000000000000000000000000000000000000027100000000000000000000000000000000000000000000000000000000000000000",
          "blockHash": "0xf542a5edb9704f3436123fdf595d25d1f785c8e908578be02a575ee0613ee806",
          "blockNumber": "0x18942fb8",
          "blockTimestamp": "0x69459a2c",
          "transactionHash": "0x87d0e5d8c8cd35c0252fe7fe5c46753714d14e4297db142d16c38207b2e48d6f",
          "transactionIndex": "0x2",
          "logIndex": "0x0",
          "removed": false
        }
      ],
      "logsBloom": "0x00002000000000000000000000000000000000000000000000000000000000000000000000000000000000000000000000000000000000000000000000000000000000000002040000000000000000000000000000000000000000000000000000000000020000000000000000000800400000000000000000000000000000000000000000000000000000000000000000000000080000000000000000000000000000000000000000000000000000000000000000000000000000000000000000000000000000000000000000000000000000010000000000000000000020000000000000000000000000000000000000000000000000000000000000000000",
      "type": "0x2",
      "transactionHash": "0x87d0e5d8c8cd35c0252fe7fe5c46753714d14e4297db142d16c38207b2e48d6f",
      "transactionIndex": "0x2",
      "blockHash": "0xf542a5edb9704f3436123fdf595d25d1f785c8e908578be02a575ee0613ee806",
      "blockNumber": "0x18942fb8",
      "gasUsed": "0x22d74",
      "effectiveGasPrice": "0x989680",
      "from": "0xefa0e8aa84a713f6a6d4de8cc761fe86c5957d72",
      "to": "0x989fb51453c6294ec62d38a4d27a300b4f17f16b",
      "contractAddress": null,
      "gasUsedForL1": "0x0",
      "l1BlockNumber": "0x16ef342",
      "timeboosted": false
    },
    {
      "status": "0x1",
      "cumulativeGasUsed": "0x22d80",
      "logs": [
        {
          "address": "0x989fb51453c6294ec62d38a4d27a300b4f17f16b",
          "topics": [
            "0xc30b9745f198bb95847e218fb27956e9571a61127a5e6f142a2a3ec1801c669d",
            "0x0000000000000000000000000000000000000000000000000000000000000001"
          ],
          "data": "0x000000000000000000000000b5320b0b3a13cc860893e2bd79fcd7e13484dda20000000000000000000000007b9e184e07a6ee1ac23eae0fe8d6be2f663f05e60000000000000000000000009e059a54699a285714207b43b055483e78faac250000000000000000000000002cca08ae69e0c44b18a57ab2a87644234daebae4000000000000000000000000000000000000000000000000000000000000001400000000000000000000000000000000000000000000000000000000000027100000000000000000000000000000000000000000000000000000000000000000",
          "blockHash": "0xcce5af34e5fdda75a6093aac2644eb3d0c892640cbb00fd9cea943237f878bab",
          "blockNumber": "0x18942fc5",
          "blockTimestamp": "0x69459a2f",
          "transactionHash": "0xf5ec35f53c10442c25657f68ee74d34e2129cb33dea78e37d22afac38124d9d6",
          "transactionIndex": "0x1",
          "logIndex": "0x0",
          "removed": false
        }
      ],
      "logsBloom": "0x00002000000000000000000000000000000000000000000000000000000000000000000000000000000000000000000000000000000000000000000000040000000000000002040000000000000000000000000000040000000000000000000000000000000000000000000000000000400000000000000000000000000000000000000000000000000000000000000000000000080000000000000000000000000000000000000000000000000000000000000000000000000000000000000000000000000000000000000000000000000000010000000000000000000040000000000000000000000000000000000000000000000000000000000000000000",
      "type": "0x2",
      "transactionHash": "0xf5ec35f53c10442c25657f68ee74d34e2129cb33dea78e37d22afac38124d9d6",
      "transactionIndex": "0x1",
      "blockHash": "0xcce5af34e5fdda75a6093aac2644eb3d0c892640cbb00fd9cea943237f878bab",
      "blockNumber": "0x18942fc5",
      "gasUsed": "0x22d80",
      "effectiveGasPrice": "0x989680",
      "from": "0xefa0e8aa84a713f6a6d4de8cc761fe86c5957d72",
      "to": "0x989fb51453c6294ec62d38a4d27a300b4f17f16b",
      "contractAddress": null,
      "gasUsedForL1": "0x0",
      "l1BlockNumber": "0x16ef342",
      "timeboosted": false
    }
  ],
  "libraries": [],
  "pending": [],
  "returns": {},
  "timestamp": 1766169137,
  "chain": 42161,
  "commit": "5e99841a7"
}