{
  "transactions": [
    {
      "hash": "0x7ea5c88a9c63c96b362446cabbb6c7dab17de2fdfe7bba5a79971f1b9200e4b1",
      "transactionType": "CALL",
      "contractName": null,
      "contractAddress": "0x1a44076050125825900e736c501f859c50fe728c",
      "function": "setReceiveLibrary(address,uint32,address,uint256)",
      "arguments": [
        "0xC304B7052B385A631dfcC4d97206a12A346cddAd",
        "30109",
        "0x7B9E184e07a6EE1aC23eAe0fe8D6Be2f663f05e6",
        "0"
      ],
      "transaction": {
        "from": "0xdb5af497a73620d881561edb508012a5f84e9ba2",
        "to": "0x1a44076050125825900e736c501f859c50fe728c",
        "gas": "0x14b60",
        "value": "0x0",
        "input": "0x6a14d715000000000000000000000000c304b7052b385a631dfcc4d97206a12a346cddad000000000000000000000000000000000000000000000000000000000000759d0000000000000000000000007b9e184e07a6ee1ac23eae0fe8d6be2f663f05e60000000000000000000000000000000000000000000000000000000000000000",
        "nonce": "0x12c1",
        "chainId": "0xa4b1"
      },
      "additionalContracts": [],
      "isFixedGasLimit": false
    },
    {
      "hash": "0x9964a485921295e3c3ac20811dec2bca07d9f019bb8c70883a5d6d3c43f91baf",
      "transactionType": "CALL",
      "contractName": null,
      "contractAddress": "0x1a44076050125825900e736c501f859c50fe728c",
      "function": "setConfig(address,address,(uint32,uint32,bytes)[])",
      "arguments": [
        "0xC304B7052B385A631dfcC4d97206a12A346cddAd",
        "0x7B9E184e07a6EE1aC23eAe0fe8D6Be2f663f05e6",
        "[(30109, 2, 0x00000000000000000000000000000000000000000000000000000000000000200000000000000000000000000000000000000000000000000000000000000014000000000000000000000000000000000000000000000000000000000000000200000000000000000000000000000000000000000000000000000000000000ff000000000000000000000000000000000000000000000000000000000000000000000000000000000000000000000000000000000000000000000000000000c00000000000000000000000000000000000000000000000000000000000000120000000000000000000000000000000000000000000000000000000000000000200000000000000000000000023de2fe932d9043291f870324b74f820e11dc81a000000000000000000000000d56e4eab23cb81f43168f9f45211eb027b9ac7cc0000000000000000000000000000000000000000000000000000000000000000)]"
      ],
      "transaction": {
        "from": "0xdb5af497a73620d881561edb508012a5f84e9ba2",
        "to": "0x1a44076050125825900e736c501f859c50fe728c",
        "gas": "0x2ccca",
        "value": "0x0",
        "input": "0x6dbd9f90000000000000000000000000c304b7052b385a631dfcc4d97206a12a346cddad0000000000000000000000007b9e184e07a6ee1ac23eae0fe8d6be2f663f05e6000000000000000000000000000000000000000000000000000000000000006000000000000000000000000000000000000000000000000000000000000000010000000000000000000000000000000000000000000000000000000000000020000000000000000000000000000000000000000000000000000000000000759d00000000000000000000000000000000000000000000000000000000000000020000000000000000000000000000000000000000000000000000000000000060000000000000000000000000000000000000000000000000000000000000016000000000000000000000000000000000000000000000000000000000000000200000000000000000000000000000000000000000000000000000000000000014000000000000000000000000000000000000000000000000000000000000000200000000000000000000000000000000000000000000000000000000000000ff000000000000000000000000000000000000000000000000000000000000000000000000000000000000000000000000000000000000000000000000000000c00000000000000000000000000000000000000000000000000000000000000120000000000000000000000000000000000000000000000000000000000000000200000000000000000000000023de2fe932d9043291f870324b74f820e11dc81a000000000000000000000000d56e4eab23cb81f43168f9f45211eb027b9ac7cc0000000000000000000000000000000000000000000000000000000000000000",
        "nonce": "0x12c2",
        "chainId": "0xa4b1"
      },
      "additionalContracts": [],
      "isFixedGasLimit": false
    }
  ],
  "receipts": [
    {
      "status": "0x1",
      "cumulativeGasUsed": "0x191f0",
      "logs": [
        {
          "address": "0x1a44076050125825900e736c501f859c50fe728c",
          "topics": [
            "0xcd6f92f5ac6185a5acfa02c92090746cec64d777269cbcd0ed031e396657a1c2"
          ],
          "data": "0x000000000000000000000000c304b7052b385a631dfcc4d97206a12a346cddad000000000000000000000000000000000000000000000000000000000000759d0000000000000000000000007b9e184e07a6ee1ac23eae0fe8d6be2f663f05e6",
          "blockHash": "0x7e88e87539cdfe08a2b9ee0560cc79f97b2101a1d104166369293cc0b30c2930",
          "blockNumber": "0x18f7e904",
          "blockTimestamp": "0x695e8362",
          "transactionHash": "0x7ea5c88a9c63c96b362446cabbb6c7dab17de2fdfe7bba5a79971f1b9200e4b1",
          "transactionIndex": "0x2",
          "logIndex": "0x0",
          "removed": false
        },
        {
          "address": "0x1a44076050125825900e736c501f859c50fe728c",
          "topics": [
            "0x4e0a5bbfa0c11a64effb1ada324b5437a17272e1aed9320398715ef71bb20928"
          ],
          "data": "0x000000000000000000000000c304b7052b385a631dfcc4d97206a12a346cddad000000000000000000000000000000000000000000000000000000000000759d00000000000000000000000000000000000000000000000000000000000000000000000000000000000000000000000000000000000000000000000000000000",
          "blockHash": "0x7e88e87539cdfe08a2b9ee0560cc79f97b2101a1d104166369293cc0b30c2930",
          "blockNumber": "0x18f7e904",
          "blockTimestamp": "0x695e8362",
          "transactionHash": "0x7ea5c88a9c63c96b362446cabbb6c7dab17de2fdfe7bba5a79971f1b9200e4b1",
          "transactionIndex": "0x2",
          "logIndex": "0x1",
          "removed": false
        }
      ],
      "logsBloom": "0x00000000000000000000020800000000000000000000000000000000001000020400000000000000000000000000000000000000000000000000000000000000000000000000000000000000000000000000000000800000000000000000000000000000000000000000000000000000000000000010000000000000000000100000000000000000000000000000000000000000000000000000000000000000000000000000000000000000000000000000000000000000000000000000000000000000000000000000000000000000000000000000000000000000000000000000000000000000000000000000000000000000010000000000000000000000",
      "type": "0x2",
      "transactionHash": "0x7ea5c88a9c63c96b362446cabbb6c7dab17de2fdfe7bba5a79971f1b9200e4b1",
      "transactionIndex": "0x2",
      "blockHash": "0x7e88e87539cdfe08a2b9ee0560cc79f97b2101a1d104166369293cc0b30c2930",
      "blockNumber": "0x18f7e904",
      "gasUsed": "0xfba1",
      "effectiveGasPrice": "0x989680",
      "from": "0xdb5af497a73620d881561edb508012a5f84e9ba2",
      "to": "0x1a44076050125825900e736c501f859c50fe728c",
      "contractAddress": null,
      "gasUsedForL1": "0x0",
      "l1BlockNumber": "0x1710437",
      "timeboosted": false
    },
    {
      "status": "0x1",
      "cumulativeGasUsed": "0x21e83",
      "logs": [
        {
          "address": "0x7b9e184e07a6ee1ac23eae0fe8d6be2f663f05e6",
          "topics": [
            "0x82118522aa536ac0e96cc5c689407ae42b89d592aa133890a01f1509842f5081"
          ],
          "data": "0x000000000000000000000000c304b7052b385a631dfcc4d97206a12a346cddad000000000000000000000000000000000000000000000000000000000000759d00000000000000000000000000000000000000000000000000000000000000600000000000000000000000000000000000000000000000000000000000000014000000000000000000000000000000000000000000000000000000000000000200000000000000000000000000000000000000000000000000000000000000ff000000000000000000000000000000000000000000000000000000000000000000000000000000000000000000000000000000000000000000000000000000c00000000000000000000000000000000000000000000000000000000000000120000000000000000000000000000000000000000000000000000000000000000200000000000000000000000023de2fe932d9043291f870324b74f820e11dc81a000000000000000000000000d56e4eab23cb81f43168f9f45211eb027b9ac7cc0000000000000000000000000000000000000000000000000000000000000000",
          "blockHash": "0xf8fe069c5a5c235346885bc165e3e40556889a00f835bd45ebcacba4ec9c00a9",
          "blockNumber": "0x18f7e911",
          "blockTimestamp": "0x695e8365",
          "transactionHash": "0x9964a485921295e3c3ac20811dec2bca07d9f019bb8c70883a5d6d3c43f91baf",
          "transactionIndex": "0x1",
          "logIndex": "0x0",
          "removed": false
        }
      ],
      "logsBloom": "0x00000000000020000000000000000000000000000000000000000000000000000000000000000000000000000000000000000000000000000000000000000000000000000000000000000000000000020000000000000000002000000000000000000000000000000000000000000000000000000000008000000000000000000000000000000000000000000000000000000000000000000000000000000000000000000000000000000002000000000000000000000000000000000000000000000000000000000000000000000000000000000000000000000000000000000000000000000000000000000000000000000000000000000000000000000010",
      "type": "0x2",
      "transactionHash": "0x9964a485921295e3c3ac20811dec2bca07d9f019bb8c70883a5d6d3c43f91baf",
      "transactionIndex": "0x1",
      "blockHash": "0xf8fe069c5a5c235346885bc165e3e40556889a00f835bd45ebcacba4ec9c00a9",
      "blockNumber": "0x18f7e911",
      "gasUsed": "0x21e83",
      "effectiveGasPrice": "0x989680",
      "from": "0xdb5af497a73620d881561edb508012a5f84e9ba2",
      "to": "0x1a44076050125825900e736c501f859c50fe728c",
      "contractAddress": null,
      "gasUsedForL1": "0x0",
      "l1BlockNumber": "0x1710439",
      "timeboosted": false
    }
  ],
  "libraries": [],
  "pending": [],
  "returns": {},
  "timestamp": 1767801704,
  "chain": 42161,
  "commit": "7a32c6575"
}