{
  "transactions": [
    {
      "hash": "0xd8fb4c97be48e2c3e062d560fef9605da28c3e21010b93fbee29fab34e680dc2",
      "transactionType": "CALL",
      "contractName": null,
      "contractAddress": "0x1a44076050125825900e736c501f859c50fe728c",
      "function": "setConfig(address,address,(uint32,uint32,bytes)[])",
      "arguments": [
        "0x617AdeA1dC03444481d73FdCB15644A191F74944",
        "0x975bcD720be66659e3EB3C0e4F1866a3020E493A",
        "[(30109, 1, 0x000000000000000000000000000000000000000000000000000000000000271000000000000000000000000031cae3b7fb82d847621859fb1585353c5720660d), (30109, 2, 0x00000000000000000000000000000000000000000000000000000000000000200000000000000000000000000000000000000000000000000000000000000014000000000000000000000000000000000000000000000000000000000000000100000000000000000000000000000000000000000000000000000000000000ff000000000000000000000000000000000000000000000000000000000000000000000000000000000000000000000000000000000000000000000000000000c000000000000000000000000000000000000000000000000000000000000001000000000000000000000000000000000000000000000000000000000000000001000000000000000000000000ddaa92ce2d2fac3f7c5eae19136e438902ab46cc0000000000000000000000000000000000000000000000000000000000000000)]"
      ],
      "transaction": {
        "from": "0xdb5af497a73620d881561edb508012a5f84e9ba2",
        "to": "0x1a44076050125825900e736c501f859c50fe728c",
        "gas": "0x156bb",
        "value": "0x0",
        "input": "0x6dbd9f90000000000000000000000000617adea1dc03444481d73fdcb15644a191f74944000000000000000000000000975bcd720be66659e3eb3c0e4f1866a3020e493a0000000000000000000000000000000000000000000000000000000000000060000000000000000000000000000000000000000000000000000000000000000200000000000000000000000000000000000000000000000000000000000000400000000000000000000000000000000000000000000000000000000000000100000000000000000000000000000000000000000000000000000000000000759d000000000000000000000000000000000000000000000000000000000000000100000000000000000000000000000000000000000000000000000000000000600000000000000000000000000000000000000000000000000000000000000040000000000000000000000000000000000000000000000000000000000000271000000000000000000000000031cae3b7fb82d847621859fb1585353c5720660d000000000000000000000000000000000000000000000000000000000000759d00000000000000000000000000000000000000000000000000000000000000020000000000000000000000000000000000000000000000000000000000000060000000000000000000000000000000000000000000000000000000000000014000000000000000000000000000000000000000000000000000000000000000200000000000000000000000000000000000000000000000000000000000000014000000000000000000000000000000000000000000000000000000000000000100000000000000000000000000000000000000000000000000000000000000ff000000000000000000000000000000000000000000000000000000000000000000000000000000000000000000000000000000000000000000000000000000c000000000000000000000000000000000000000000000000000000000000001000000000000000000000000000000000000000000000000000000000000000001000000000000000000000000ddaa92ce2d2fac3f7c5eae19136e438902ab46cc0000000000000000000000000000000000000000000000000000000000000000",
        "nonce": "0x12ad",
        "chainId": "0xa4b1"
      },
      "additionalContracts": [],
      "isFixedGasLimit": false
    }
  ],
  "receipts": [
    {
      "status": "0x1",
      "cumulativeGasUsed": "0x27f17",
      "logs": [
        {
          "address": "0x975bcd720be66659e3eb3c0e4f1866a3020e493a",
          "topics": [
            "0x779cb2dd9d2bb1be1737d05435d744facbfb84a2a4912e21379d39beddcdc805"
          ],
          "data": "0x000000000000000000000000617adea1dc03444481d73fdcb15644a191f74944000000000000000000000000000000000000000000000000000000000000759d000000000000000000000000000000000000000000000000000000000000271000000000000000000000000031cae3b7fb82d847621859fb1585353c5720660d",
          "blockHash": "0x60b5e097e230c78e606200a63bf42779fc97421928d069d882ac6b71af61ce29",
          "blockNumber": "0x1880140f",
          "blockTimestamp": "0x69409576",
          "transactionHash": "0xd8fb4c97be48e2c3e062d560fef9605da28c3e21010b93fbee29fab34e680dc2",
          "transactionIndex": "0x3",
          "logIndex": "0x1",
          "removed": false
        },
        {
          "address": "0x975bcd720be66659e3eb3c0e4f1866a3020e493a",
          "topics": [
            "0x82118522aa536ac0e96cc5c689407ae42b89d592aa133890a01f1509842f5081"
          ],
          "data": "0x000000000000000000000000617adea1dc03444481d73fdcb15644a191f74944000000000000000000000000000000000000000000000000000000000000759d00000000000000000000000000000000000000000000000000000000000000600000000000000000000000000000000000000000000000000000000000000014000000000000000000000000000000000000000000000000000000000000000100000000000000000000000000000000000000000000000000000000000000ff000000000000000000000000000000000000000000000000000000000000000000000000000000000000000000000000000000000000000000000000000000c000000000000000000000000000000000000000000000000000000000000001000000000000000000000000000000000000000000000000000000000000000001000000000000000000000000ddaa92ce2d2fac3f7c5eae19136e438902ab46cc0000000000000000000000000000000000000000000000000000000000000000",
          "blockHash": "0x60b5e097e230c78e606200a63bf42779fc97421928d069d882ac6b71af61ce29",
          "blockNumber": "0x1880140f",
          "blockTimestamp": "0x69409576",
          "transactionHash": "0xd8fb4c97be48e2c3e062d560fef9605da28c3e21010b93fbee29fab34e680dc2",
          "transactionIndex": "0x3",
          "logIndex": "0x2",
          "removed": false
        }
      ],
      "logsBloom": "0x00000000000000000000000000000000000000000000000000000000000000000000000000000000000000000000000000000000000400000000000000000000000000000000000000000040000000000000000000000000002000000000000000000000000800000000000000000000000000000000000000000000000000000000000000000000000000000000000000000000000000000000000000000000000000000000000000000002000000000000000000000000000000000000008200000000000000000000000000000000000000000000000000000000000000000008000000000000000000000000000000000000000000000000000000000010",
      "type": "0x2",
      "transactionHash": "0xd8fb4c97be48e2c3e062d560fef9605da28c3e21010b93fbee29fab34e680dc2",
      "transactionIndex": "0x3",
      "blockHash": "0x60b5e097e230c78e606200a63bf42779fc97421928d069d882ac6b71af61ce29",
      "blockNumber": "0x1880140f",
      "gasUsed": "0x10455",
      "effectiveGasPrice": "0x989680",
      "from": "0xdb5af497a73620d881561edb508012a5f84e9ba2",
      "to": "0x1a44076050125825900e736c501f859c50fe728c",
      "contractAddress": null,
      "gasUsedForL1": "0x0",
      "l1BlockNumber": "0x16e88cd",
      "timeboosted": false
    }
  ],
  "libraries": [],
  "pending": [],
  "returns": {},
  "timestamp": 1765840248160,
  "chain": 42161,
  "commit": "6bf3a0df2"
}