{
  "transactions": [
    {
      "hash": "0xa117b7b8e9da90a96fe5a42cf19ee88fcf64088aa69ef92936a192ec59dfa84d",
      "transactionType": "CALL",
      "contractName": null,
      "contractAddress": "0x1a44076050125825900e736c501f859c50fe728c",
      "function": "setConfig(address,address,(uint32,uint32,bytes)[])",
      "arguments": [
        "0x617AdeA1dC03444481d73FdCB15644A191F74944",
        "0x975bcD720be66659e3EB3C0e4F1866a3020E493A",
        "[(30110, 1, 0x000000000000000000000000000000000000000000000000000000000000271000000000000000000000000031cae3b7fb82d847621859fb1585353c5720660d), (30110, 2, 0x00000000000000000000000000000000000000000000000000000000000000200000000000000000000000000000000000000000000000000000000000000014000000000000000000000000000000000000000000000000000000000000000100000000000000000000000000000000000000000000000000000000000000ff000000000000000000000000000000000000000000000000000000000000000000000000000000000000000000000000000000000000000000000000000000c0000000000000000000000000000000000000000000000000000000000000010000000000000000000000000000000000000000000000000000000000000000010000000000000000000000009c8d8a224545c15024cb50c7c02cf3ea9aa1bf360000000000000000000000000000000000000000000000000000000000000000)]"
      ],
      "transaction": {
        "from": "0xdb5af497a73620d881561edb508012a5f84e9ba2",
        "to": "0x1a44076050125825900e736c501f859c50fe728c",
        "gas": "0x23516",
        "value": "0x0",
        "input": "0x6dbd9f90000000000000000000000000617adea1dc03444481d73fdcb15644a191f74944000000000000000000000000975bcd720be66659e3eb3c0e4f1866a3020e493a0000000000000000000000000000000000000000000000000000000000000060000000000000000000000000000000000000000000000000000000000000000200000000000000000000000000000000000000000000000000000000000000400000000000000000000000000000000000000000000000000000000000000100000000000000000000000000000000000000000000000000000000000000759e000000000000000000000000000000000000000000000000000000000000000100000000000000000000000000000000000000000000000000000000000000600000000000000000000000000000000000000000000000000000000000000040000000000000000000000000000000000000000000000000000000000000271000000000000000000000000031cae3b7fb82d847621859fb1585353c5720660d000000000000000000000000000000000000000000000000000000000000759e00000000000000000000000000000000000000000000000000000000000000020000000000000000000000000000000000000000000000000000000000000060000000000000000000000000000000000000000000000000000000000000014000000000000000000000000000000000000000000000000000000000000000200000000000000000000000000000000000000000000000000000000000000014000000000000000000000000000000000000000000000000000000000000000100000000000000000000000000000000000000000000000000000000000000ff000000000000000000000000000000000000000000000000000000000000000000000000000000000000000000000000000000000000000000000000000000c0000000000000000000000000000000000000000000000000000000000000010000000000000000000000000000000000000000000000000000000000000000010000000000000000000000009c8d8a224545c15024cb50c7c02cf3ea9aa1bf360000000000000000000000000000000000000000000000000000000000000000",
        "nonce": "0x12a7",
        "chainId": "0xa4b1"
      },
      "additionalContracts": [],
      "isFixedGasLimit": false
    }
  ],
  "receipts": [
    {
      "status": "0x1",
      "cumulativeGasUsed": "0x786a0",
      "logs": [
        {
          "address": "0x975bcd720be66659e3eb3c0e4f1866a3020e493a",
          "topics": [
            "0x779cb2dd9d2bb1be1737d05435d744facbfb84a2a4912e21379d39beddcdc805"
          ],
          "data": "0x000000000000000000000000617adea1dc03444481d73fdcb15644a191f74944000000000000000000000000000000000000000000000000000000000000759e000000000000000000000000000000000000000000000000000000000000271000000000000000000000000031cae3b7fb82d847621859fb1585353c5720660d",
          "blockHash": "0x588bbc92004def43c398f8d13f145f4d9a7c38b4b2e668ca1e7faef9cd822a87",
          "blockNumber": "0x188003fc",
          "blockTimestamp": "0x69409172",
          "transactionHash": "0xa117b7b8e9da90a96fe5a42cf19ee88fcf64088aa69ef92936a192ec59dfa84d",
          "transactionIndex": "0x5",
          "logIndex": "0x2",
          "removed": false
        },
        {
          "address": "0x975bcd720be66659e3eb3c0e4f1866a3020e493a",
          "topics": [
            "0x82118522aa536ac0e96cc5c689407ae42b89d592aa133890a01f1509842f5081"
          ],
          "data": "0x000000000000000000000000617adea1dc03444481d73fdcb15644a191f74944000000000000000000000000000000000000000000000000000000000000759e00000000000000000000000000000000000000000000000000000000000000600000000000000000000000000000000000000000000000000000000000000014000000000000000000000000000000000000000000000000000000000000000100000000000000000000000000000000000000000000000000000000000000ff000000000000000000000000000000000000000000000000000000000000000000000000000000000000000000000000000000000000000000000000000000c0000000000000000000000000000000000000000000000000000000000000010000000000000000000000000000000000000000000000000000000000000000010000000000000000000000009c8d8a224545c15024cb50c7c02cf3ea9aa1bf360000000000000000000000000000000000000000000000000000000000000000",
          "blockHash": "0x588bbc92004def43c398f8d13f145f4d9a7c38b4b2e668ca1e7faef9cd822a87",
          "blockNumber": "0x188003fc",
          "blockTimestamp": "0x69409172",
          "transactionHash": "0xa117b7b8e9da90a96fe5a42cf19ee88fcf64088aa69ef92936a192ec59dfa84d",
          "transactionIndex": "0x5",
          "logIndex": "0x3",
          "removed": false
        }
      ],
      "logsBloom": "0x00000000000000000000000000000000000000000000000000000000000000000000000000000000000000000000000000000000000400000000000000000000000000000000000000000040000000000000000000000000002000000000000000000000000800000000000000000000000000000000000000000000000000000000000000000000000000000000000000000000000000000000000000000000000000000000000000000002000000000000000000000000000000000000008200000000000000000000000000000000000000000000000000000000000000000008000000000000000000000000000000000000000000000000000000000010",
      "type": "0x2",
      "transactionHash": "0xa117b7b8e9da90a96fe5a42cf19ee88fcf64088aa69ef92936a192ec59dfa84d",
      "transactionIndex": "0x5",
      "blockHash": "0x588bbc92004def43c398f8d13f145f4d9a7c38b4b2e668ca1e7faef9cd822a87",
      "blockNumber": "0x188003fc",
      "gasUsed": "0x1aabd",
      "effectiveGasPrice": "0x989680",
      "from": "0xdb5af497a73620d881561edb508012a5f84e9ba2",
      "to": "0x1a44076050125825900e736c501f859c50fe728c",
      "contractAddress": null,
      "gasUsedForL1": "0x0",
      "l1BlockNumber": "0x16e8878",
      "timeboosted": false
    }
  ],
  "libraries": [],
  "pending": [],
  "returns": {},
  "timestamp": 1765839220159,
  "chain": 42161,
  "commit": "6bf3a0df2"
}