{
  "transactions": [
    {
      "hash": "0xd99e631e30596cc39d26f6cb98e734fd50c628c1df514f4a0a4ebda0fcb9574e",
      "transactionType": "CALL",
      "contractName": null,
      "contractAddress": "0x1a44076050125825900e736c501f859c50fe728c",
      "function": "setConfig(address,address,(uint32,uint32,bytes)[])",
      "arguments": [
        "0x617AdeA1dC03444481d73FdCB15644A191F74944",
        "0x975bcD720be66659e3EB3C0e4F1866a3020E493A",
        "[(30109, 1, 0x000000000000000000000000000000000000000000000000000000000000271000000000000000000000000031cae3b7fb82d847621859fb1585353c5720660d), (30109, 2, 0x00000000000000000000000000000000000000000000000000000000000000200000000000000000000000000000000000000000000000000000000000000014000000000000000000000000000000000000000000000000000000000000000000000000000000000000000000000000000000000000000000000000000000ff000000000000000000000000000000000000000000000000000000000000000000000000000000000000000000000000000000000000000000000000000000c000000000000000000000000000000000000000000000000000000000000000e000000000000000000000000000000000000000000000000000000000000000000000000000000000000000000000000000000000000000000000000000000000)]"
      ],
      "transaction": {
        "from": "0xdb5af497a73620d881561edb508012a5f84e9ba2",
        "to": "0x1a44076050125825900e736c501f859c50fe728c",
        "gas": "0x18c69",
        "value": "0x0",
        "input": "0x6dbd9f90000000000000000000000000617adea1dc03444481d73fdcb15644a191f74944000000000000000000000000975bcd720be66659e3eb3c0e4f1866a3020e493a0000000000000000000000000000000000000000000000000000000000000060000000000000000000000000000000000000000000000000000000000000000200000000000000000000000000000000000000000000000000000000000000400000000000000000000000000000000000000000000000000000000000000100000000000000000000000000000000000000000000000000000000000000759d000000000000000000000000000000000000000000000000000000000000000100000000000000000000000000000000000000000000000000000000000000600000000000000000000000000000000000000000000000000000000000000040000000000000000000000000000000000000000000000000000000000000271000000000000000000000000031cae3b7fb82d847621859fb1585353c5720660d000000000000000000000000000000000000000000000000000000000000759d00000000000000000000000000000000000000000000000000000000000000020000000000000000000000000000000000000000000000000000000000000060000000000000000000000000000000000000000000000000000000000000012000000000000000000000000000000000000000000000000000000000000000200000000000000000000000000000000000000000000000000000000000000014000000000000000000000000000000000000000000000000000000000000000000000000000000000000000000000000000000000000000000000000000000ff000000000000000000000000000000000000000000000000000000000000000000000000000000000000000000000000000000000000000000000000000000c000000000000000000000000000000000000000000000000000000000000000e000000000000000000000000000000000000000000000000000000000000000000000000000000000000000000000000000000000000000000000000000000000",
        "nonce": "0x12a4",
        "chainId": "0xa4b1"
      },
      "additionalContracts": [],
      "isFixedGasLimit": false
    }
  ],
  "receipts": [
    {
      "status": "0x1",
      "cumulativeGasUsed": "0x25f9c",
      "logs": [
        {
          "address": "0x975bcd720be66659e3eb3c0e4f1866a3020e493a",
          "topics": [
            "0x779cb2dd9d2bb1be1737d05435d744facbfb84a2a4912e21379d39beddcdc805"
          ],
          "data": "0x000000000000000000000000617adea1dc03444481d73fdcb15644a191f74944000000000000000000000000000000000000000000000000000000000000759d000000000000000000000000000000000000000000000000000000000000271000000000000000000000000031cae3b7fb82d847621859fb1585353c5720660d",
          "blockHash": "0x2b36b1aee1cb5fa70a14caee2be9f48c4dc0890470cb4c1b24847a78eccd175d",
          "blockNumber": "0x187fdfc4",
          "blockTimestamp": "0x69408866",
          "transactionHash": "0xd99e631e30596cc39d26f6cb98e734fd50c628c1df514f4a0a4ebda0fcb9574e",
          "transactionIndex": "0x3",
          "logIndex": "0x0",
          "removed": false
        },
        {
          "address": "0x975bcd720be66659e3eb3c0e4f1866a3020e493a",
          "topics": [
            "0x82118522aa536ac0e96cc5c689407ae42b89d592aa133890a01f1509842f5081"
          ],
          "data": "0x000000000000000000000000617adea1dc03444481d73fdcb15644a191f74944000000000000000000000000000000000000000000000000000000000000759d00000000000000000000000000000000000000000000000000000000000000600000000000000000000000000000000000000000000000000000000000000014000000000000000000000000000000000000000000000000000000000000000000000000000000000000000000000000000000000000000000000000000000ff000000000000000000000000000000000000000000000000000000000000000000000000000000000000000000000000000000000000000000000000000000c000000000000000000000000000000000000000000000000000000000000000e000000000000000000000000000000000000000000000000000000000000000000000000000000000000000000000000000000000000000000000000000000000",
          "blockHash": "0x2b36b1aee1cb5fa70a14caee2be9f48c4dc0890470cb4c1b24847a78eccd175d",
          "blockNumber": "0x187fdfc4",
          "blockTimestamp": "0x69408866",
          "transactionHash": "0xd99e631e30596cc39d26f6cb98e734fd50c628c1df514f4a0a4ebda0fcb9574e",
          "transactionIndex": "0x3",
          "logIndex": "0x1",
          "removed": false
        }
      ],
      "logsBloom": "0x00000000000000000000000000000000000000000000000000000000000000000000000000000000000000000000000000000000000400000000000000000000000000000000000000000040000000000000000000000000002000000000000000000000000800000000000000000000000000000000000000000000000000000000000000000000000000000000000000000000000000000000000000000000000000000000000000000002000000000000000000000000000000000000008200000000000000000000000000000000000000000000000000000000000000000008000000000000000000000000000000000000000000000000000000000010",
      "type": "0x2",
      "transactionHash": "0xd99e631e30596cc39d26f6cb98e734fd50c628c1df514f4a0a4ebda0fcb9574e",
      "transactionIndex": "0x3",
      "blockHash": "0x2b36b1aee1cb5fa70a14caee2be9f48c4dc0890470cb4c1b24847a78eccd175d",
      "blockNumber": "0x187fdfc4",
      "gasUsed": "0x1072d",
      "effectiveGasPrice": "0x989680",
      "from": "0xdb5af497a73620d881561edb508012a5f84e9ba2",
      "to": "0x1a44076050125825900e736c501f859c50fe728c",
      "contractAddress": null,
      "gasUsedForL1": "0x0",
      "l1BlockNumber": "0x16e87b6",
      "timeboosted": false
    }
  ],
  "libraries": [],
  "pending": [],
  "returns": {},
  "timestamp": 1765836904118,
  "chain": 42161,
  "commit": "6bf3a0df2"
}