{
  "transactions": [
    {
      "hash": "0x33a5994b71488eda27241363157260af3862fe02b86f071b4ece942baa4c96dd",
      "transactionType": "CALL",
      "contractName": null,
      "contractAddress": "0x77bf3900d79d7ba4daefeb5ed4d216308dbfbf53",
      "function": "setPeer(uint32,bytes32)",
      "arguments": [
        "30391",
        "0x000000000000000000000000d82f211d0d9be9a73a829a5f1f0e34b02bf2fb36"
      ],
      "transaction": {
        "from": "0xdb5af497a73620d881561edb508012a5f84e9ba2",
        "to": "0x77bf3900d79d7ba4daefeb5ed4d216308dbfbf53",
        "gas": "0xf411",
        "value": "0x0",
        "input": "0x3400288b00000000000000000000000000000000000000000000000000000000000076b7000000000000000000000000d82f211d0d9be9a73a829a5f1f0e34b02bf2fb36",
        "nonce": "0x127f",
        "chainId": "0xa4b1"
      },
      "additionalContracts": [],
      "isFixedGasLimit": false
    },
    {
      "hash": "0x4a87db837d3a89429c2f7828ec78dead1baa659ca8b416bfe84ac9128898f591",
      "transactionType": "CALL",
      "contractName": null,
      "contractAddress": "0x77bf3900d79d7ba4daefeb5ed4d216308dbfbf53",
      "function": "setBridgeConfig((uint32,address))",
      "arguments": [
        "(30391, 0xd82F211D0d9bE9A73a829A5F1f0e34b02Bf2FB36)"
      ],
      "transaction": {
        "from": "0xdb5af497a73620d881561edb508012a5f84e9ba2",
        "to": "0x77bf3900d79d7ba4daefeb5ed4d216308dbfbf53",
        "gas": "0xf812",
        "value": "0x0",
        "input": "0x90919c2e00000000000000000000000000000000000000000000000000000000000076b7000000000000000000000000d82f211d0d9be9a73a829a5f1f0e34b02bf2fb36",
        "nonce": "0x1280",
        "chainId": "0xa4b1"
      },
      "additionalContracts": [],
      "isFixedGasLimit": false
    },
    {
      "hash": "0x735fe990a35f593e6fb7d94ccd8aadfcbb72c71f40243d3be72f6192fbd1cf12",
      "transactionType": "CALL",
      "contractName": null,
      "contractAddress": "0x77bf3900d79d7ba4daefeb5ed4d216308dbfbf53",
      "function": "approveAsserter(address)",
      "arguments": [
        "0xa544D52c20a557906817c3f94bFC875e8b83FBEA"
      ],
      "transaction": {
        "from": "0xdb5af497a73620d881561edb508012a5f84e9ba2",
        "to": "0x77bf3900d79d7ba4daefeb5ed4d216308dbfbf53",
        "gas": "0xf24e",
        "value": "0x0",
        "input": "0x70867bc3000000000000000000000000a544d52c20a557906817c3f94bfc875e8b83fbea",
        "nonce": "0x1281",
        "chainId": "0xa4b1"
      },
      "additionalContracts": [],
      "isFixedGasLimit": false
    }
  ],
  "receipts": [
    {
      "status": "0x1",
      "cumulativeGasUsed": "0x228fa",
      "logs": [
        {
          "address": "0x77bf3900d79d7ba4daefeb5ed4d216308dbfbf53",
          "topics": [
            "0x238399d427b947898edb290f5ff0f9109849b1c3ba196a42e35f00c50a54b98b"
          ],
          "data": "0x00000000000000000000000000000000000000000000000000000000000076b7000000000000000000000000d82f211d0d9be9a73a829a5f1f0e34b02bf2fb36",
          "blockHash": "0x677d77f886049e30587571c66c336b4adf27a271ce46356a69aefe0338bbc171",
          "blockNumber": "0x185b0ef6",
          "blockTimestamp": "0x693757f0",
          "transactionHash": "0x33a5994b71488eda27241363157260af3862fe02b86f071b4ece942baa4c96dd",
          "transactionIndex": "0x2",
          "logIndex": "0x0",
          "removed": false
        }
      ],
      "logsBloom": "0x00000000000000000000000000000000080000000000000000000000000000000000000000000000000000000000000000000000000000000800000000000000000000000000000000000000000000000000000000000000000000000000000000000000000000000000000000000000000000000000000000000000000000000000000000000000000000000000000000000000000000000000000000000000000000000000000000000000000000000000000000000000000002000000000000000000000000000000000000008000000000000000000000040000000000000000000000000000000000000080000000000000000000000000000000000000",
      "type": "0x2",
      "transactionHash": "0x33a5994b71488eda27241363157260af3862fe02b86f071b4ece942baa4c96dd",
      "transactionIndex": "0x2",
      "blockHash": "0x677d77f886049e30587571c66c336b4adf27a271ce46356a69aefe0338bbc171",
      "blockNumber": "0x185b0ef6",
      "gasUsed": "0xba3e",
      "effectiveGasPrice": "0x989680",
      "from": "0xdb5af497a73620d881561edb508012a5f84e9ba2",
      "to": "0x77bf3900d79d7ba4daefeb5ed4d216308dbfbf53",
      "contractAddress": null,
      "gasUsedForL1": "0x0",
      "l1BlockNumber": "0x16dc582",
      "timeboosted": false
    },
    {
      "status": "0x1",
      "cumulativeGasUsed": "0x37fff",
      "logs": [
        {
          "address": "0x77bf3900d79d7ba4daefeb5ed4d216308dbfbf53",
          "topics": [
            "0x667c4919e9f81a90720a09575224afc1e5c12c569c86afa746138907a029cd0d"
          ],
          "data": "0x00000000000000000000000000000000000000000000000000000000000076b7000000000000000000000000d82f211d0d9be9a73a829a5f1f0e34b02bf2fb36",
          "blockHash": "0x30cf3fb47bcd4462b9da19f58e52cf20fe9405df29ad013558f517c35bd98335",
          "blockNumber": "0x185b0f02",
          "blockTimestamp": "0x693757f3",
          "transactionHash": "0x4a87db837d3a89429c2f7828ec78dead1baa659ca8b416bfe84ac9128898f591",
          "transactionIndex": "0x3",
          "logIndex": "0x0",
          "removed": false
        }
      ],
      "logsBloom": "0x00000000000000000000000000000000080000000000000000000000000000000000000000000000000000000000000000000000000000000000000000000000000000000000000000000000000000000000000000000000000000000000000000000000000000000000000000000000000000000000000000000000000000000000000000000000000000000000000000000000000000000000000000000000000000000000000000000000000000000000000000000000000000000000000000000000000000000000000000008004000000000000000000000000000000000000000010000000000000000080000000000000000000000000004000000000",
      "type": "0x2",
      "transactionHash": "0x4a87db837d3a89429c2f7828ec78dead1baa659ca8b416bfe84ac9128898f591",
      "transactionIndex": "0x3",
      "blockHash": "0x30cf3fb47bcd4462b9da19f58e52cf20fe9405df29ad013558f517c35bd98335",
      "blockNumber": "0x185b0f02",
      "gasUsed": "0xbbcd",
      "effectiveGasPrice": "0x989680",
      "from": "0xdb5af497a73620d881561edb508012a5f84e9ba2",
      "to": "0x77bf3900d79d7ba4daefeb5ed4d216308dbfbf53",
      "contractAddress": null,
      "gasUsedForL1": "0x0",
      "l1BlockNumber": "0x16dc582",
      "timeboosted": false
    },
    {
      "status": "0x1",
      "cumulativeGasUsed": "0x7eebb",
      "logs": [
        {
          "address": "0x77bf3900d79d7ba4daefeb5ed4d216308dbfbf53",
          "topics": [
            "0xa294d016c0db7718af815dd05b3fac66689245edf42a14556d47e40c5a92225c",
            "0x000000000000000000000000a544d52c20a557906817c3f94bfc875e8b83fbea"
          ],
          "data": "0x",
          "blockHash": "0xfa07803b1de73dcd243310ea474af2a20dca86309e16e20aead2fece73a6500a",
          "blockNumber": "0x185b0f0e",
          "blockTimestamp": "0x693757f6",
          "transactionHash": "0x735fe990a35f593e6fb7d94ccd8aadfcbb72c71f40243d3be72f6192fbd1cf12",
          "transactionIndex": "0x6",
          "logIndex": "0x4",
          "removed": false
        }
      ],
      "logsBloom": "0x00000000000000000000000000000000080000000000000000000000000000000000000000000000000000008000000000000000000000000000000000000000000000000000000000000000000000000000000000000008040000000000000000000000000000000000000000000000000000000000000000000000000000000000000000000000000000000000000000000000000000000000000000000000000000000001000000000000000000000000000000000040000000000000000000000000000000000000000000008000000800000000000000000000000000000000000000000000000000000080000000000000000000000000000000000000",
      "type": "0x2",
      "transactionHash": "0x735fe990a35f593e6fb7d94ccd8aadfcbb72c71f40243d3be72f6192fbd1cf12",
      "transactionIndex": "0x6",
      "blockHash": "0xfa07803b1de73dcd243310ea474af2a20dca86309e16e20aead2fece73a6500a",
      "blockNumber": "0x185b0f0e",
      "gasUsed": "0xb8e3",
      "effectiveGasPrice": "0x989680",
      "from": "0xdb5af497a73620d881561edb508012a5f84e9ba2",
      "to": "0x77bf3900d79d7ba4daefeb5ed4d216308dbfbf53",
      "contractAddress": null,
      "gasUsedForL1": "0x0",
      "l1BlockNumber": "0x16dc583",
      "timeboosted": false
    }
  ],
  "libraries": [],
  "pending": [],
  "returns": {},
  "timestamp": 1765234680,
  "chain": 42161,
  "commit": "af49cf04f"
}