{
  "transactions": [
    {
      "hash": "0x22cfe26c59b44d179ffa8d50d9881aba5d64f2c2176dcd12357ee7e843c98213",
      "transactionType": "CALL",
      "contractName": null,
      "contractAddress": "0x070bd542474390c3afed2dae85c2d13932c75f17",
      "function": "setPeer(uint32,bytes32)",
      "arguments": [
        "30391",
        "0x000000000000000000000000c873efa9d22a09e39101efb977c03011620bf015"
      ],
      "transaction": {
        "from": "0xdb5af497a73620d881561edb508012a5f84e9ba2",
        "to": "0x070bd542474390c3afed2dae85c2d13932c75f17",
        "gas": "0xf737",
        "value": "0x0",
        "input": "0x3400288b00000000000000000000000000000000000000000000000000000000000076b7000000000000000000000000c873efa9d22a09e39101efb977c03011620bf015",
        "nonce": "0x11fb",
        "chainId": "0xa4b1"
      },
      "additionalContracts": [],
      "isFixedGasLimit": false
    }
  ],
  "receipts": [
    {
      "status": "0x1",
      "cumulativeGasUsed": "0x114e02",
      "logs": [
        {
          "address": "0x070bd542474390c3afed2dae85c2d13932c75f17",
          "topics": [
            "0x238399d427b947898edb290f5ff0f9109849b1c3ba196a42e35f00c50a54b98b"
          ],
          "data": "0x00000000000000000000000000000000000000000000000000000000000076b7000000000000000000000000c873efa9d22a09e39101efb977c03011620bf015",
          "blockHash": "0xbd49cacbedcc25aaa43df66eebb58686d69244473b59e7dae39f43344d0b6bad",
          "blockNumber": "0x18115a5c",
          "blockTimestamp": "0x6924f47b",
          "transactionHash": "0x22cfe26c59b44d179ffa8d50d9881aba5d64f2c2176dcd12357ee7e843c98213",
          "transactionIndex": "0x6",
          "logIndex": "0x7",
          "removed": false
        }
      ],
      "logsBloom": "0x00000000000008000000000000000000000000000000000000000000000000000000000000000000000000000000000000000000000000000800000000000000000000000000000000000000200000000000000000000000000000000000000000000000000000000001000000000000000000000000000000000000000000000000000000000000000000000000000000000000000000000000000000000000000000000000000000000000000000000000000000000000000002000000000000000000000000000000000000000000000000000000000000040000000000000000000000000000000000000000000000000000000000000000000000000000",
      "type": "0x2",
      "transactionHash": "0x22cfe26c59b44d179ffa8d50d9881aba5d64f2c2176dcd12357ee7e843c98213",
      "transactionIndex": "0x6",
      "blockHash": "0xbd49cacbedcc25aaa43df66eebb58686d69244473b59e7dae39f43344d0b6bad",
      "blockNumber": "0x18115a5c",
      "gasUsed": "0xbc02",
      "effectiveGasPrice": "0xa6bb98",
      "from": "0xdb5af497a73620d881561edb508012a5f84e9ba2",
      "to": "0x070bd542474390c3afed2dae85c2d13932c75f17",
      "contractAddress": null,
      "gasUsedForL1": "0x1c4",
      "l1BlockNumber": "0x16c42b6",
      "timeboosted": false
    }
  ],
  "libraries": [],
  "pending": [],
  "returns": {},
  "timestamp": 1764029565,
  "chain": 42161,
  "commit": "452ee5b9"
}